{
  "_format": "hh-sol-artifact-1",
  "contractName": "ConduitController",
  "sourceName": "contracts/ConduitController.sol",
  "abi": [
    {
      "inputs": [],
      "stateMutability": "nonpayable",
      "type": "constructor"
    },
    {
      "inputs": [
        {
          "internalType": "address",
          "name": "conduit",
          "type": "address"
        }
      ],
      "name": "CallerIsNotNewPotentialOwner",
      "type": "error"
    },
    {
      "inputs": [
        {
          "internalType": "address",
          "name": "conduit",
          "type": "address"
        }
      ],
      "name": "CallerIsNotOwner",
      "type": "error"
    },
    {
      "inputs": [
        {
          "internalType": "address",
          "name": "conduit",
          "type": "address"
        }
      ],
      "name": "ChannelOutOfRange",
      "type": "error"
    },
    {
      "inputs": [
        {
          "internalType": "address",
          "name": "conduit",
          "type": "address"
        }
      ],
      "name": "ConduitAlreadyExists",
      "type": "error"
    },
    {
      "inputs": [],
      "name": "InvalidCreator",
      "type": "error"
    },
    {
      "inputs": [],
      "name": "InvalidInitialOwner",
      "type": "error"
    },
    {
      "inputs": [
        {
          "internalType": "address",
          "name": "conduit",
          "type": "address"
        },
        {
          "internalType": "address",
          "name": "newPotentialOwner",
          "type": "address"
        }
      ],
      "name": "NewPotentialOwnerAlreadySet",
      "type": "error"
    },
    {
      "inputs": [
        {
          "internalType": "address",
          "name": "conduit",
          "type": "address"
        }
      ],
      "name": "NewPotentialOwnerIsZeroAddress",
      "type": "error"
    },
    {
      "inputs": [],
      "name": "NoConduit",
      "type": "error"
    },
    {
      "inputs": [
        {
          "internalType": "address",
          "name": "conduit",
          "type": "address"
        }
      ],
      "name": "NoPotentialOwnerCurrentlySet",
      "type": "error"
    },
    {
      "anonymous": false,
      "inputs": [
        {
          "indexed": false,
          "internalType": "address",
          "name": "conduit",
          "type": "address"
        },
        {
          "indexed": false,
          "internalType": "bytes32",
          "name": "conduitKey",
          "type": "bytes32"
        }
      ],
      "name": "NewConduit",
      "type": "event"
    },
    {
      "anonymous": false,
      "inputs": [
        {
          "indexed": true,
          "internalType": "address",
          "name": "conduit",
          "type": "address"
        },
        {
          "indexed": true,
          "internalType": "address",
          "name": "previousOwner",
          "type": "address"
        },
        {
          "indexed": true,
          "internalType": "address",
          "name": "newOwner",
          "type": "address"
        }
      ],
      "name": "OwnershipTransferred",
      "type": "event"
    },
    {
      "anonymous": false,
      "inputs": [
        {
          "indexed": true,
          "internalType": "address",
          "name": "newPotentialOwner",
          "type": "address"
        }
      ],
      "name": "PotentialOwnerUpdated",
      "type": "event"
    },
    {
      "inputs": [
        {
          "internalType": "address",
          "name": "conduit",
          "type": "address"
        }
      ],
      "name": "acceptOwnership",
      "outputs": [],
      "stateMutability": "nonpayable",
      "type": "function"
    },
    {
      "inputs": [
        {
          "internalType": "address",
          "name": "conduit",
          "type": "address"
        }
      ],
      "name": "cancelOwnershipTransfer",
      "outputs": [],
      "stateMutability": "nonpayable",
      "type": "function"
    },
    {
      "inputs": [
        {
          "internalType": "bytes32",
          "name": "conduitKey",
          "type": "bytes32"
        },
        {
          "internalType": "address",
          "name": "initialOwner",
          "type": "address"
        }
      ],
      "name": "createConduit",
      "outputs": [
        {
          "internalType": "address",
          "name": "conduit",
          "type": "address"
        }
      ],
      "stateMutability": "nonpayable",
      "type": "function"
    },
    {
      "inputs": [
        {
          "internalType": "address",
          "name": "conduit",
          "type": "address"
        },
        {
          "internalType": "uint256",
          "name": "channelIndex",
          "type": "uint256"
        }
      ],
      "name": "getChannel",
      "outputs": [
        {
          "internalType": "address",
          "name": "channel",
          "type": "address"
        }
      ],
      "stateMutability": "view",
      "type": "function"
    },
    {
      "inputs": [
        {
          "internalType": "address",
          "name": "conduit",
          "type": "address"
        },
        {
          "internalType": "address",
          "name": "channel",
          "type": "address"
        }
      ],
      "name": "getChannelStatus",
      "outputs": [
        {
          "internalType": "bool",
          "name": "isOpen",
          "type": "bool"
        }
      ],
      "stateMutability": "view",
      "type": "function"
    },
    {
      "inputs": [
        {
          "internalType": "address",
          "name": "conduit",
          "type": "address"
        }
      ],
      "name": "getChannels",
      "outputs": [
        {
          "internalType": "address[]",
          "name": "channels",
          "type": "address[]"
        }
      ],
      "stateMutability": "view",
      "type": "function"
    },
    {
      "inputs": [
        {
          "internalType": "bytes32",
          "name": "conduitKey",
          "type": "bytes32"
        }
      ],
      "name": "getConduit",
      "outputs": [
        {
          "internalType": "address",
          "name": "conduit",
          "type": "address"
        },
        {
          "internalType": "bool",
          "name": "exists",
          "type": "bool"
        }
      ],
      "stateMutability": "view",
      "type": "function"
    },
    {
      "inputs": [],
      "name": "getConduitCodeHashes",
      "outputs": [
        {
          "internalType": "bytes32",
          "name": "creationCodeHash",
          "type": "bytes32"
        },
        {
          "internalType": "bytes32",
          "name": "runtimeCodeHash",
          "type": "bytes32"
        }
      ],
      "stateMutability": "view",
      "type": "function"
    },
    {
      "inputs": [
        {
          "internalType": "address",
          "name": "conduit",
          "type": "address"
        }
      ],
      "name": "getKey",
      "outputs": [
        {
          "internalType": "bytes32",
          "name": "conduitKey",
          "type": "bytes32"
        }
      ],
      "stateMutability": "view",
      "type": "function"
    },
    {
      "inputs": [
        {
          "internalType": "address",
          "name": "conduit",
          "type": "address"
        }
      ],
      "name": "getPotentialOwner",
      "outputs": [
        {
          "internalType": "address",
          "name": "potentialOwner",
          "type": "address"
        }
      ],
      "stateMutability": "view",
      "type": "function"
    },
    {
      "inputs": [
        {
          "internalType": "address",
          "name": "conduit",
          "type": "address"
        }
      ],
      "name": "getTotalChannels",
      "outputs": [
        {
          "internalType": "uint256",
          "name": "totalChannels",
          "type": "uint256"
        }
      ],
      "stateMutability": "view",
      "type": "function"
    },
    {
      "inputs": [
        {
          "internalType": "address",
          "name": "conduit",
          "type": "address"
        }
      ],
      "name": "ownerOf",
      "outputs": [
        {
          "internalType": "address",
          "name": "owner",
          "type": "address"
        }
      ],
      "stateMutability": "view",
      "type": "function"
    },
    {
      "inputs": [
        {
          "internalType": "address",
          "name": "conduit",
          "type": "address"
        },
        {
          "internalType": "address",
          "name": "newPotentialOwner",
          "type": "address"
        }
      ],
      "name": "transferOwnership",
      "outputs": [],
      "stateMutability": "nonpayable",
      "type": "function"
    },
    {
      "inputs": [
        {
          "internalType": "address",
          "name": "conduit",
          "type": "address"
        },
        {
          "internalType": "address",
          "name": "channel",
          "type": "address"
        },
        {
          "internalType": "bool",
          "name": "isOpen",
          "type": "bool"
        }
      ],
      "name": "updateChannel",
      "outputs": [],
      "stateMutability": "nonpayable",
      "type": "function"
    }
  ],
  "bytecode": "0x60c060405234801561001057600080fd5b5060405161002060208201610088565b6020820181038252601f19601f82011660405250805190602001206080818152505060008060001b60405161005490610088565b8190604051809103906000f5905080158015610074573d6000803e3d6000fd5b506001600160a01b03163f60a05250610095565b610c2780611cab83390190565b60805160a051611bd56100d660003960008181610148015281816102ae0152610a1b0152600081816101250152818161025c01526109d70152611bd56000f3fe608060405234801561001057600080fd5b50600436106100ea5760003560e01c80636d4354211161008c5780637b37e561116100665780637b37e561146103075780638b9e028b1461031a578063906c87cc1461033a57806393790f441461034d57600080fd5b80636d435421146101f15780636e9bfd9f14610204578063794593bc146102f457600080fd5b806314afd79e116100c857806314afd79e1461018757806333bc85721461019a5780634e3f9580146101bd57806351710e45146101de57600080fd5b8063027cc764146100ef5780630a96ad391461011f57806313ad9cab14610172575b600080fd5b6101026100fd366004610dd1565b610360565b6040516001600160a01b0390911681526020015b60405180910390f35b604080517f000000000000000000000000000000000000000000000000000000000000000081527f0000000000000000000000000000000000000000000000000000000000000000602082015201610116565b610185610180366004610dfb565b61041a565b005b610102610195366004610e47565b610639565b6101ad6101a8366004610e69565b610666565b6040519015158152602001610116565b6101d06101cb366004610e47565b6106a1565b604051908152602001610116565b6101856101ec366004610e47565b6106cb565b6101856101ff366004610e69565b6107e9565b6102d5610212366004610e9c565b6040517fff0000000000000000000000000000000000000000000000000000000000000060208201526bffffffffffffffffffffffff193060601b166021820152603581018290527f00000000000000000000000000000000000000000000000000000000000000006055820152600090819060750160408051601f198184030181529190528051602090910120936001600160a01b0385163f7f0000000000000000000000000000000000000000000000000000000000000000149350915050565b604080516001600160a01b039093168352901515602083015201610116565b610102610302366004610eb5565b61090e565b610185610315366004610e47565b610b64565b61032d610328366004610e47565b610c21565b6040516101169190610ed8565b610102610348366004610e47565b610ca1565b6101d061035b366004610e47565b610cce565b600061036b83610d0a565b6001600160a01b0383166000908152602081905260409020600301548083106103d0576040517f6ceb340b0000000000000000000000000000000000000000000000000000000081526001600160a01b03851660048201526024015b60405180910390fd5b6001600160a01b03841660009081526020819052604090206003018054849081106103fd576103fd610f25565b6000918252602090912001546001600160a01b0316949350505050565b61042383610d43565b6040517fc4e8fcb50000000000000000000000000000000000000000000000000000000081526001600160a01b038381166004830152821515602483015284169063c4e8fcb590604401600060405180830381600087803b15801561048757600080fd5b505af115801561049b573d6000803e3d6000fd5b505050506001600160a01b038381166000908152602081815260408083209386168352600484019091529020548015158380156104d6575080155b15610526576003830180546001810182556000828152602080822090920180546001600160a01b0319166001600160a01b038a169081179091559254928152600486019091526040902055610631565b831580156105315750805b1561063157600383015460001983019060009061055090600190610f3b565b90508181146105de57600085600301828154811061057057610570610f25565b6000918252602090912001546003870180546001600160a01b0390921692508291859081106105a1576105a1610f25565b600091825260208083209190910180546001600160a01b0319166001600160a01b0394851617905592909116815260048701909152604090208490555b846003018054806105f1576105f1610f62565b60008281526020808220830160001990810180546001600160a01b03191690559092019092556001600160a01b0389168252600487019052604081205550505b505050505050565b600061064482610d0a565b506001600160a01b039081166000908152602081905260409020600101541690565b600061067183610d0a565b506001600160a01b0391821660009081526020818152604080832093909416825260049092019091522054151590565b60006106ac82610d0a565b506001600160a01b031660009081526020819052604090206003015490565b6106d481610d0a565b6001600160a01b03818116600090815260208190526040902060020154163314610735576040517f88c3a1150000000000000000000000000000000000000000000000000000000081526001600160a01b03821660048201526024016103c7565b6040516000907f11a3cf439fb225bfe74225716b6774765670ec1060e3796802e62139d69974da908290a26001600160a01b038082166000818152602081905260408082206002810180546001600160a01b031916905560010154905133949190911692917fc8894f26f396ce8c004245c8b7cd1b92103a6e4302fcbab883987149ac01b7ec91a46001600160a01b0316600090815260208190526040902060010180546001600160a01b03191633179055565b6107f282610d43565b6001600160a01b03811661083d576040517fa388d2630000000000000000000000000000000000000000000000000000000081526001600160a01b03831660048201526024016103c7565b6001600160a01b038083166000908152602081905260409020600201548116908216036108a9576040517fcbc080ca0000000000000000000000000000000000000000000000000000000081526001600160a01b038084166004830152821660248201526044016103c7565b6040516001600160a01b038216907f11a3cf439fb225bfe74225716b6774765670ec1060e3796802e62139d69974da90600090a26001600160a01b03918216600090815260208190526040902060020180546001600160a01b03191691909216179055565b60006001600160a01b038216610950576040517f99faaa0400000000000000000000000000000000000000000000000000000000815260040160405180910390fd5b606083901c331461098d576040517fcb6e534400000000000000000000000000000000000000000000000000000000815260040160405180910390fd5b6040517fff0000000000000000000000000000000000000000000000000000000000000060208201526bffffffffffffffffffffffff193060601b166021820152603581018490527f000000000000000000000000000000000000000000000000000000000000000060558201526075016040516020818303038152906040528051906020012060001c90507f0000000000000000000000000000000000000000000000000000000000000000816001600160a01b03163f03610a87576040517f6328ccb20000000000000000000000000000000000000000000000000000000081526001600160a01b03821660048201526024016103c7565b82604051610a9490610dad565b8190604051809103906000f5905080158015610ab4573d6000803e3d6000fd5b50506001600160a01b03818116600081815260208181526040918290206001810180546001600160a01b03191695881695909517909455868455815192835282018690527f4397af6128d529b8ae0442f99db1296d5136062597a15bbc61c1b2a6431a7d15910160405180910390a16040516001600160a01b03808516916000918516907fc8894f26f396ce8c004245c8b7cd1b92103a6e4302fcbab883987149ac01b7ec908390a45092915050565b610b6d81610d43565b6001600160a01b0381811660009081526020819052604090206002015416610bcc576040517f6b0136160000000000000000000000000000000000000000000000000000000081526001600160a01b03821660048201526024016103c7565b6040516000907f11a3cf439fb225bfe74225716b6774765670ec1060e3796802e62139d69974da908290a26001600160a01b0316600090815260208190526040902060020180546001600160a01b0319169055565b6060610c2c82610d0a565b6001600160a01b0382166000908152602081815260409182902060030180548351818402810184019094528084529091830182828015610c9557602002820191906000526020600020905b81546001600160a01b03168152600190910190602001808311610c77575b50505050509050919050565b6000610cac82610d0a565b506001600160a01b039081166000908152602081905260409020600201541690565b6001600160a01b03811660009081526020819052604090205480610d05576040516304ca820960e41b815260040160405180910390fd5b919050565b6001600160a01b038116600090815260208190526040902054610d40576040516304ca820960e41b815260040160405180910390fd5b50565b610d4c81610d0a565b6001600160a01b03818116600090815260208190526040902060010154163314610d40576040517fd4ed9a170000000000000000000000000000000000000000000000000000000081526001600160a01b03821660048201526024016103c7565b610c2780610f7983390190565b80356001600160a01b0381168114610d0557600080fd5b60008060408385031215610de457600080fd5b610ded83610dba565b946020939093013593505050565b600080600060608486031215610e1057600080fd5b610e1984610dba565b9250610e2760208501610dba565b915060408401358015158114610e3c57600080fd5b809150509250925092565b600060208284031215610e5957600080fd5b610e6282610dba565b9392505050565b60008060408385031215610e7c57600080fd5b610e8583610dba565b9150610e9360208401610dba565b90509250929050565b600060208284031215610eae57600080fd5b5035919050565b60008060408385031215610ec857600080fd5b82359150610e9360208401610dba565b6020808252825182820181905260009190848201906040850190845b81811015610f195783516001600160a01b031683529284019291840191600101610ef4565b50909695505050505050565b634e487b7160e01b600052603260045260246000fd5b81810381811115610f5c57634e487b7160e01b600052601160045260246000fd5b92915050565b634e487b7160e01b600052603160045260246000fdfe60a060405234801561001057600080fd5b5033608052608051610bf7610030600039600061024c0152610bf76000f3fe608060405234801561001057600080fd5b506004361061004c5760003560e01c80634ce34aa214610051578063899e104c146100995780638df25d92146100ac578063c4e8fcb5146100bf575b600080fd5b61006461005f3660046109d1565b6100d4565b6040517fffffffff00000000000000000000000000000000000000000000000000000000909116815260200160405180910390f35b6100646100a7366004610a58565b61015c565b6100646100ba366004610ac4565b6101e5565b6100d26100cd366004610b16565b610241565b005b60003360005260006020526040600020546100fe576349ed56f960e11b6000523360045260246000fd5b8160005b818110156101325761012a85858381811061011f5761011f610b52565b905060c00201610371565b600101610102565b507f4ce34aa200000000000000000000000000000000000000000000000000000000949350505050565b6000336000526000602052604060002054610186576349ed56f960e11b6000523360045260246000fd5b8360005b818110156101af576101a787878381811061011f5761011f610b52565b60010161018a565b506101ba848461050f565b507f899e104c0000000000000000000000000000000000000000000000000000000095945050505050565b600033600052600060205260406000205461020f576349ed56f960e11b6000523360045260246000fd5b610219838361050f565b507f8df25d920000000000000000000000000000000000000000000000000000000092915050565b336001600160a01b037f000000000000000000000000000000000000000000000000000000000000000016146102a3576040517f6d5769be00000000000000000000000000000000000000000000000000000000815260040160405180910390fd5b6001600160a01b03821660009081526020819052604090205481151560ff909116151503610314576040517f924e341e0000000000000000000000000000000000000000000000000000000081526001600160a01b0383166004820152811515602482015260440160405180910390fd5b6001600160a01b03821660008181526020818152604091829020805460ff191685151590811790915591519182527fae63067d43ac07563b7eb8db6595635fc77f1578a2a5ea06ba91b63e2afa37e2910160405180910390a25050565b60016103806020830183610b7e565b600381111561039157610391610b68565b036103d6576103d36103a96040830160208401610ba6565b6103b96060840160408501610ba6565b6103c96080850160608601610ba6565b8460a0013561069f565b50565b60026103e56020830183610b7e565b60038111156103f6576103f6610b68565b03610476578060a00135600114610439576040517fefcc00b100000000000000000000000000000000000000000000000000000000815260040160405180910390fd5b6103d361044c6040830160208401610ba6565b61045c6060840160408501610ba6565b61046c6080850160608601610ba6565b84608001356107c1565b60036104856020830183610b7e565b600381111561049657610496610b68565b036104dd576103d36104ae6040830160208401610ba6565b6104be6060840160408501610ba6565b6104ce6080850160608601610ba6565b84608001358560a00135610885565b6040517f7932f1fc00000000000000000000000000000000000000000000000000000000815260040160405180910390fd5b8082807f2eb2c2d60000000000000000000000000000000000000000000000000000000060205260005b8381101561069257823582018035803b61056257632f8aeb3960e11b6000528060045260246000fd5b60a08201356020810260c0018060808501351460a0606086013514168185013583141615905080156105b8577feba2084c0000000000000000000000000000000000000000000000000000000060005260046000fd5b506020860195506080602084016024376040810260400190508060a00160a45260008160c401528060c4018160a0850160c4376000808260206000875af1935083610683573d15610648576020601f3d0104915060208104826003028184111561063057818403600302610200838002868002030401015b5a602082011015610645573d6000803e3d6000fd5b50505b7fafc445e2000000000000000000000000000000000000000000000000000000006000528260045260c0606452608451602001608452806000fd5b50505050600181019050610539565b5050505060806040525050565b6040516323b872dd60e01b600052836004528260245281604452602060006064600080895af1803d15601f3d116001600051141617163d151581166107b15780873b1515166107b1578061079c5781610762573d1561073c576020601f3d010460208404816003028183111561072357818303600302610200838002858002030401015b5a602082011015610738573d6000803e3d6000fd5b5050505b63f486bc8760e01b60005286600452856024528460445260006064528360845260a46000fd5b7f98891923000000000000000000000000000000000000000000000000000000006000528660045285602452846044528360645260846000fd5b632f8aeb3960e11b6000528660045260246000fd5b5050604052505060006060525050565b833b6107dc57632f8aeb3960e11b6000528360045260246000fd5b6040516323b872dd60e01b6000528360045282602452816044526000806064600080895af180610876573d15610850576020601f3d010460208304816003028183111561083757818303600302610200838002858002030401015b5a60208201101561084c573d6000803e3d6000fd5b5050505b63f486bc8760e01b60005285600452846024528360445282606452600160845260a46000fd5b50604052505060006060525050565b843b6108a057632f8aeb3960e11b6000528460045260246000fd5b60405160805160a05160c0517ff242432a000000000000000000000000000000000000000000000000000000006000528760045286602452856044528460645260a0608452600060a45260008060c46000808d5af180610969573d15610944576020601f3d010460208604816003028183111561092b57818303600302610200838002858002030401015b5a602082011015610940573d6000803e3d6000fd5b5050505b63f486bc8760e01b600052896004528860245287604452866064528560845260a46000fd5b5060809290925260a05260c05260405250506000606052505050565b60008083601f84011261099757600080fd5b50813567ffffffffffffffff8111156109af57600080fd5b60208301915083602060c0830285010111156109ca57600080fd5b9250929050565b600080602083850312156109e457600080fd5b823567ffffffffffffffff8111156109fb57600080fd5b610a0785828601610985565b90969095509350505050565b60008083601f840112610a2557600080fd5b50813567ffffffffffffffff811115610a3d57600080fd5b6020830191508360208260051b85010111156109ca57600080fd5b60008060008060408587031215610a6e57600080fd5b843567ffffffffffffffff80821115610a8657600080fd5b610a9288838901610985565b90965094506020870135915080821115610aab57600080fd5b50610ab887828801610a13565b95989497509550505050565b60008060208385031215610ad757600080fd5b823567ffffffffffffffff811115610aee57600080fd5b610a0785828601610a13565b80356001600160a01b0381168114610b1157600080fd5b919050565b60008060408385031215610b2957600080fd5b610b3283610afa565b915060208301358015158114610b4757600080fd5b809150509250929050565b634e487b7160e01b600052603260045260246000fd5b634e487b7160e01b600052602160045260246000fd5b600060208284031215610b9057600080fd5b813560048110610b9f57600080fd5b9392505050565b600060208284031215610bb857600080fd5b610b9f82610afa56fea2646970667358221220ca157f21613d9fe1ec31eb7e3745e72bdd82ead7c9237854a2586f810f90fd1a64736f6c63430008110033a26469706673582212204ae78e700269aba9bdf9a95b0d44fb04ab73e8364f38b8d715796cbbb9b7a82164736f6c6343000811003360a060405234801561001057600080fd5b5033608052608051610bf7610030600039600061024c0152610bf76000f3fe608060405234801561001057600080fd5b506004361061004c5760003560e01c80634ce34aa214610051578063899e104c146100995780638df25d92146100ac578063c4e8fcb5146100bf575b600080fd5b61006461005f3660046109d1565b6100d4565b6040517fffffffff00000000000000000000000000000000000000000000000000000000909116815260200160405180910390f35b6100646100a7366004610a58565b61015c565b6100646100ba366004610ac4565b6101e5565b6100d26100cd366004610b16565b610241565b005b60003360005260006020526040600020546100fe576349ed56f960e11b6000523360045260246000fd5b8160005b818110156101325761012a85858381811061011f5761011f610b52565b905060c00201610371565b600101610102565b507f4ce34aa200000000000000000000000000000000000000000000000000000000949350505050565b6000336000526000602052604060002054610186576349ed56f960e11b6000523360045260246000fd5b8360005b818110156101af576101a787878381811061011f5761011f610b52565b60010161018a565b506101ba848461050f565b507f899e104c0000000000000000000000000000000000000000000000000000000095945050505050565b600033600052600060205260406000205461020f576349ed56f960e11b6000523360045260246000fd5b610219838361050f565b507f8df25d920000000000000000000000000000000000000000000000000000000092915050565b336001600160a01b037f000000000000000000000000000000000000000000000000000000000000000016146102a3576040517f6d5769be00000000000000000000000000000000000000000000000000000000815260040160405180910390fd5b6001600160a01b03821660009081526020819052604090205481151560ff909116151503610314576040517f924e341e0000000000000000000000000000000000000000000000000000000081526001600160a01b0383166004820152811515602482015260440160405180910390fd5b6001600160a01b03821660008181526020818152604091829020805460ff191685151590811790915591519182527fae63067d43ac07563b7eb8db6595635fc77f1578a2a5ea06ba91b63e2afa37e2910160405180910390a25050565b60016103806020830183610b7e565b600381111561039157610391610b68565b036103d6576103d36103a96040830160208401610ba6565b6103b96060840160408501610ba6565b6103c96080850160608601610ba6565b8460a0013561069f565b50565b60026103e56020830183610b7e565b60038111156103f6576103f6610b68565b03610476578060a00135600114610439576040517fefcc00b100000000000000000000000000000000000000000000000000000000815260040160405180910390fd5b6103d361044c6040830160208401610ba6565b61045c6060840160408501610ba6565b61046c6080850160608601610ba6565b84608001356107c1565b60036104856020830183610b7e565b600381111561049657610496610b68565b036104dd576103d36104ae6040830160208401610ba6565b6104be6060840160408501610ba6565b6104ce6080850160608601610ba6565b84608001358560a00135610885565b6040517f7932f1fc00000000000000000000000000000000000000000000000000000000815260040160405180910390fd5b8082807f2eb2c2d60000000000000000000000000000000000000000000000000000000060205260005b8381101561069257823582018035803b61056257632f8aeb3960e11b6000528060045260246000fd5b60a08201356020810260c0018060808501351460a0606086013514168185013583141615905080156105b8577feba2084c0000000000000000000000000000000000000000000000000000000060005260046000fd5b506020860195506080602084016024376040810260400190508060a00160a45260008160c401528060c4018160a0850160c4376000808260206000875af1935083610683573d15610648576020601f3d0104915060208104826003028184111561063057818403600302610200838002868002030401015b5a602082011015610645573d6000803e3d6000fd5b50505b7fafc445e2000000000000000000000000000000000000000000000000000000006000528260045260c0606452608451602001608452806000fd5b50505050600181019050610539565b5050505060806040525050565b6040516323b872dd60e01b600052836004528260245281604452602060006064600080895af1803d15601f3d116001600051141617163d151581166107b15780873b1515166107b1578061079c5781610762573d1561073c576020601f3d010460208404816003028183111561072357818303600302610200838002858002030401015b5a602082011015610738573d6000803e3d6000fd5b5050505b63f486bc8760e01b60005286600452856024528460445260006064528360845260a46000fd5b7f98891923000000000000000000000000000000000000000000000000000000006000528660045285602452846044528360645260846000fd5b632f8aeb3960e11b6000528660045260246000fd5b5050604052505060006060525050565b833b6107dc57632f8aeb3960e11b6000528360045260246000fd5b6040516323b872dd60e01b6000528360045282602452816044526000806064600080895af180610876573d15610850576020601f3d010460208304816003028183111561083757818303600302610200838002858002030401015b5a60208201101561084c573d6000803e3d6000fd5b5050505b63f486bc8760e01b60005285600452846024528360445282606452600160845260a46000fd5b50604052505060006060525050565b843b6108a057632f8aeb3960e11b6000528460045260246000fd5b60405160805160a05160c0517ff242432a000000000000000000000000000000000000000000000000000000006000528760045286602452856044528460645260a0608452600060a45260008060c46000808d5af180610969573d15610944576020601f3d010460208604816003028183111561092b57818303600302610200838002858002030401015b5a602082011015610940573d6000803e3d6000fd5b5050505b63f486bc8760e01b600052896004528860245287604452866064528560845260a46000fd5b5060809290925260a05260c05260405250506000606052505050565b60008083601f84011261099757600080fd5b50813567ffffffffffffffff8111156109af57600080fd5b60208301915083602060c0830285010111156109ca57600080fd5b9250929050565b600080602083850312156109e457600080fd5b823567ffffffffffffffff8111156109fb57600080fd5b610a0785828601610985565b90969095509350505050565b60008083601f840112610a2557600080fd5b50813567ffffffffffffffff811115610a3d57600080fd5b6020830191508360208260051b85010111156109ca57600080fd5b60008060008060408587031215610a6e57600080fd5b843567ffffffffffffffff80821115610a8657600080fd5b610a9288838901610985565b90965094506020870135915080821115610aab57600080fd5b50610ab887828801610a13565b95989497509550505050565b60008060208385031215610ad757600080fd5b823567ffffffffffffffff811115610aee57600080fd5b610a0785828601610a13565b80356001600160a01b0381168114610b1157600080fd5b919050565b60008060408385031215610b2957600080fd5b610b3283610afa565b915060208301358015158114610b4757600080fd5b809150509250929050565b634e487b7160e01b600052603260045260246000fd5b634e487b7160e01b600052602160045260246000fd5b600060208284031215610b9057600080fd5b813560048110610b9f57600080fd5b9392505050565b600060208284031215610bb857600080fd5b610b9f82610afa56fea2646970667358221220ca157f21613d9fe1ec31eb7e3745e72bdd82ead7c9237854a2586f810f90fd1a64736f6c63430008110033",
  "linkReferences": {},
  "deployedLinkReferences": {}
}