{
  "_format": "hh-sol-artifact-1",
  "contractName": "Seaport",
  "sourceName": "contracts/Seaport.sol",
  "abi": [
    {
      "inputs": [
        {
          "internalType": "address",
          "name": "conduitController",
          "type": "address"
        }
      ],
      "stateMutability": "nonpayable",
      "type": "constructor"
    },
    {
      "inputs": [],
      "name": "BadContractSignature",
      "type": "error"
    },
    {
      "inputs": [],
      "name": "BadFraction",
      "type": "error"
    },
    {
      "inputs": [
        {
          "internalType": "address",
          "name": "token",
          "type": "address"
        },
        {
          "internalType": "address",
          "name": "from",
          "type": "address"
        },
        {
          "internalType": "address",
          "name": "to",
          "type": "address"
        },
        {
          "internalType": "uint256",
          "name": "amount",
          "type": "uint256"
        }
      ],
      "name": "BadReturnValueFromERC20OnTransfer",
      "type": "error"
    },
    {
      "inputs": [
        {
          "internalType": "uint8",
          "name": "v",
          "type": "uint8"
        }
      ],
      "name": "BadSignatureV",
      "type": "error"
    },
    {
      "inputs": [],
      "name": "ConsiderationCriteriaResolverOutOfRange",
      "type": "error"
    },
    {
      "inputs": [
        {
          "internalType": "uint256",
          "name": "orderIndex",
          "type": "uint256"
        },
        {
          "internalType": "uint256",
          "name": "considerationIndex",
          "type": "uint256"
        },
        {
          "internalType": "uint256",
          "name": "shortfallAmount",
          "type": "uint256"
        }
      ],
      "name": "ConsiderationNotMet",
      "type": "error"
    },
    {
      "inputs": [],
      "name": "CriteriaNotEnabledForItem",
      "type": "error"
    },
    {
      "inputs": [
        {
          "internalType": "address",
          "name": "token",
          "type": "address"
        },
        {
          "internalType": "address",
          "name": "from",
          "type": "address"
        },
        {
          "internalType": "address",
          "name": "to",
          "type": "address"
        },
        {
          "internalType": "uint256[]",
          "name": "identifiers",
          "type": "uint256[]"
        },
        {
          "internalType": "uint256[]",
          "name": "amounts",
          "type": "uint256[]"
        }
      ],
      "name": "ERC1155BatchTransferGenericFailure",
      "type": "error"
    },
    {
      "inputs": [
        {
          "internalType": "address",
          "name": "account",
          "type": "address"
        },
        {
          "internalType": "uint256",
          "name": "amount",
          "type": "uint256"
        }
      ],
      "name": "EtherTransferGenericFailure",
      "type": "error"
    },
    {
      "inputs": [],
      "name": "InexactFraction",
      "type": "error"
    },
    {
      "inputs": [],
      "name": "InsufficientEtherSupplied",
      "type": "error"
    },
    {
      "inputs": [],
      "name": "Invalid1155BatchTransferEncoding",
      "type": "error"
    },
    {
      "inputs": [],
      "name": "InvalidBasicOrderParameterEncoding",
      "type": "error"
    },
    {
      "inputs": [
        {
          "internalType": "address",
          "name": "conduit",
          "type": "address"
        }
      ],
      "name": "InvalidCallToConduit",
      "type": "error"
    },
    {
      "inputs": [],
      "name": "InvalidCanceller",
      "type": "error"
    },
    {
      "inputs": [
        {
          "internalType": "bytes32",
          "name": "conduitKey",
          "type": "bytes32"
        },
        {
          "internalType": "address",
          "name": "conduit",
          "type": "address"
        }
      ],
      "name": "InvalidConduit",
      "type": "error"
    },
    {
      "inputs": [],
      "name": "InvalidERC721TransferAmount",
      "type": "error"
    },
    {
      "inputs": [],
      "name": "InvalidFulfillmentComponentData",
      "type": "error"
    },
    {
      "inputs": [
        {
          "internalType": "uint256",
          "name": "value",
          "type": "uint256"
        }
      ],
      "name": "InvalidMsgValue",
      "type": "error"
    },
    {
      "inputs": [],
      "name": "InvalidNativeOfferItem",
      "type": "error"
    },
    {
      "inputs": [],
      "name": "InvalidProof",
      "type": "error"
    },
    {
      "inputs": [
        {
          "internalType": "bytes32",
          "name": "orderHash",
          "type": "bytes32"
        }
      ],
      "name": "InvalidRestrictedOrder",
      "type": "error"
    },
    {
      "inputs": [],
      "name": "InvalidSignature",
      "type": "error"
    },
    {
      "inputs": [],
      "name": "InvalidSigner",
      "type": "error"
    },
    {
      "inputs": [],
      "name": "InvalidTime",
      "type": "error"
    },
    {
      "inputs": [],
      "name": "MismatchedFulfillmentOfferAndConsiderationComponents",
      "type": "error"
    },
    {
      "inputs": [
        {
          "internalType": "enum Side",
          "name": "side",
          "type": "uint8"
        }
      ],
      "name": "MissingFulfillmentComponentOnAggregation",
      "type": "error"
    },
    {
      "inputs": [],
      "name": "MissingItemAmount",
      "type": "error"
    },
    {
      "inputs": [],
      "name": "MissingOriginalConsiderationItems",
      "type": "error"
    },
    {
      "inputs": [
        {
          "internalType": "address",
          "name": "account",
          "type": "address"
        }
      ],
      "name": "NoContract",
      "type": "error"
    },
    {
      "inputs": [],
      "name": "NoReentrantCalls",
      "type": "error"
    },
    {
      "inputs": [],
      "name": "NoSpecifiedOrdersAvailable",
      "type": "error"
    },
    {
      "inputs": [],
      "name": "OfferAndConsiderationRequiredOnFulfillment",
      "type": "error"
    },
    {
      "inputs": [],
      "name": "OfferCriteriaResolverOutOfRange",
      "type": "error"
    },
    {
      "inputs": [
        {
          "internalType": "bytes32",
          "name": "orderHash",
          "type": "bytes32"
        }
      ],
      "name": "OrderAlreadyFilled",
      "type": "error"
    },
    {
      "inputs": [],
      "name": "OrderCriteriaResolverOutOfRange",
      "type": "error"
    },
    {
      "inputs": [
        {
          "internalType": "bytes32",
          "name": "orderHash",
          "type": "bytes32"
        }
      ],
      "name": "OrderIsCancelled",
      "type": "error"
    },
    {
      "inputs": [
        {
          "internalType": "bytes32",
          "name": "orderHash",
          "type": "bytes32"
        }
      ],
      "name": "OrderPartiallyFilled",
      "type": "error"
    },
    {
      "inputs": [],
      "name": "PartialFillsNotEnabledForOrder",
      "type": "error"
    },
    {
      "inputs": [
        {
          "internalType": "address",
          "name": "token",
          "type": "address"
        },
        {
          "internalType": "address",
          "name": "from",
          "type": "address"
        },
        {
          "internalType": "address",
          "name": "to",
          "type": "address"
        },
        {
          "internalType": "uint256",
          "name": "identifier",
          "type": "uint256"
        },
        {
          "internalType": "uint256",
          "name": "amount",
          "type": "uint256"
        }
      ],
      "name": "TokenTransferGenericFailure",
      "type": "error"
    },
    {
      "inputs": [],
      "name": "UnresolvedConsiderationCriteria",
      "type": "error"
    },
    {
      "inputs": [],
      "name": "UnresolvedOfferCriteria",
      "type": "error"
    },
    {
      "inputs": [],
      "name": "UnusedItemParameters",
      "type": "error"
    },
    {
      "anonymous": false,
      "inputs": [
        {
          "indexed": false,
          "internalType": "uint256",
          "name": "newCounter",
          "type": "uint256"
        },
        {
          "indexed": true,
          "internalType": "address",
          "name": "offerer",
          "type": "address"
        }
      ],
      "name": "CounterIncremented",
      "type": "event"
    },
    {
      "anonymous": false,
      "inputs": [
        {
          "indexed": false,
          "internalType": "bytes32",
          "name": "orderHash",
          "type": "bytes32"
        },
        {
          "indexed": true,
          "internalType": "address",
          "name": "offerer",
          "type": "address"
        },
        {
          "indexed": true,
          "internalType": "address",
          "name": "zone",
          "type": "address"
        }
      ],
      "name": "OrderCancelled",
      "type": "event"
    },
    {
      "anonymous": false,
      "inputs": [
        {
          "indexed": false,
          "internalType": "bytes32",
          "name": "orderHash",
          "type": "bytes32"
        },
        {
          "indexed": true,
          "internalType": "address",
          "name": "offerer",
          "type": "address"
        },
        {
          "indexed": true,
          "internalType": "address",
          "name": "zone",
          "type": "address"
        },
        {
          "indexed": false,
          "internalType": "address",
          "name": "recipient",
          "type": "address"
        },
        {
          "components": [
            {
              "internalType": "enum ItemType",
              "name": "itemType",
              "type": "uint8"
            },
            {
              "internalType": "address",
              "name": "token",
              "type": "address"
            },
            {
              "internalType": "uint256",
              "name": "identifier",
              "type": "uint256"
            },
            {
              "internalType": "uint256",
              "name": "amount",
              "type": "uint256"
            }
          ],
          "indexed": false,
          "internalType": "struct SpentItem[]",
          "name": "offer",
          "type": "tuple[]"
        },
        {
          "components": [
            {
              "internalType": "enum ItemType",
              "name": "itemType",
              "type": "uint8"
            },
            {
              "internalType": "address",
              "name": "token",
              "type": "address"
            },
            {
              "internalType": "uint256",
              "name": "identifier",
              "type": "uint256"
            },
            {
              "internalType": "uint256",
              "name": "amount",
              "type": "uint256"
            },
            {
              "internalType": "address payable",
              "name": "recipient",
              "type": "address"
            }
          ],
          "indexed": false,
          "internalType": "struct ReceivedItem[]",
          "name": "consideration",
          "type": "tuple[]"
        }
      ],
      "name": "OrderFulfilled",
      "type": "event"
    },
    {
      "anonymous": false,
      "inputs": [
        {
          "indexed": false,
          "internalType": "bytes32",
          "name": "orderHash",
          "type": "bytes32"
        },
        {
          "indexed": true,
          "internalType": "address",
          "name": "offerer",
          "type": "address"
        },
        {
          "indexed": true,
          "internalType": "address",
          "name": "zone",
          "type": "address"
        }
      ],
      "name": "OrderValidated",
      "type": "event"
    },
    {
      "inputs": [
        {
          "components": [
            {
              "internalType": "address",
              "name": "offerer",
              "type": "address"
            },
            {
              "internalType": "address",
              "name": "zone",
              "type": "address"
            },
            {
              "components": [
                {
                  "internalType": "enum ItemType",
                  "name": "itemType",
                  "type": "uint8"
                },
                {
                  "internalType": "address",
                  "name": "token",
                  "type": "address"
                },
                {
                  "internalType": "uint256",
                  "name": "identifierOrCriteria",
                  "type": "uint256"
                },
                {
                  "internalType": "uint256",
                  "name": "startAmount",
                  "type": "uint256"
                },
                {
                  "internalType": "uint256",
                  "name": "endAmount",
                  "type": "uint256"
                }
              ],
              "internalType": "struct OfferItem[]",
              "name": "offer",
              "type": "tuple[]"
            },
            {
              "components": [
                {
                  "internalType": "enum ItemType",
                  "name": "itemType",
                  "type": "uint8"
                },
                {
                  "internalType": "address",
                  "name": "token",
                  "type": "address"
                },
                {
                  "internalType": "uint256",
                  "name": "identifierOrCriteria",
                  "type": "uint256"
                },
                {
                  "internalType": "uint256",
                  "name": "startAmount",
                  "type": "uint256"
                },
                {
                  "internalType": "uint256",
                  "name": "endAmount",
                  "type": "uint256"
                },
                {
                  "internalType": "address payable",
                  "name": "recipient",
                  "type": "address"
                }
              ],
              "internalType": "struct ConsiderationItem[]",
              "name": "consideration",
              "type": "tuple[]"
            },
            {
              "internalType": "enum OrderType",
              "name": "orderType",
              "type": "uint8"
            },
            {
              "internalType": "uint256",
              "name": "startTime",
              "type": "uint256"
            },
            {
              "internalType": "uint256",
              "name": "endTime",
              "type": "uint256"
            },
            {
              "internalType": "bytes32",
              "name": "zoneHash",
              "type": "bytes32"
            },
            {
              "internalType": "uint256",
              "name": "salt",
              "type": "uint256"
            },
            {
              "internalType": "bytes32",
              "name": "conduitKey",
              "type": "bytes32"
            },
            {
              "internalType": "uint256",
              "name": "counter",
              "type": "uint256"
            }
          ],
          "internalType": "struct OrderComponents[]",
          "name": "orders",
          "type": "tuple[]"
        }
      ],
      "name": "cancel",
      "outputs": [
        {
          "internalType": "bool",
          "name": "cancelled",
          "type": "bool"
        }
      ],
      "stateMutability": "nonpayable",
      "type": "function"
    },
    {
      "inputs": [
        {
          "components": [
            {
              "components": [
                {
                  "internalType": "address",
                  "name": "offerer",
                  "type": "address"
                },
                {
                  "internalType": "address",
                  "name": "zone",
                  "type": "address"
                },
                {
                  "components": [
                    {
                      "internalType": "enum ItemType",
                      "name": "itemType",
                      "type": "uint8"
                    },
                    {
                      "internalType": "address",
                      "name": "token",
                      "type": "address"
                    },
                    {
                      "internalType": "uint256",
                      "name": "identifierOrCriteria",
                      "type": "uint256"
                    },
                    {
                      "internalType": "uint256",
                      "name": "startAmount",
                      "type": "uint256"
                    },
                    {
                      "internalType": "uint256",
                      "name": "endAmount",
                      "type": "uint256"
                    }
                  ],
                  "internalType": "struct OfferItem[]",
                  "name": "offer",
                  "type": "tuple[]"
                },
                {
                  "components": [
                    {
                      "internalType": "enum ItemType",
                      "name": "itemType",
                      "type": "uint8"
                    },
                    {
                      "internalType": "address",
                      "name": "token",
                      "type": "address"
                    },
                    {
                      "internalType": "uint256",
                      "name": "identifierOrCriteria",
                      "type": "uint256"
                    },
                    {
                      "internalType": "uint256",
                      "name": "startAmount",
                      "type": "uint256"
                    },
                    {
                      "internalType": "uint256",
                      "name": "endAmount",
                      "type": "uint256"
                    },
                    {
                      "internalType": "address payable",
                      "name": "recipient",
                      "type": "address"
                    }
                  ],
                  "internalType": "struct ConsiderationItem[]",
                  "name": "consideration",
                  "type": "tuple[]"
                },
                {
                  "internalType": "enum OrderType",
                  "name": "orderType",
                  "type": "uint8"
                },
                {
                  "internalType": "uint256",
                  "name": "startTime",
                  "type": "uint256"
                },
                {
                  "internalType": "uint256",
                  "name": "endTime",
                  "type": "uint256"
                },
                {
                  "internalType": "bytes32",
                  "name": "zoneHash",
                  "type": "bytes32"
                },
                {
                  "internalType": "uint256",
                  "name": "salt",
                  "type": "uint256"
                },
                {
                  "internalType": "bytes32",
                  "name": "conduitKey",
                  "type": "bytes32"
                },
                {
                  "internalType": "uint256",
                  "name": "totalOriginalConsiderationItems",
                  "type": "uint256"
                }
              ],
              "internalType": "struct OrderParameters",
              "name": "parameters",
              "type": "tuple"
            },
            {
              "internalType": "uint120",
              "name": "numerator",
              "type": "uint120"
            },
            {
              "internalType": "uint120",
              "name": "denominator",
              "type": "uint120"
            },
            {
              "internalType": "bytes",
              "name": "signature",
              "type": "bytes"
            },
            {
              "internalType": "bytes",
              "name": "extraData",
              "type": "bytes"
            }
          ],
          "internalType": "struct AdvancedOrder",
          "name": "advancedOrder",
          "type": "tuple"
        },
        {
          "components": [
            {
              "internalType": "uint256",
              "name": "orderIndex",
              "type": "uint256"
            },
            {
              "internalType": "enum Side",
              "name": "side",
              "type": "uint8"
            },
            {
              "internalType": "uint256",
              "name": "index",
              "type": "uint256"
            },
            {
              "internalType": "uint256",
              "name": "identifier",
              "type": "uint256"
            },
            {
              "internalType": "bytes32[]",
              "name": "criteriaProof",
              "type": "bytes32[]"
            }
          ],
          "internalType": "struct CriteriaResolver[]",
          "name": "criteriaResolvers",
          "type": "tuple[]"
        },
        {
          "internalType": "bytes32",
          "name": "fulfillerConduitKey",
          "type": "bytes32"
        },
        {
          "internalType": "address",
          "name": "recipient",
          "type": "address"
        }
      ],
      "name": "fulfillAdvancedOrder",
      "outputs": [
        {
          "internalType": "bool",
          "name": "fulfilled",
          "type": "bool"
        }
      ],
      "stateMutability": "payable",
      "type": "function"
    },
    {
      "inputs": [
        {
          "components": [
            {
              "components": [
                {
                  "internalType": "address",
                  "name": "offerer",
                  "type": "address"
                },
                {
                  "internalType": "address",
                  "name": "zone",
                  "type": "address"
                },
                {
                  "components": [
                    {
                      "internalType": "enum ItemType",
                      "name": "itemType",
                      "type": "uint8"
                    },
                    {
                      "internalType": "address",
                      "name": "token",
                      "type": "address"
                    },
                    {
                      "internalType": "uint256",
                      "name": "identifierOrCriteria",
                      "type": "uint256"
                    },
                    {
                      "internalType": "uint256",
                      "name": "startAmount",
                      "type": "uint256"
                    },
                    {
                      "internalType": "uint256",
                      "name": "endAmount",
                      "type": "uint256"
                    }
                  ],
                  "internalType": "struct OfferItem[]",
                  "name": "offer",
                  "type": "tuple[]"
                },
                {
                  "components": [
                    {
                      "internalType": "enum ItemType",
                      "name": "itemType",
                      "type": "uint8"
                    },
                    {
                      "internalType": "address",
                      "name": "token",
                      "type": "address"
                    },
                    {
                      "internalType": "uint256",
                      "name": "identifierOrCriteria",
                      "type": "uint256"
                    },
                    {
                      "internalType": "uint256",
                      "name": "startAmount",
                      "type": "uint256"
                    },
                    {
                      "internalType": "uint256",
                      "name": "endAmount",
                      "type": "uint256"
                    },
                    {
                      "internalType": "address payable",
                      "name": "recipient",
                      "type": "address"
                    }
                  ],
                  "internalType": "struct ConsiderationItem[]",
                  "name": "consideration",
                  "type": "tuple[]"
                },
                {
                  "internalType": "enum OrderType",
                  "name": "orderType",
                  "type": "uint8"
                },
                {
                  "internalType": "uint256",
                  "name": "startTime",
                  "type": "uint256"
                },
                {
                  "internalType": "uint256",
                  "name": "endTime",
                  "type": "uint256"
                },
                {
                  "internalType": "bytes32",
                  "name": "zoneHash",
                  "type": "bytes32"
                },
                {
                  "internalType": "uint256",
                  "name": "salt",
                  "type": "uint256"
                },
                {
                  "internalType": "bytes32",
                  "name": "conduitKey",
                  "type": "bytes32"
                },
                {
                  "internalType": "uint256",
                  "name": "totalOriginalConsiderationItems",
                  "type": "uint256"
                }
              ],
              "internalType": "struct OrderParameters",
              "name": "parameters",
              "type": "tuple"
            },
            {
              "internalType": "uint120",
              "name": "numerator",
              "type": "uint120"
            },
            {
              "internalType": "uint120",
              "name": "denominator",
              "type": "uint120"
            },
            {
              "internalType": "bytes",
              "name": "signature",
              "type": "bytes"
            },
            {
              "internalType": "bytes",
              "name": "extraData",
              "type": "bytes"
            }
          ],
          "internalType": "struct AdvancedOrder[]",
          "name": "advancedOrders",
          "type": "tuple[]"
        },
        {
          "components": [
            {
              "internalType": "uint256",
              "name": "orderIndex",
              "type": "uint256"
            },
            {
              "internalType": "enum Side",
              "name": "side",
              "type": "uint8"
            },
            {
              "internalType": "uint256",
              "name": "index",
              "type": "uint256"
            },
            {
              "internalType": "uint256",
              "name": "identifier",
              "type": "uint256"
            },
            {
              "internalType": "bytes32[]",
              "name": "criteriaProof",
              "type": "bytes32[]"
            }
          ],
          "internalType": "struct CriteriaResolver[]",
          "name": "criteriaResolvers",
          "type": "tuple[]"
        },
        {
          "components": [
            {
              "internalType": "uint256",
              "name": "orderIndex",
              "type": "uint256"
            },
            {
              "internalType": "uint256",
              "name": "itemIndex",
              "type": "uint256"
            }
          ],
          "internalType": "struct FulfillmentComponent[][]",
          "name": "offerFulfillments",
          "type": "tuple[][]"
        },
        {
          "components": [
            {
              "internalType": "uint256",
              "name": "orderIndex",
              "type": "uint256"
            },
            {
              "internalType": "uint256",
              "name": "itemIndex",
              "type": "uint256"
            }
          ],
          "internalType": "struct FulfillmentComponent[][]",
          "name": "considerationFulfillments",
          "type": "tuple[][]"
        },
        {
          "internalType": "bytes32",
          "name": "fulfillerConduitKey",
          "type": "bytes32"
        },
        {
          "internalType": "address",
          "name": "recipient",
          "type": "address"
        },
        {
          "internalType": "uint256",
          "name": "maximumFulfilled",
          "type": "uint256"
        }
      ],
      "name": "fulfillAvailableAdvancedOrders",
      "outputs": [
        {
          "internalType": "bool[]",
          "name": "availableOrders",
          "type": "bool[]"
        },
        {
          "components": [
            {
              "components": [
                {
                  "internalType": "enum ItemType",
                  "name": "itemType",
                  "type": "uint8"
                },
                {
                  "internalType": "address",
                  "name": "token",
                  "type": "address"
                },
                {
                  "internalType": "uint256",
                  "name": "identifier",
                  "type": "uint256"
                },
                {
                  "internalType": "uint256",
                  "name": "amount",
                  "type": "uint256"
                },
                {
                  "internalType": "address payable",
                  "name": "recipient",
                  "type": "address"
                }
              ],
              "internalType": "struct ReceivedItem",
              "name": "item",
              "type": "tuple"
            },
            {
              "internalType": "address",
              "name": "offerer",
              "type": "address"
            },
            {
              "internalType": "bytes32",
              "name": "conduitKey",
              "type": "bytes32"
            }
          ],
          "internalType": "struct Execution[]",
          "name": "executions",
          "type": "tuple[]"
        }
      ],
      "stateMutability": "payable",
      "type": "function"
    },
    {
      "inputs": [
        {
          "components": [
            {
              "components": [
                {
                  "internalType": "address",
                  "name": "offerer",
                  "type": "address"
                },
                {
                  "internalType": "address",
                  "name": "zone",
                  "type": "address"
                },
                {
                  "components": [
                    {
                      "internalType": "enum ItemType",
                      "name": "itemType",
                      "type": "uint8"
                    },
                    {
                      "internalType": "address",
                      "name": "token",
                      "type": "address"
                    },
                    {
                      "internalType": "uint256",
                      "name": "identifierOrCriteria",
                      "type": "uint256"
                    },
                    {
                      "internalType": "uint256",
                      "name": "startAmount",
                      "type": "uint256"
                    },
                    {
                      "internalType": "uint256",
                      "name": "endAmount",
                      "type": "uint256"
                    }
                  ],
                  "internalType": "struct OfferItem[]",
                  "name": "offer",
                  "type": "tuple[]"
                },
                {
                  "components": [
                    {
                      "internalType": "enum ItemType",
                      "name": "itemType",
                      "type": "uint8"
                    },
                    {
                      "internalType": "address",
                      "name": "token",
                      "type": "address"
                    },
                    {
                      "internalType": "uint256",
                      "name": "identifierOrCriteria",
                      "type": "uint256"
                    },
                    {
                      "internalType": "uint256",
                      "name": "startAmount",
                      "type": "uint256"
                    },
                    {
                      "internalType": "uint256",
                      "name": "endAmount",
                      "type": "uint256"
                    },
                    {
                      "internalType": "address payable",
                      "name": "recipient",
                      "type": "address"
                    }
                  ],
                  "internalType": "struct ConsiderationItem[]",
                  "name": "consideration",
                  "type": "tuple[]"
                },
                {
                  "internalType": "enum OrderType",
                  "name": "orderType",
                  "type": "uint8"
                },
                {
                  "internalType": "uint256",
                  "name": "startTime",
                  "type": "uint256"
                },
                {
                  "internalType": "uint256",
                  "name": "endTime",
                  "type": "uint256"
                },
                {
                  "internalType": "bytes32",
                  "name": "zoneHash",
                  "type": "bytes32"
                },
                {
                  "internalType": "uint256",
                  "name": "salt",
                  "type": "uint256"
                },
                {
                  "internalType": "bytes32",
                  "name": "conduitKey",
                  "type": "bytes32"
                },
                {
                  "internalType": "uint256",
                  "name": "totalOriginalConsiderationItems",
                  "type": "uint256"
                }
              ],
              "internalType": "struct OrderParameters",
              "name": "parameters",
              "type": "tuple"
            },
            {
              "internalType": "bytes",
              "name": "signature",
              "type": "bytes"
            }
          ],
          "internalType": "struct Order[]",
          "name": "orders",
          "type": "tuple[]"
        },
        {
          "components": [
            {
              "internalType": "uint256",
              "name": "orderIndex",
              "type": "uint256"
            },
            {
              "internalType": "uint256",
              "name": "itemIndex",
              "type": "uint256"
            }
          ],
          "internalType": "struct FulfillmentComponent[][]",
          "name": "offerFulfillments",
          "type": "tuple[][]"
        },
        {
          "components": [
            {
              "internalType": "uint256",
              "name": "orderIndex",
              "type": "uint256"
            },
            {
              "internalType": "uint256",
              "name": "itemIndex",
              "type": "uint256"
            }
          ],
          "internalType": "struct FulfillmentComponent[][]",
          "name": "considerationFulfillments",
          "type": "tuple[][]"
        },
        {
          "internalType": "bytes32",
          "name": "fulfillerConduitKey",
          "type": "bytes32"
        },
        {
          "internalType": "uint256",
          "name": "maximumFulfilled",
          "type": "uint256"
        }
      ],
      "name": "fulfillAvailableOrders",
      "outputs": [
        {
          "internalType": "bool[]",
          "name": "availableOrders",
          "type": "bool[]"
        },
        {
          "components": [
            {
              "components": [
                {
                  "internalType": "enum ItemType",
                  "name": "itemType",
                  "type": "uint8"
                },
                {
                  "internalType": "address",
                  "name": "token",
                  "type": "address"
                },
                {
                  "internalType": "uint256",
                  "name": "identifier",
                  "type": "uint256"
                },
                {
                  "internalType": "uint256",
                  "name": "amount",
                  "type": "uint256"
                },
                {
                  "internalType": "address payable",
                  "name": "recipient",
                  "type": "address"
                }
              ],
              "internalType": "struct ReceivedItem",
              "name": "item",
              "type": "tuple"
            },
            {
              "internalType": "address",
              "name": "offerer",
              "type": "address"
            },
            {
              "internalType": "bytes32",
              "name": "conduitKey",
              "type": "bytes32"
            }
          ],
          "internalType": "struct Execution[]",
          "name": "executions",
          "type": "tuple[]"
        }
      ],
      "stateMutability": "payable",
      "type": "function"
    },
    {
      "inputs": [
        {
          "components": [
            {
              "internalType": "address",
              "name": "considerationToken",
              "type": "address"
            },
            {
              "internalType": "uint256",
              "name": "considerationIdentifier",
              "type": "uint256"
            },
            {
              "internalType": "uint256",
              "name": "considerationAmount",
              "type": "uint256"
            },
            {
              "internalType": "address payable",
              "name": "offerer",
              "type": "address"
            },
            {
              "internalType": "address",
              "name": "zone",
              "type": "address"
            },
            {
              "internalType": "address",
              "name": "offerToken",
              "type": "address"
            },
            {
              "internalType": "uint256",
              "name": "offerIdentifier",
              "type": "uint256"
            },
            {
              "internalType": "uint256",
              "name": "offerAmount",
              "type": "uint256"
            },
            {
              "internalType": "enum BasicOrderType",
              "name": "basicOrderType",
              "type": "uint8"
            },
            {
              "internalType": "uint256",
              "name": "startTime",
              "type": "uint256"
            },
            {
              "internalType": "uint256",
              "name": "endTime",
              "type": "uint256"
            },
            {
              "internalType": "bytes32",
              "name": "zoneHash",
              "type": "bytes32"
            },
            {
              "internalType": "uint256",
              "name": "salt",
              "type": "uint256"
            },
            {
              "internalType": "bytes32",
              "name": "offererConduitKey",
              "type": "bytes32"
            },
            {
              "internalType": "bytes32",
              "name": "fulfillerConduitKey",
              "type": "bytes32"
            },
            {
              "internalType": "uint256",
              "name": "totalOriginalAdditionalRecipients",
              "type": "uint256"
            },
            {
              "components": [
                {
                  "internalType": "uint256",
                  "name": "amount",
                  "type": "uint256"
                },
                {
                  "internalType": "address payable",
                  "name": "recipient",
                  "type": "address"
                }
              ],
              "internalType": "struct AdditionalRecipient[]",
              "name": "additionalRecipients",
              "type": "tuple[]"
            },
            {
              "internalType": "bytes",
              "name": "signature",
              "type": "bytes"
            }
          ],
          "internalType": "struct BasicOrderParameters",
          "name": "parameters",
          "type": "tuple"
        }
      ],
      "name": "fulfillBasicOrder",
      "outputs": [
        {
          "internalType": "bool",
          "name": "fulfilled",
          "type": "bool"
        }
      ],
      "stateMutability": "payable",
      "type": "function"
    },
    {
      "inputs": [
        {
          "components": [
            {
              "components": [
                {
                  "internalType": "address",
                  "name": "offerer",
                  "type": "address"
                },
                {
                  "internalType": "address",
                  "name": "zone",
                  "type": "address"
                },
                {
                  "components": [
                    {
                      "internalType": "enum ItemType",
                      "name": "itemType",
                      "type": "uint8"
                    },
                    {
                      "internalType": "address",
                      "name": "token",
                      "type": "address"
                    },
                    {
                      "internalType": "uint256",
                      "name": "identifierOrCriteria",
                      "type": "uint256"
                    },
                    {
                      "internalType": "uint256",
                      "name": "startAmount",
                      "type": "uint256"
                    },
                    {
                      "internalType": "uint256",
                      "name": "endAmount",
                      "type": "uint256"
                    }
                  ],
                  "internalType": "struct OfferItem[]",
                  "name": "offer",
                  "type": "tuple[]"
                },
                {
                  "components": [
                    {
                      "internalType": "enum ItemType",
                      "name": "itemType",
                      "type": "uint8"
                    },
                    {
                      "internalType": "address",
                      "name": "token",
                      "type": "address"
                    },
                    {
                      "internalType": "uint256",
                      "name": "identifierOrCriteria",
                      "type": "uint256"
                    },
                    {
                      "internalType": "uint256",
                      "name": "startAmount",
                      "type": "uint256"
                    },
                    {
                      "internalType": "uint256",
                      "name": "endAmount",
                      "type": "uint256"
                    },
                    {
                      "internalType": "address payable",
                      "name": "recipient",
                      "type": "address"
                    }
                  ],
                  "internalType": "struct ConsiderationItem[]",
                  "name": "consideration",
                  "type": "tuple[]"
                },
                {
                  "internalType": "enum OrderType",
                  "name": "orderType",
                  "type": "uint8"
                },
                {
                  "internalType": "uint256",
                  "name": "startTime",
                  "type": "uint256"
                },
                {
                  "internalType": "uint256",
                  "name": "endTime",
                  "type": "uint256"
                },
                {
                  "internalType": "bytes32",
                  "name": "zoneHash",
                  "type": "bytes32"
                },
                {
                  "internalType": "uint256",
                  "name": "salt",
                  "type": "uint256"
                },
                {
                  "internalType": "bytes32",
                  "name": "conduitKey",
                  "type": "bytes32"
                },
                {
                  "internalType": "uint256",
                  "name": "totalOriginalConsiderationItems",
                  "type": "uint256"
                }
              ],
              "internalType": "struct OrderParameters",
              "name": "parameters",
              "type": "tuple"
            },
            {
              "internalType": "bytes",
              "name": "signature",
              "type": "bytes"
            }
          ],
          "internalType": "struct Order",
          "name": "order",
          "type": "tuple"
        },
        {
          "internalType": "bytes32",
          "name": "fulfillerConduitKey",
          "type": "bytes32"
        }
      ],
      "name": "fulfillOrder",
      "outputs": [
        {
          "internalType": "bool",
          "name": "fulfilled",
          "type": "bool"
        }
      ],
      "stateMutability": "payable",
      "type": "function"
    },
    {
      "inputs": [
        {
          "internalType": "address",
          "name": "offerer",
          "type": "address"
        }
      ],
      "name": "getCounter",
      "outputs": [
        {
          "internalType": "uint256",
          "name": "counter",
          "type": "uint256"
        }
      ],
      "stateMutability": "view",
      "type": "function"
    },
    {
      "inputs": [
        {
          "components": [
            {
              "internalType": "address",
              "name": "offerer",
              "type": "address"
            },
            {
              "internalType": "address",
              "name": "zone",
              "type": "address"
            },
            {
              "components": [
                {
                  "internalType": "enum ItemType",
                  "name": "itemType",
                  "type": "uint8"
                },
                {
                  "internalType": "address",
                  "name": "token",
                  "type": "address"
                },
                {
                  "internalType": "uint256",
                  "name": "identifierOrCriteria",
                  "type": "uint256"
                },
                {
                  "internalType": "uint256",
                  "name": "startAmount",
                  "type": "uint256"
                },
                {
                  "internalType": "uint256",
                  "name": "endAmount",
                  "type": "uint256"
                }
              ],
              "internalType": "struct OfferItem[]",
              "name": "offer",
              "type": "tuple[]"
            },
            {
              "components": [
                {
                  "internalType": "enum ItemType",
                  "name": "itemType",
                  "type": "uint8"
                },
                {
                  "internalType": "address",
                  "name": "token",
                  "type": "address"
                },
                {
                  "internalType": "uint256",
                  "name": "identifierOrCriteria",
                  "type": "uint256"
                },
                {
                  "internalType": "uint256",
                  "name": "startAmount",
                  "type": "uint256"
                },
                {
                  "internalType": "uint256",
                  "name": "endAmount",
                  "type": "uint256"
                },
                {
                  "internalType": "address payable",
                  "name": "recipient",
                  "type": "address"
                }
              ],
              "internalType": "struct ConsiderationItem[]",
              "name": "consideration",
              "type": "tuple[]"
            },
            {
              "internalType": "enum OrderType",
              "name": "orderType",
              "type": "uint8"
            },
            {
              "internalType": "uint256",
              "name": "startTime",
              "type": "uint256"
            },
            {
              "internalType": "uint256",
              "name": "endTime",
              "type": "uint256"
            },
            {
              "internalType": "bytes32",
              "name": "zoneHash",
              "type": "bytes32"
            },
            {
              "internalType": "uint256",
              "name": "salt",
              "type": "uint256"
            },
            {
              "internalType": "bytes32",
              "name": "conduitKey",
              "type": "bytes32"
            },
            {
              "internalType": "uint256",
              "name": "counter",
              "type": "uint256"
            }
          ],
          "internalType": "struct OrderComponents",
          "name": "order",
          "type": "tuple"
        }
      ],
      "name": "getOrderHash",
      "outputs": [
        {
          "internalType": "bytes32",
          "name": "orderHash",
          "type": "bytes32"
        }
      ],
      "stateMutability": "view",
      "type": "function"
    },
    {
      "inputs": [
        {
          "internalType": "bytes32",
          "name": "orderHash",
          "type": "bytes32"
        }
      ],
      "name": "getOrderStatus",
      "outputs": [
        {
          "internalType": "bool",
          "name": "isValidated",
          "type": "bool"
        },
        {
          "internalType": "bool",
          "name": "isCancelled",
          "type": "bool"
        },
        {
          "internalType": "uint256",
          "name": "totalFilled",
          "type": "uint256"
        },
        {
          "internalType": "uint256",
          "name": "totalSize",
          "type": "uint256"
        }
      ],
      "stateMutability": "view",
      "type": "function"
    },
    {
      "inputs": [],
      "name": "incrementCounter",
      "outputs": [
        {
          "internalType": "uint256",
          "name": "newCounter",
          "type": "uint256"
        }
      ],
      "stateMutability": "nonpayable",
      "type": "function"
    },
    {
      "inputs": [],
      "name": "information",
      "outputs": [
        {
          "internalType": "string",
          "name": "version",
          "type": "string"
        },
        {
          "internalType": "bytes32",
          "name": "domainSeparator",
          "type": "bytes32"
        },
        {
          "internalType": "address",
          "name": "conduitController",
          "type": "address"
        }
      ],
      "stateMutability": "view",
      "type": "function"
    },
    {
      "inputs": [
        {
          "components": [
            {
              "components": [
                {
                  "internalType": "address",
                  "name": "offerer",
                  "type": "address"
                },
                {
                  "internalType": "address",
                  "name": "zone",
                  "type": "address"
                },
                {
                  "components": [
                    {
                      "internalType": "enum ItemType",
                      "name": "itemType",
                      "type": "uint8"
                    },
                    {
                      "internalType": "address",
                      "name": "token",
                      "type": "address"
                    },
                    {
                      "internalType": "uint256",
                      "name": "identifierOrCriteria",
                      "type": "uint256"
                    },
                    {
                      "internalType": "uint256",
                      "name": "startAmount",
                      "type": "uint256"
                    },
                    {
                      "internalType": "uint256",
                      "name": "endAmount",
                      "type": "uint256"
                    }
                  ],
                  "internalType": "struct OfferItem[]",
                  "name": "offer",
                  "type": "tuple[]"
                },
                {
                  "components": [
                    {
                      "internalType": "enum ItemType",
                      "name": "itemType",
                      "type": "uint8"
                    },
                    {
                      "internalType": "address",
                      "name": "token",
                      "type": "address"
                    },
                    {
                      "internalType": "uint256",
                      "name": "identifierOrCriteria",
                      "type": "uint256"
                    },
                    {
                      "internalType": "uint256",
                      "name": "startAmount",
                      "type": "uint256"
                    },
                    {
                      "internalType": "uint256",
                      "name": "endAmount",
                      "type": "uint256"
                    },
                    {
                      "internalType": "address payable",
                      "name": "recipient",
                      "type": "address"
                    }
                  ],
                  "internalType": "struct ConsiderationItem[]",
                  "name": "consideration",
                  "type": "tuple[]"
                },
                {
                  "internalType": "enum OrderType",
                  "name": "orderType",
                  "type": "uint8"
                },
                {
                  "internalType": "uint256",
                  "name": "startTime",
                  "type": "uint256"
                },
                {
                  "internalType": "uint256",
                  "name": "endTime",
                  "type": "uint256"
                },
                {
                  "internalType": "bytes32",
                  "name": "zoneHash",
                  "type": "bytes32"
                },
                {
                  "internalType": "uint256",
                  "name": "salt",
                  "type": "uint256"
                },
                {
                  "internalType": "bytes32",
                  "name": "conduitKey",
                  "type": "bytes32"
                },
                {
                  "internalType": "uint256",
                  "name": "totalOriginalConsiderationItems",
                  "type": "uint256"
                }
              ],
              "internalType": "struct OrderParameters",
              "name": "parameters",
              "type": "tuple"
            },
            {
              "internalType": "uint120",
              "name": "numerator",
              "type": "uint120"
            },
            {
              "internalType": "uint120",
              "name": "denominator",
              "type": "uint120"
            },
            {
              "internalType": "bytes",
              "name": "signature",
              "type": "bytes"
            },
            {
              "internalType": "bytes",
              "name": "extraData",
              "type": "bytes"
            }
          ],
          "internalType": "struct AdvancedOrder[]",
          "name": "advancedOrders",
          "type": "tuple[]"
        },
        {
          "components": [
            {
              "internalType": "uint256",
              "name": "orderIndex",
              "type": "uint256"
            },
            {
              "internalType": "enum Side",
              "name": "side",
              "type": "uint8"
            },
            {
              "internalType": "uint256",
              "name": "index",
              "type": "uint256"
            },
            {
              "internalType": "uint256",
              "name": "identifier",
              "type": "uint256"
            },
            {
              "internalType": "bytes32[]",
              "name": "criteriaProof",
              "type": "bytes32[]"
            }
          ],
          "internalType": "struct CriteriaResolver[]",
          "name": "criteriaResolvers",
          "type": "tuple[]"
        },
        {
          "components": [
            {
              "components": [
                {
                  "internalType": "uint256",
                  "name": "orderIndex",
                  "type": "uint256"
                },
                {
                  "internalType": "uint256",
                  "name": "itemIndex",
                  "type": "uint256"
                }
              ],
              "internalType": "struct FulfillmentComponent[]",
              "name": "offerComponents",
              "type": "tuple[]"
            },
            {
              "components": [
                {
                  "internalType": "uint256",
                  "name": "orderIndex",
                  "type": "uint256"
                },
                {
                  "internalType": "uint256",
                  "name": "itemIndex",
                  "type": "uint256"
                }
              ],
              "internalType": "struct FulfillmentComponent[]",
              "name": "considerationComponents",
              "type": "tuple[]"
            }
          ],
          "internalType": "struct Fulfillment[]",
          "name": "fulfillments",
          "type": "tuple[]"
        }
      ],
      "name": "matchAdvancedOrders",
      "outputs": [
        {
          "components": [
            {
              "components": [
                {
                  "internalType": "enum ItemType",
                  "name": "itemType",
                  "type": "uint8"
                },
                {
                  "internalType": "address",
                  "name": "token",
                  "type": "address"
                },
                {
                  "internalType": "uint256",
                  "name": "identifier",
                  "type": "uint256"
                },
                {
                  "internalType": "uint256",
                  "name": "amount",
                  "type": "uint256"
                },
                {
                  "internalType": "address payable",
                  "name": "recipient",
                  "type": "address"
                }
              ],
              "internalType": "struct ReceivedItem",
              "name": "item",
              "type": "tuple"
            },
            {
              "internalType": "address",
              "name": "offerer",
              "type": "address"
            },
            {
              "internalType": "bytes32",
              "name": "conduitKey",
              "type": "bytes32"
            }
          ],
          "internalType": "struct Execution[]",
          "name": "executions",
          "type": "tuple[]"
        }
      ],
      "stateMutability": "payable",
      "type": "function"
    },
    {
      "inputs": [
        {
          "components": [
            {
              "components": [
                {
                  "internalType": "address",
                  "name": "offerer",
                  "type": "address"
                },
                {
                  "internalType": "address",
                  "name": "zone",
                  "type": "address"
                },
                {
                  "components": [
                    {
                      "internalType": "enum ItemType",
                      "name": "itemType",
                      "type": "uint8"
                    },
                    {
                      "internalType": "address",
                      "name": "token",
                      "type": "address"
                    },
                    {
                      "internalType": "uint256",
                      "name": "identifierOrCriteria",
                      "type": "uint256"
                    },
                    {
                      "internalType": "uint256",
                      "name": "startAmount",
                      "type": "uint256"
                    },
                    {
                      "internalType": "uint256",
                      "name": "endAmount",
                      "type": "uint256"
                    }
                  ],
                  "internalType": "struct OfferItem[]",
                  "name": "offer",
                  "type": "tuple[]"
                },
                {
                  "components": [
                    {
                      "internalType": "enum ItemType",
                      "name": "itemType",
                      "type": "uint8"
                    },
                    {
                      "internalType": "address",
                      "name": "token",
                      "type": "address"
                    },
                    {
                      "internalType": "uint256",
                      "name": "identifierOrCriteria",
                      "type": "uint256"
                    },
                    {
                      "internalType": "uint256",
                      "name": "startAmount",
                      "type": "uint256"
                    },
                    {
                      "internalType": "uint256",
                      "name": "endAmount",
                      "type": "uint256"
                    },
                    {
                      "internalType": "address payable",
                      "name": "recipient",
                      "type": "address"
                    }
                  ],
                  "internalType": "struct ConsiderationItem[]",
                  "name": "consideration",
                  "type": "tuple[]"
                },
                {
                  "internalType": "enum OrderType",
                  "name": "orderType",
                  "type": "uint8"
                },
                {
                  "internalType": "uint256",
                  "name": "startTime",
                  "type": "uint256"
                },
                {
                  "internalType": "uint256",
                  "name": "endTime",
                  "type": "uint256"
                },
                {
                  "internalType": "bytes32",
                  "name": "zoneHash",
                  "type": "bytes32"
                },
                {
                  "internalType": "uint256",
                  "name": "salt",
                  "type": "uint256"
                },
                {
                  "internalType": "bytes32",
                  "name": "conduitKey",
                  "type": "bytes32"
                },
                {
                  "internalType": "uint256",
                  "name": "totalOriginalConsiderationItems",
                  "type": "uint256"
                }
              ],
              "internalType": "struct OrderParameters",
              "name": "parameters",
              "type": "tuple"
            },
            {
              "internalType": "bytes",
              "name": "signature",
              "type": "bytes"
            }
          ],
          "internalType": "struct Order[]",
          "name": "orders",
          "type": "tuple[]"
        },
        {
          "components": [
            {
              "components": [
                {
                  "internalType": "uint256",
                  "name": "orderIndex",
                  "type": "uint256"
                },
                {
                  "internalType": "uint256",
                  "name": "itemIndex",
                  "type": "uint256"
                }
              ],
              "internalType": "struct FulfillmentComponent[]",
              "name": "offerComponents",
              "type": "tuple[]"
            },
            {
              "components": [
                {
                  "internalType": "uint256",
                  "name": "orderIndex",
                  "type": "uint256"
                },
                {
                  "internalType": "uint256",
                  "name": "itemIndex",
                  "type": "uint256"
                }
              ],
              "internalType": "struct FulfillmentComponent[]",
              "name": "considerationComponents",
              "type": "tuple[]"
            }
          ],
          "internalType": "struct Fulfillment[]",
          "name": "fulfillments",
          "type": "tuple[]"
        }
      ],
      "name": "matchOrders",
      "outputs": [
        {
          "components": [
            {
              "components": [
                {
                  "internalType": "enum ItemType",
                  "name": "itemType",
                  "type": "uint8"
                },
                {
                  "internalType": "address",
                  "name": "token",
                  "type": "address"
                },
                {
                  "internalType": "uint256",
                  "name": "identifier",
                  "type": "uint256"
                },
                {
                  "internalType": "uint256",
                  "name": "amount",
                  "type": "uint256"
                },
                {
                  "internalType": "address payable",
                  "name": "recipient",
                  "type": "address"
                }
              ],
              "internalType": "struct ReceivedItem",
              "name": "item",
              "type": "tuple"
            },
            {
              "internalType": "address",
              "name": "offerer",
              "type": "address"
            },
            {
              "internalType": "bytes32",
              "name": "conduitKey",
              "type": "bytes32"
            }
          ],
          "internalType": "struct Execution[]",
          "name": "executions",
          "type": "tuple[]"
        }
      ],
      "stateMutability": "payable",
      "type": "function"
    },
    {
      "inputs": [],
      "name": "name",
      "outputs": [
        {
          "internalType": "string",
          "name": "contractName",
          "type": "string"
        }
      ],
      "stateMutability": "pure",
      "type": "function"
    },
    {
      "inputs": [
        {
          "components": [
            {
              "components": [
                {
                  "internalType": "address",
                  "name": "offerer",
                  "type": "address"
                },
                {
                  "internalType": "address",
                  "name": "zone",
                  "type": "address"
                },
                {
                  "components": [
                    {
                      "internalType": "enum ItemType",
                      "name": "itemType",
                      "type": "uint8"
                    },
                    {
                      "internalType": "address",
                      "name": "token",
                      "type": "address"
                    },
                    {
                      "internalType": "uint256",
                      "name": "identifierOrCriteria",
                      "type": "uint256"
                    },
                    {
                      "internalType": "uint256",
                      "name": "startAmount",
                      "type": "uint256"
                    },
                    {
                      "internalType": "uint256",
                      "name": "endAmount",
                      "type": "uint256"
                    }
                  ],
                  "internalType": "struct OfferItem[]",
                  "name": "offer",
                  "type": "tuple[]"
                },
                {
                  "components": [
                    {
                      "internalType": "enum ItemType",
                      "name": "itemType",
                      "type": "uint8"
                    },
                    {
                      "internalType": "address",
                      "name": "token",
                      "type": "address"
                    },
                    {
                      "internalType": "uint256",
                      "name": "identifierOrCriteria",
                      "type": "uint256"
                    },
                    {
                      "internalType": "uint256",
                      "name": "startAmount",
                      "type": "uint256"
                    },
                    {
                      "internalType": "uint256",
                      "name": "endAmount",
                      "type": "uint256"
                    },
                    {
                      "internalType": "address payable",
                      "name": "recipient",
                      "type": "address"
                    }
                  ],
                  "internalType": "struct ConsiderationItem[]",
                  "name": "consideration",
                  "type": "tuple[]"
                },
                {
                  "internalType": "enum OrderType",
                  "name": "orderType",
                  "type": "uint8"
                },
                {
                  "internalType": "uint256",
                  "name": "startTime",
                  "type": "uint256"
                },
                {
                  "internalType": "uint256",
                  "name": "endTime",
                  "type": "uint256"
                },
                {
                  "internalType": "bytes32",
                  "name": "zoneHash",
                  "type": "bytes32"
                },
                {
                  "internalType": "uint256",
                  "name": "salt",
                  "type": "uint256"
                },
                {
                  "internalType": "bytes32",
                  "name": "conduitKey",
                  "type": "bytes32"
                },
                {
                  "internalType": "uint256",
                  "name": "totalOriginalConsiderationItems",
                  "type": "uint256"
                }
              ],
              "internalType": "struct OrderParameters",
              "name": "parameters",
              "type": "tuple"
            },
            {
              "internalType": "bytes",
              "name": "signature",
              "type": "bytes"
            }
          ],
          "internalType": "struct Order[]",
          "name": "orders",
          "type": "tuple[]"
        }
      ],
      "name": "validate",
      "outputs": [
        {
          "internalType": "bool",
          "name": "validated",
          "type": "bool"
        }
      ],
      "stateMutability": "nonpayable",
      "type": "function"
    }
  ],
  "bytecode": "0x6101c06040523480156200001257600080fd5b506040516200606d3803806200606d8339810160408190526200003591620005c6565b808080808080808080806200004962000132565b610120526101005260e05260c081815260a0838152608085815246610140819052604080516020818101979097528082019890985260608801969096529086015230858201528351808603909101815293019091528151910120610160526001600160a01b03811661018081905260408051630a96ad3960e01b81528151630a96ad39926004808401939192918290030181865afa158015620000f0573d6000803e3d6000fd5b505050506040513d601f19601f82011682018060405250810190620001169190620005f8565b506101a05250506001600055506200067c975050505050505050565b600080808080806200015e60408051808201909152600781526614d9585c1bdc9d60ca1b602082015290565b80516020918201206040805180820182526003815262312e3160e81b90840152519097507f722c0e0c80487266e8c6a45e3a1a803aab23378a9c32e6ebe029d4fad7bfc96596506000916200026391016909ecccccae492e8cada560b31b81526e1d5a5b9d0e081a5d195b551e5c194b608a1b600a8201526d1859191c995cdcc81d1bdad95b8b60921b60198201527f75696e74323536206964656e7469666965724f7243726974657269612c00000060278201527f75696e74323536207374617274416d6f756e742c0000000000000000000000006044820152701d5a5b9d0c8d4d88195b99105b5bdd5b9d607a1b6058820152602960f81b6069820152606a0190565b60408051601f1981840301815282825271086dedce6d2c8cae4c2e8d2dedc92e8cada560731b60208401526e1d5a5b9d0e081a5d195b551e5c194b608a1b60328401526d1859191c995cdcc81d1bdad95b8b60921b60418401527f75696e74323536206964656e7469666965724f7243726974657269612c000000604f8401527f75696e74323536207374617274416d6f756e742c000000000000000000000000606c840152711d5a5b9d0c8d4d88195b99105b5bdd5b9d0b60721b6080840152701859191c995cdcc81c9958da5c1a595b9d607a1b6092840152602960f81b60a384018190528251808503608401815260a485019093526f09ee4c8cae486dedae0dedccadce8e6560831b60c48501526f1859191c995cdcc81bd999995c995c8b60821b60d48501526c1859191c995cdcc81e9bdb994b609a1b60e48501527113d999995c925d195b56d7481bd999995c8b60721b60f18501527f436f6e73696465726174696f6e4974656d5b5d20636f6e73696465726174696f610103850152611b8b60f21b6101238501526f1d5a5b9d0e081bdc99195c951e5c194b60821b610125850152711d5a5b9d0c8d4d881cdd185c9d151a5b594b60721b6101358501526f1d5a5b9d0c8d4d88195b99151a5b594b60821b61014785015270189e5d195ccccc881e9bdb9952185cda0b607a1b6101578501526c1d5a5b9d0c8d4d881cd85b1d0b609a1b6101688501527f6279746573333220636f6e647569744b65792c000000000000000000000000006101758501526e3ab4b73a191a9b1031b7bab73a32b960891b6101888501526101978401529250906000906101980160408051601f19818403018152908290526c08a92a06e626488dedac2d2dc5609b1b60208301526b1cdd1c9a5b99c81b985b594b60a21b602d8301526e1cdd1c9a5b99c81d995c9cda5bdb8b608a1b60398301526f1d5a5b9d0c8d4d8818da185a5b92590b60821b60488301527f6164647265737320766572696679696e67436f6e7472616374000000000000006058830152602960f81b6071830152915060720160408051601f19818403018152908290528051602091820120855186830120855186840120919a5098509650620005a391839185918791016200064f565b604051602081830303815290604052805190602001209350505050909192939495565b600060208284031215620005d957600080fd5b81516001600160a01b0381168114620005f157600080fd5b9392505050565b600080604083850312156200060c57600080fd5b505080516020909101519092909150565b6000815160005b8181101562000640576020818501810151868301520162000624565b50600093019283525090919050565b6000620006736200066c6200066584886200061d565b866200061d565b846200061d565b95945050505050565b60805160a05160c05160e05161010051610120516101405161016051610180516101a051615959620007146000396000613a2b015260008181610d2201526139e901526000612552015260006124820152600081816108b0015261276001526000818161083f01526125be0152600081816107d801526126d9015260006124b0015260006124fe015260006124d601526159596000f3fe6080604052600436106100e85760003560e01c8063a81744041161008a578063f07ec37311610059578063f07ec37314610290578063f47b7740146102b0578063fb0f3ee1146102d4578063fd9f1e10146102e757600080fd5b8063a817440414610244578063b3a34c4c14610257578063e7acab241461026a578063ed98a5741461027d57600080fd5b80635b34b966116100c65780635b34b966146101b057806379df72bd146101d357806387201b41146101f3578063881477321461021457600080fd5b806306fdde03146100ed57806346423aa71461011857806355944a4214610190575b600080fd5b3480156100f957600080fd5b50610102610307565b60405161010f91906144c9565b60405180910390f35b34801561012457600080fd5b5061016e6101333660046144dc565b60009081526002602052604090205460ff808216926101008304909116916001600160781b03620100008204811692600160881b9092041690565b604080519415158552921515602085015291830152606082015260800161010f565b6101a361019e366004614ab5565b610316565b60405161010f9190614c1b565b3480156101bc57600080fd5b506101c5610339565b60405190815260200161010f565b3480156101df57600080fd5b506101c56101ee366004614c2e565b610343565b610206610201366004614c6a565b6104da565b60405161010f929190614d4b565b34801561022057600080fd5b5061023461022f366004614da4565b610520565b604051901515815260200161010f565b6101a3610252366004614de6565b610533565b610234610265366004614e52565b6105b1565b610234610278366004614e9c565b610623565b61020661028b366004614f2c565b610657565b34801561029c57600080fd5b506101c56102ab366004614fd5565b6106e1565b3480156102bc57600080fd5b506102c56106ff565b60405161010f93929190614ff2565b6102346102e2366004615024565b610717565b3480156102f357600080fd5b50610234610302366004614da4565b610722565b606061031161072e565b905090565b606061032d866103268688615060565b8585610746565b90505b95945050505050565b6000610311610763565b6040805161016081019091526000906104d490806103646020860186614fd5565b6001600160a01b031681526020018460200160208101906103859190614fd5565b6001600160a01b031681526020016103a06040860186615195565b808060200260200160405190810160405280939291908181526020016000905b828210156103ec576103dd60a083028601368190038101906151de565b815260200190600101906103c0565b505050918352505060200161040460608601866151fa565b808060200260200160405190810160405280939291908181526020016000905b828210156104505761044160c08302860136819003810190615243565b81526020019060010190610424565b505050918352505060200161046b60a086016080870161525f565b600381111561047c5761047c614b4a565b81526020018460a0013581526020018460c0013581526020018460e001358152602001846101000135815260200184610120013581526020018480606001906104c591906151fa565b909152506101408401356107c0565b92915050565b60608061050d8c6104eb8c8e615060565b8b8b8b8b8b6001600160a01b038c1615610505578b610507565b335b8b610906565b915091509a509a98505050505050505050565b600061052c8383610948565b9392505050565b60606105a66105428686610aad565b604080516000808252602082019092529061059e565b61058b6040805160a081019091526000808252602082019081526020016000815260200160008152602001606081525090565b8152602001906001900390816105585790505b508585610746565b90505b949350505050565b600061052c6105bf84610b69565b604080516000808252602082019092529061061b565b6106086040805160a081019091526000808252602082019081526020016000815260200160008152602001606081525090565b8152602001906001900390816105d55790505b508433610c14565b600061032d6106318761527a565b61063b8688615060565b856001600160a01b038616156106515785610c14565b33610c14565b6060806106d06106678b8b610aad565b60408051600080825260208201909252906106c3565b6106b06040805160a081019091526000808252602082019081526020016000815260200160008152602001606081525090565b81526020019060019003908161067d5790505b508a8a8a8a8a338b610906565b915091509850989650505050505050565b6001600160a01b0381166000908152600160205260408120546104d4565b606060008061070c610d01565b925092509250909192565b60006104d482610d7c565b600061052c8383611055565b6060602080526707536561706f727460475260606020f35b60606107588585600188516000611274565b6105a68584846115b4565b600061076d611715565b503360008181526001602081815260409283902080549092019182905591518181529092917f721c20121297512b72821b97f5326877ea8ecf4bb9948fea5bfcb6453074d37f910160405180910390a290565b610140820151604080519084015180516000939284927f000000000000000000000000000000000000000000000000000000000000000092602090910190845b8181101561082d578251601f1901805186825260c082208652905260209384019390920191600101610800565b506020810260405120945050505060007f00000000000000000000000000000000000000000000000000000000000000009150604051602060608901510160005b8681101561089b578151601f1901805186825260e08220855290526020928301929091019060010161086e565b505060408051602087029020601f198a0180517f00000000000000000000000000000000000000000000000000000000000000008252928b01805197815260608c018051938152610140909c019a8b5261018082209390915295909552939097525050925250919050565b6060806109178b8b60008688611274565b6109368b6109258a8c6152d5565b61092f898b6152d5565b8888611753565b909c909b509950505050505050505050565b6000610952611715565b6000808084815b81811015610a9f5736888883818110610974576109746153a8565b905060200281019061098691906153be565b90503661099382806153de565b90506109a26020820182614fd5565b94506109b56109b0826153f5565b611982565b600081815260026020526040812098509096506109d7908790899060016119bd565b50865460ff16610a9557610a2d85876109f36020860186615401565b8080601f016020809104026020016040519081016040528093929190818152602001838380828437600092019190915250611acd92505050565b865460ff19166001178755610a486040820160208301614fd5565b6001600160a01b0316856001600160a01b03167ffde361574a066b44b3b5fe98a87108b7565e327327954c4faeea56a4e6491a0a88604051610a8c91815260200190565b60405180910390a35b5050600101610959565b506001979650505050505050565b6060818067ffffffffffffffff811115610ac957610ac96144f5565b604051908082528060200260200182016040528015610b0257816020015b610aef6143d2565b815260200190600190039081610ae75790505b50915060005b81811015610b6157610b3c858583818110610b2557610b256153a8565b9050602002810190610b3791906153be565b610b69565b838281518110610b4e57610b4e6153a8565b6020908102919091010152600101610b08565b505092915050565b610b716143d2565b6040805160a0810190915280610b8784806153de565b610b90906153f5565b815260200160016001600160781b0316815260200160016001600160781b03168152602001838060200190610bc59190615401565b8080601f01602080910402602001604051908101604052809392919081815260200183838082843760009201829052509385525050604080516020818101909252928352909201525092915050565b6000610c1e611b3d565b60606000806000610c328989600187611b4c565b604080516001808252818301909252939650919450925060009190816020015b610c5a6143d2565b815260200190600190039081610c525790505090508981600081518110610c8357610c836153a8565b6020026020010181905250610c98818a611e5f565b600081600081518110610cad57610cad6153a8565b6020026020010151600001519050610cc88185858c8c61224b565b610ce685826000015183602001518b85604001518660600151612419565b610cf06001600055565b5060019a9950505050505050505050565b6060600080610d0e61247e565b6040805160038082528183019092529193507f0000000000000000000000000000000000000000000000000000000000000000925060208201818036833750507f312e3100000000000000000000000000000000000000000000000000000000006020830152509391925090565b600061012435600281901c90600316600182113415811480610dd1576040517fa61be9f00000000000000000000000000000000000000000000000000000000081523460048201526024015b60405180910390fd5b5060008060008060038711915060a082026024013593506002871460028811600289030201905060018101820260028615028801039250610e16898783888888612574565b506101c46020820201356000856005811115610e3457610e34614b4a565b03610ed75760208901803590610e4a908b614fd5565b6001600160a01b03161715610e7257604051636ab37ce760e01b815260040160405180910390fd5b610ea783610e8660c08c0160a08d01614fd5565b610e9660808d0160608e01614fd5565b338d60c001358e60e00135876128aa565b610ed260408a0135610ebf60808c0160608d01614fd5565b610ecd6102008d018d615448565b61295e565b61103c565b6040805160208082528183019092526000916020820181803683370190505090506002886005811115610f0c57610f0c614b4a565b03610f4b57610f46610f2460c08c0160a08d01614fd5565b610f3460808d0160608e01614fd5565b338d60c001358e60e001358787612a19565b611016565b6003886005811115610f5f57610f5f614b4a565b03610f9957610f46610f7760c08c0160a08d01614fd5565b610f8760808d0160608e01614fd5565b338d60c001358e60e001358787612a66565b6004886005811115610fad57610fad614b4a565b03610fe457610f46610fc260208c018c614fd5565b33610fd360808e0160608f01614fd5565b8d602001358e604001358787612a19565b611016610ff460208c018c614fd5565b3361100560808e0160608f01614fd5565b8d602001358e604001358787612a66565b61103161102960808c0160608d01614fd5565b8b8584612a9c565b61103a81612bbd565b505b6110466001600055565b50600198975050505050505050565b600061105f611715565b6000808084815b81811015610a9f5736888883818110611081576110816153a8565b905060200281019061109391906153de565b90506110a26020820182614fd5565b94506110b46040820160208301614fd5565b9350336001600160a01b038616148015906110d85750336001600160a01b03851614155b1561110f576040517f80ec737400000000000000000000000000000000000000000000000000000000815260040160405180910390fd5b60006111fe604051806101600160405280886001600160a01b03168152602001876001600160a01b0316815260200184806040019061114e9190615195565b808060200260200160405190810160405280939291908181526020016000905b8282101561119a5761118b60a083028601368190038101906151de565b8152602001906001019061116e565b50505091835250506020016111b260608601866151fa565b808060200260200160405190810160405280939291908181526020016000905b82821015610450576111ef60c08302860136819003810190615243565b815260200190600101906111d2565b60008181526002602052604090819020805461ffff191661010017815590519098509091506001600160a01b0380871691908816907f6bacc01dbe442496068f7d234edd811f1a5f833243e0aec824f86ab861f3c90d906112629085815260200190565b60405180910390a35050600101611066565b61127c611b3d565b845160008167ffffffffffffffff811115611299576112996144f5565b6040519080825280602002602001820160405280156112c2578160200160208202803683370190505b506000808252909150601d6045823560e01c061160011b905b838110156114eb5760008982815181106112f7576112f76153a8565b602002602001015190508660000361131c5760006020909101526001810183526114e3565b600080600061132d848d8d8a611b4c565b925092509250600185018752816000036113545750506000602090920191909152506114e3565b82878681518110611367576113676153a8565b6020908102919091010152835160a081015160c08201516040909201518051600019909d019c91929160005b8181101561142f5760008382815181106113af576113af6153a8565b602002602001015190508051158c179b5060006113d189898460800151612be6565b905081608001518260600151036113ee5760608201819052611403565b6113fd89898460600151612be6565b60608301525b60808201819052606082015161141d908289896000612c41565b60609092019190915250600101611393565b50875160600151805160005b818110156114d7576000838281518110611457576114576153a8565b6020026020010151905060006114728b8b8460800151612be6565b9050816080015182606001510361148f57606082018190526114a4565b61149e8b8b8460600151612be6565b60608301525b6080820181905260608201516114be90828b8b6001612c41565b60608301525060a081015160809091015260010161143b565b50505050505050505050505b6001016112db565b508060030361150d576040516312d3f5a360e01b815260040160405180910390fd5b6115178888611e5f565b60005b838110156115a9576000801b838281518110611538576115386153a8565b602002602001015103156115a157600089828151811061155a5761155a6153a8565b602002602001015160000151905061159f84838151811061157d5761157d6153a8565b6020026020010151826000015183602001518985604001518660600151612419565b505b60010161151a565b505050505050505050565b6060818067ffffffffffffffff8111156115d0576115d06144f5565b60405190808252806020026020018201604052801561163e57816020015b60408051610100810182526000606082018181526080830182905260a0830182905260c0830182905260e08301829052825260208083018290529282015282526000199092019101816115ee5790505b5091506000805b828110156116f35736868683818110611660576116606153a8565b905060200281019061167291906153be565b90506000611696896116848480615448565b6116916020870187615448565b612c96565b905080602001516001600160a01b03168160000151608001516001600160a01b0316036116c8578360010193506116e9565b8086858503815181106116dd576116dd6153a8565b60200260200101819052505b5050600101611645565b508015611701578083510383525b5061170c858361301d565b50509392505050565b600160005414611751576040517f7fa8a98700000000000000000000000000000000000000000000000000000000815260040160405180910390fd5b565b8351835160609182916117668183615492565b67ffffffffffffffff81111561177e5761177e6144f5565b6040519080825280602002602001820160405280156117ec57816020015b60408051610100810182526000606082018181526080830182905260a0830182905260c0830182905260e083018290528252602080830182905292820152825260001990920191018161179c5790505b5092506000805b838110156118865760008a828151811061180f5761180f6153a8565b6020026020010151905060006118298d6000848d8d613251565b905080602001516001600160a01b03168160000151608001516001600160a01b03160361185b5783600101935061187c565b808785850381518110611870576118706153a8565b60200260200101819052505b50506001016117f3565b5060005b828110156119205760008982815181106118a6576118a66153a8565b6020026020010151905060006118c18d6001848d6000613251565b905080602001516001600160a01b03168160000151608001516001600160a01b0316036118f357836001019350611916565b808785888601038151811061190a5761190a6153a8565b60200260200101819052505b505060010161188a565b50801561192e578084510384525b50825160000361196a576040517fd5da9a1b00000000000000000000000000000000000000000000000000000000815260040160405180910390fd5b611974898461301d565b935050509550959350505050565b6000611998826060015151836101400151613347565b81516001600160a01b03166000908152600160205260409020546104d49083906107c0565b8254600090610100900460ff1615611a12578115611a0a576040517f1a51557400000000000000000000000000000000000000000000000000000000815260048101869052602401610dc8565b5060006105a9565b83546201000090046001600160781b03168015611ac1578315611a64576040517fee9e0e6300000000000000000000000000000000000000000000000000000000815260048101879052602401610dc8565b8454600160881b90046001600160781b03168110611ac1578215611ab7576040517f10fda3e100000000000000000000000000000000000000000000000000000000815260048101879052602401610dc8565b60009150506105a9565b50600195945050505050565b336001600160a01b03841603611ae257505050565b6000611b2a611aef61247e565b7f1901000000000000000000000000000000000000000000000000000000000000600090815260029190915260228581526042822091905290565b9050611b37848284613381565b50505050565b611b45611715565b6002600055565b60008060008087600001519050611b6c8160a001518260c0015188613536565b611b80575060009250829150819050611e55565b602088015160408901516001600160781b03918216911680821180611ba3575081155b15611bda576040517f5a052b3200000000000000000000000000000000000000000000000000000000815260040160405180910390fd5b8082108015611bee57506080830151600116155b15611c25576040517fa11b63ff00000000000000000000000000000000000000000000000000000000815260040160405180910390fd5b611c2e83611982565b9550611c508a8a89898760e00151886080015189600001518a60200151613595565b600086815260026020526040812090611c6d90889083908c6119bd565b611c82575060009450849350611e5592505050565b805460ff16611c9e57611c9e8460000151888d60600151611acd565b80546001600160781b03620100008204811691600160881b9004168015611dfb5783600103611cd257809450809350611cfe565b838114611cfe57611ce384836154a5565b9150611cef81866154a5565b9450611cfb81856154a5565b93505b83611d098684615492565b1115611d155781840394505b611d1f8583615492565b91506001600160781b0384116001600160781b0383111715611da857611d5a565b60005b8215611d5457908290069190611d43565b50919050565b611d6d611d678584611d40565b86611d40565b80150194859004949384900493909104906001600160781b038083119085111715611da857634e487b7160e01b600052601160045260246000fd5b82546001600160781b03858116600160881b0270ffffffffffffffffffffffffffffffffff918516620100000270ffffffffffffffffffffffffffffffffff199093169290921760011716178355611e4a565b82546001600160781b03858116600160881b0270ffffffffffffffffffffffffffffffffff918816620100000270ffffffffffffffffffffffffffffffffff1990931692909217600117161783555b509295509093505050505b9450945094915050565b8051825160005b8281101561210a576000848281518110611e8257611e826153a8565b60200260200101519050600081600001519050838110611ece576040517f869586c400000000000000000000000000000000000000000000000000000000815260040160405180910390fd5b868181518110611ee057611ee06153a8565b6020026020010151602001516001600160781b0316600003611f03575050612102565b6000878281518110611f1757611f176153a8565b60209081029190910101515160408401519091506000808086602001516001811115611f4557611f45614b4a565b03611ff857604084015180518410611f89576040517fbfb3f8ce00000000000000000000000000000000000000000000000000000000815260040160405180910390fd5b6000818581518110611f9d57611f9d6153a8565b602090810291909101015180516040820151909550935090506004841460030381816005811115611fd057611fd0614b4a565b90816005811115611fe357611fe3614b4a565b905250506060880151604090910152506120a2565b606084015180518410612037576040517f6088d7de00000000000000000000000000000000000000000000000000000000815260040160405180910390fd5b600081858151811061204b5761204b6153a8565b60209081029190910101518051604082015190955093509050600484146003038181600581111561207e5761207e614b4a565b9081600581111561209157612091614b4a565b905250506060880151604090910152505b6120ac8260031090565b6120e2576040517f94eb6af600000000000000000000000000000000000000000000000000000000815260040160405180910390fd5b80156120fb576120fb86606001518288608001516136a2565b5050505050505b600101611e66565b5060005b8181101561224457600085828151811061212a5761212a6153a8565b6020026020010151905080602001516001600160781b031660000361214f575061223c565b805160608101515160005b818110156121cc5761218d8360600151828151811061217b5761217b6153a8565b60200260200101516000015160031090565b156121c4576040517fff75a34000000000000000000000000000000000000000000000000000000000815260040160405180910390fd5b60010161215a565b505060408101515160005b81811015612237576121f88360400151828151811061217b5761217b6153a8565b1561222f576040517fa6cfc67300000000000000000000000000000000000000000000000000000000815260040160405180910390fd5b6001016121d7565b505050505b60010161210e565b5050505050565b60a085015160c086015160408051602080825281830190925260009160208201818036833750505060408901515190915061371e9060005b818110156123395760008b6040015182815181106122a3576122a36153a8565b60200260200101519050600060058111156122c0576122c0614b4a565b815160058111156122d3576122d3614b4a565b036122f1576040516312d3f5a360e01b815260040160405180910390fd5b600061230b826060015183608001518e8e8c8c6000613830565b606083015250608081018890528b516101208d01516123309183918863ffffffff8916565b50600101612283565b505050606088015151349061371e9060005b818110156123fd5760008c60600151828151811061236b5761236b6153a8565b60200260200101519050600061238f826060015183608001518f8f8d8d6001613830565b6060830181905260a0830151608084015290506000825160058111156123b7576123b7614b4a565b036123e357858111156123dd57604051631a783b8d60e01b815260040160405180910390fd5b80860395505b6123f382338d8a8963ffffffff16565b505060010161234b565b50505061240982612bbd565b80156115a9576115a9338261387a565b60608290506060829050856001600160a01b0316876001600160a01b03167f9d9af8e38d66c62e2c12f0225249fd9d721c54b83f48d9352c97c6cacdcb6f318a88868660405161246c94939291906154f6565b60405180910390a35050505050505050565b60007f0000000000000000000000000000000000000000000000000000000000000000461461254f57610311604080517f000000000000000000000000000000000000000000000000000000000000000060208201527f0000000000000000000000000000000000000000000000000000000000000000918101919091527f000000000000000000000000000000000000000000000000000000000000000060608201524660808201523060a082015260009060c00160405160208183030381529060405280519060200120905090565b507f000000000000000000000000000000000000000000000000000000000000000090565b61257c611b3d565b6125928661012001358761014001356001613536565b5061259b6138e7565b6125b96125ac610200880188615448565b9050876101e00135613347565b6000807f00000000000000000000000000000000000000000000000000000000000000009050806080528560a0526060602460c037604060646101203760e06080206101605261026435602081026102a0016001610264350181526020810190508781526080602460208301376101608760a0528660c052600060e05261020435925060005b8381101561268a578060400261028401602081610100376040816101203760208301925060e0608020835260a08401935089845288602085015260408160608601375060010161263f565b60206001850102610160206060526102643593505b838110156126d0578060400261028401915060a083019250888352876020840152604082606085013760010161269f565b505050505060007f00000000000000000000000000000000000000000000000000000000000000009050806080528260a052606060c460c03760206101046101203760c0608020600052602060002060e052602061026435026102000160018152836020820152606060c4604083013750506084356001600160a01b0381166000908152600160205260408120547f000000000000000000000000000000000000000000000000000000000000000060808190529091506040608460a03760605161010052886101205260a061014461014037816101e0526101806080209350505050602061026435026101800181815233602082015260806040820152610120606082015260a061026435026101e00160a4356084357f9d9af8e38d66c62e2c12f0225249fd9d721c54b83f48d9352c97c6cacdcb6f318385a35050600060605261284581886101600135888a60600160208101906128309190614fd5565b61284060a08d0160808e01614fd5565b613949565b6128a18161285960808a0160608b01614fd5565b6128676102208b018b615401565b8080601f01602080910402602001604051908101604052809392919081815260200183838082843760009201919091525061399992505050565b50505050505050565b80156129065760006040519050632671a55160e11b815260206004820152600160248201528760448201528660648201528560848201528460a48201528360c48201528260e482015261290082826101046139e3565b506128a1565b600287600581111561291a5761291a614b4a565b0361295157816001146129405760405163efcc00b160e01b815260040160405180910390fd5b61294c86868686613b37565b6128a1565b6128a18686868686613bfb565b348160005b818110156129d1573685858381811061297e5761297e6153a8565b604002919091019150508035848111156129ab57604051631a783b8d60e01b815260040160405180910390fd5b6129c46129be6040840160208501614fd5565b8261387a565b9093039250600101612963565b50818611156129f357604051631a783b8d60e01b815260040160405180910390fd5b6129fd858761387a565b85821115612a1157612a113387840361387a565b505050505050565b612a238183613cfb565b81612a555782600114612a495760405163efcc00b160e01b815260040160405180910390fd5b61294c87878787613b37565b6128a1828260028a8a8a8a8a613d1a565b612a6f83613d9a565b612a798183613cfb565b81612a8b5761294c8787878787613bfb565b6128a1828260038a8a8a8a8a613d1a565b60008060008060008615612ad357889450339350612ac060c0890160a08a01614fd5565b9250505060e086013560c0870135612af5565b339450889350612ae66020890189614fd5565b92505050604086013560208701355b8015612b1457604051636ab37ce760e01b815260040160405180910390fd5b50602086026101e403356000612b2e6102008a018a615448565b9050905060005b81811015612ba25736612b4c6102008c018c615448565b83818110612b5c57612b5c6153a8565b6040029190910191505080358a15612b7b57612b788187615591565b95505b612b98878a612b906040860160208701614fd5565b84898f613dbb565b5050600101612b35565b50612bb184878786868c613dbb565b50505050505050505050565b6040815114612bc95750565b6000612bd6826020015190565b9050612be28183613df6565b5050565b6000828403612bf657508061052c565b8284830915612c29577fc63cf0890000000000000000000000000000000000000000000000000000000060005260046000fd5b6000612c3585846154a5565b93909304949350505050565b6000848614612c8c57838303428590038082036000612c60838a6154a5565b612c6a838c6154a5565b612c749190615492565b90508584878303040181151502945050505050610330565b5092949350505050565b60408051610100810182526000606082018181526080830182905260a0830182905260c0830182905260e0830182905282526020820181905291810191909152831580612ce1575081155b15612d18576040517f98e9db6e00000000000000000000000000000000000000000000000000000000815260040160405180910390fd5b60408051610100810182526000606082018181526080830182905260a0830182905260c0830182905260e0830182905282526020820181905291810191909152612db5878585808060200260200160405190810160405280939291908181526020016000905b82821015612daa57612d9b604083028601368190038101906155a4565b81526020019060010190612d7e565b505050505083613e1a565b805160408051602080890282018101909252878152612e14918a91908a908a90819060009085015b82821015612e0957612dfa604083028601368190038101906155a4565b81526020019060010190612ddd565b505050505085613fd6565b80516005811115612e2757612e27614b4a565b8351516005811115612e3b57612e3b614b4a565b141580612e66575080602001516001600160a01b03168360000151602001516001600160a01b031614155b80612e7d5750806040015183600001516040015114155b15612eb4576040517f09cfb45500000000000000000000000000000000000000000000000000000000815260040160405180910390fd5b82600001516060015181606001511115612f6257600085856000818110612edd57612edd6153a8565b905060400201803603810190612ef391906155a4565b905083600001516060015182606001510389826000015181518110612f1a57612f1a6153a8565b60200260200101516000015160600151826020015181518110612f3f57612f3f6153a8565b602090810291909101015160609081019190915284518101519083015250612ffd565b600087876000818110612f7757612f776153a8565b905060400201803603810190612f8d91906155a4565b905081606001518460000151606001510389826000015181518110612fb457612fb46153a8565b60200260200101516000015160400151826020015181518110612fd957612fd96153a8565b60200260200101516060018181525050816060015184600001516060018181525050505b60809081015183516001600160a01b039091169101525095945050505050565b81516060908067ffffffffffffffff81111561303b5761303b6144f5565b604051908082528060200260200182016040528015613064578160200160208202803683370190505b50915060005b81811015613165576000858281518110613086576130866153a8565b6020026020010151905080602001516001600160781b03166000036130ab575061315d565b60018483815181106130bf576130bf6153a8565b91151560209283029190910190910152805160600151805160005b818110156131585760008382815181106130f6576130f66153a8565b60200260200101516060015190508060001461314f576040517fa5f54208000000000000000000000000000000000000000000000000000000008152600481018790526024810183905260448101829052606401610dc8565b506001016130da565b505050505b60010161306a565b5060408051602080825281830190925234916000919060208201818036833701905050855190915060005b818110156132235760008782815181106131ac576131ac6153a8565b602090810291909101015180519091506000815160058111156131d1576131d1614b4a565b036132055785816060015111156131fb57604051631a783b8d60e01b815260040160405180910390fd5b8060600151860395505b61321981836020015184604001518861371e565b5050600101613190565b5061322d82612bbd565b821561323d5761323d338461387a565b6132476001600055565b5050505092915050565b60408051610100810182526000606082018181526080830182905260a0830182905260c0830182905260e083018290528252602082018190529181019190915283516000036132ce57846040517f375c24c1000000000000000000000000000000000000000000000000000000008152600401610dc891906155d0565b60008560018111156132e2576132e2614b4a565b036133095780516001600160a01b038316608090910152613304868583613fd6565b613322565b613314868583613e1a565b336020820152604081018390525b8051606001516000036103305760006020820181905281516080015295945050505050565b80821015612be2576040517f466aa61600000000000000000000000000000000000000000000000000000000815260040160405180910390fd5b6000806000526000825160208403805182604103600060018211613408576040880151606089015160001a965082156133e657601b8160ff1c0196507f7fffffffffffffffffffffffffffffffffffffffffffffffffffffffffffffff811660408a01525b8689528985526020600060808760015afa508385528589526040890152506000515b89148915151695508590506135145760408252604486038051604088038051630b135d3f60e11b84528a82526020600060648901868f5afa9850881561350a57630b135d3f60e11b6000511461350a578b3b1561347057634f7fb80d60e01b60005260046000fd5b60018760410311156134a6577f8baa579f0000000000000000000000000000000000000000000000000000000060005260046000fd5b640101000000881a6134e0577f1f003d0a000000000000000000000000000000000000000000000000000000006000528760045260246000fd5b7f815e1d640000000000000000000000000000000000000000000000000000000060005260046000fd5b8486529190925290525b5050505080611b3757613525614167565b634f7fb80d60e01b60005260046000fd5b6000428411806135465750428311155b1561358b578115613583576040517f6f7eac2600000000000000000000000000000000000000000000000000000000815260040160405180910390fd5b50600061052c565b5060019392505050565b60018360038111156135a9576135a9614b4a565b1180156135bf5750336001600160a01b03821614155b80156135d45750336001600160a01b03831614155b15613698576080880151511580156135eb57508651155b15613601576135fc818684876141af565b613698565b600061368c82633313157060e01b88338d8c8e604051602401613628959493929190615790565b60408051601f198184030181529190526020810180517bffffffffffffffffffffffffffffffffffffffffffffffffffffffff167fffffffff00000000000000000000000000000000000000000000000000000000909316929092179091526141fb565b90506115a98187614210565b5050505050505050565b600083600052602060002060208301835160051b81015b808210156136e157815180841160051b938452602093841852604060002092909101906136b9565b50508314905080611b37576040517f09bde33900000000000000000000000000000000000000000000000000000000815260040160405180910390fd5b60008451600581111561373357613733614b4a565b0361378157604084015160208501516001600160a01b0316171561376a57604051636ab37ce760e01b815260040160405180910390fd5b61377c8460800151856060015161387a565b611b37565b60018451600581111561379657613796614b4a565b036137d8576040840151156137be57604051636ab37ce760e01b815260040160405180910390fd5b61377c846020015184866080015187606001518686613dbb565b6002845160058111156137ed576137ed614b4a565b036138115761377c8460200151848660800151876040015188606001518787612a19565b611b378460200151848660800151876040015188606001518787612a66565b600086880361384b57613844868689612be6565b905061386f565b61386c61385987878b612be6565b61386488888b612be6565b868686612c41565b90505b979650505050505050565b61388381613d9a565b600080600080600085875af19050806138e25761389e614167565b6040517f470c7c1d0000000000000000000000000000000000000000000000000000000081526001600160a01b038416600482015260248101839052604401610dc8565b505050565b6018610124351061024435610260610264356040020114600435602014610224356102401416161680613946576040517f39f3e3fd00000000000000000000000000000000000000000000000000000000815260040160405180910390fd5b50565b600183600381111561395d5761395d614b4a565b1180156139735750336001600160a01b03821614155b80156139885750336001600160a01b03831614155b1561224457612244818684876141af565b60008381526002602052604090206139b484826001806119bd565b50805460ff166139c9576139c9838584611acd565b710100000000000000000000000000000100019055505050565b604080517f000000000000000000000000000000000000000000000000000000000000000074ff000000000000000000000000000000000000000017600090815260208690527f000000000000000000000000000000000000000000000000000000000000000083526055600b20919092526001600160a01b03169050600080600080526020600085876000875af19150600051905081613ac357613a86614167565b6040517fd13d53d40000000000000000000000000000000000000000000000000000000081526001600160a01b0384166004820152602401610dc8565b7fffffffff000000000000000000000000000000000000000000000000000000008116632671a55160e11b14612a11576040517f1cf99b26000000000000000000000000000000000000000000000000000000008152600481018790526001600160a01b0384166024820152604401610dc8565b833b613b5257632f8aeb3960e11b6000528360045260246000fd5b6040516323b872dd60e01b6000528360045282602452816044526000806064600080895af180613bec573d15613bc6576020601f3d0104602083048160030281831115613bad57818303600302610200838002858002030401015b5a602082011015613bc2573d6000803e3d6000fd5b5050505b63f486bc8760e01b60005285600452846024528360445282606452600160845260a46000fd5b50604052505060006060525050565b843b613c1657632f8aeb3960e11b6000528460045260246000fd5b60405160805160a05160c0517ff242432a000000000000000000000000000000000000000000000000000000006000528760045286602452856044528460645260a0608452600060a45260008060c46000808d5af180613cdf573d15613cba576020601f3d0104602086048160030281831115613ca157818303600302610200838002858002030401015b5a602082011015613cb6573d6000803e3d6000fd5b5050505b63f486bc8760e01b600052896004528860245287604452866064528560845260a46000fd5b5060809290925260a05260c05260405250506000606052505050565b6000613d08836020015190565b90508181146138e2576138e283612bbd565b60006020885103613d555750604080885260208089018a9052632671a55160e11b918901919091526044880152600160648801819052613d64565b50606487018051600101908190525b603c60c082028901038781528660208201528560408201528460608201528360808201528260a082015250505050505050505050565b806000036139465760405163246cf94560e21b815260040160405180910390fd5b613dc483613d9a565b613dce8183613cfb565b81613de457613ddf8686868661426a565b612a11565b612a118282600189898960008a613d1a565b6064810151604082019060c002604401613e118483836139e3565b50506020905250565b613e5f565b7f7fda72790000000000000000000000000000000000000000000000000000000060005260046000fd5b634e487b7160e01b600052601160045260246000fd5b6020820180515184518110613e7657613e76613e1f565b6020810260208601015160608151015160208451015181518110613e9c57613e9c613e1f565b60208102602083010151600080602086015115613ec3575050606081018051600090915280155b885183518152602084015160208201526040840151604082015260a084015160808201526060812060208c51028c015b808b1015613f9a5760208b019a508a515199508d518a10613f1657613f16613e1f565b60208a0260208f0101519850602089015115613ef357606089510151975060208b510151965087518710613f4c57613f4c613e1f565b602087026020890101519550606086018051860181511587821060011b1786179550809650506000815250606086208214608084015160a08801511416613f9557613f95613e1f565b613ef3565b50506060018290528015613fc95760018103613fc15763246cf94560e21b60005260046000fd5b613fc9613e49565b5050505050505050505050565b6020820180515184518110613fed57613fed613e1f565b60208102602086010151805160408101516020855101518151811061401457614014613e1f565b6020810260208301015160008060208701511561403b575050606081018051600090915280155b8951835181526020840151602082015260408401516040820152865160208c015261012087015160408c015260608120905060208c51028c015b808b10156141295760208b019a508a515199508d518a1061409857614098613e1f565b60208a0260208f010151985060208901511561407557885197506040880151965060208b5101519550865186106140d1576140d1613e1f565b602086026020880101519450606085018051850181511586821060011b178517945080955050600081525060608520821460408d01516101208a01511460208e01518a5114161661412457614124613e1f565b614075565b50508160608b510152801561415957600181036141515763246cf94560e21b60005260046000fd5b614159613e49565b505050505050505050505050565b3d15611751576020601f3d0104602060405104816003028183111561419a57818303600302610200838002858002030401015b5a6020820110156138e2573d6000803e3d6000fd5b604051602481018490523360448201526001600160a01b0383166064820152608481018290526000906141ef9086906303874c7760e21b9060a401613628565b90506122448185614210565b6000806000835160208501865afa9392505050565b816142395761421d614167565b604051633ed4053f60e21b815260048101829052602401610dc8565b6142496303874c7760e21b61438c565b15612be257604051633ed4053f60e21b815260048101829052602401610dc8565b6040516323b872dd60e01b600052836004528260245281604452602060006064600080895af1803d15601f3d116001600051141617163d1515811661437c5780873b15151661437c5780614367578161432d573d15614307576020601f3d01046020840481600302818311156142ee57818303600302610200838002858002030401015b5a602082011015614303573d6000803e3d6000fd5b5050505b63f486bc8760e01b60005286600452856024528460445260006064528360845260a46000fd5b7f98891923000000000000000000000000000000000000000000000000000000006000528660045285602452846044528360645260846000fd5b632f8aeb3960e11b6000528660045260246000fd5b5050604052505060006060525050565b60008060203d036143a25760206000803e506000515b7fffffffff0000000000000000000000000000000000000000000000000000000090811692169190911415919050565b6040518060a001604052806143e5614406565b81526000602082018190526040820152606080820181905260809091015290565b60405180610160016040528060006001600160a01b0316815260200160006001600160a01b0316815260200160608152602001606081526020016000600381111561445357614453614b4a565b815260006020820181905260408201819052606082018190526080820181905260a0820181905260c09091015290565b6000815180845260005b818110156144a95760208185018101518683018201520161448d565b506000602082860101526020601f19601f83011685010191505092915050565b60208152600061052c6020830184614483565b6000602082840312156144ee57600080fd5b5035919050565b634e487b7160e01b600052604160045260246000fd5b60405160a0810167ffffffffffffffff8111828210171561452e5761452e6144f5565b60405290565b604051610160810167ffffffffffffffff8111828210171561452e5761452e6144f5565b604051601f8201601f1916810167ffffffffffffffff81118282101715614581576145816144f5565b604052919050565b600067ffffffffffffffff8211156145a3576145a36144f5565b5060051b60200190565b6001600160a01b038116811461394657600080fd5b80356145cd816145ad565b919050565b8035600681106145cd57600080fd5b600060a082840312156145f357600080fd5b6145fb61450b565b9050614606826145d2565b81526020820135614616816145ad565b8060208301525060408201356040820152606082013560608201526080820135608082015292915050565b600082601f83011261465257600080fd5b8135602061466761466283614589565b614558565b82815260a0928302850182019282820191908785111561468657600080fd5b8387015b858110156146a95761469c89826145e1565b845292840192810161468a565b5090979650505050505050565b600060c082840312156146c857600080fd5b60405160c0810181811067ffffffffffffffff821117156146eb576146eb6144f5565b6040529050806146fa836145d2565b8152602083013561470a816145ad565b8060208301525060408301356040820152606083013560608201526080830135608082015260a083013561473d816145ad565b60a0919091015292915050565b600082601f83011261475b57600080fd5b8135602061476b61466283614589565b82815260c0928302850182019282820191908785111561478a57600080fd5b8387015b858110156146a9576147a089826146b6565b845292840192810161478e565b8035600481106145cd57600080fd5b600061016082840312156147cf57600080fd5b6147d7614534565b90506147e2826145c2565b81526147f0602083016145c2565b6020820152604082013567ffffffffffffffff8082111561481057600080fd5b61481c85838601614641565b6040840152606084013591508082111561483557600080fd5b506148428482850161474a565b606083015250614854608083016147ad565b608082015260a082013560a082015260c082013560c082015260e082013560e082015261010080830135818301525061012080830135818301525061014080830135818301525092915050565b80356001600160781b03811681146145cd57600080fd5b600082601f8301126148c957600080fd5b813567ffffffffffffffff8111156148e3576148e36144f5565b6148f6601f8201601f1916602001614558565b81815284602083860101111561490b57600080fd5b816020850160208301376000918101602001919091529392505050565b600060a0828403121561493a57600080fd5b61494261450b565b9050813567ffffffffffffffff8082111561495c57600080fd5b614968858386016147bc565b8352614976602085016148a1565b6020840152614987604085016148a1565b604084015260608401359150808211156149a057600080fd5b6149ac858386016148b8565b606084015260808401359150808211156149c557600080fd5b506149d2848285016148b8565b60808301525092915050565b600082601f8301126149ef57600080fd5b813560206149ff61466283614589565b82815260059290921b84018101918181019086841115614a1e57600080fd5b8286015b84811015614a5e57803567ffffffffffffffff811115614a425760008081fd5b614a508986838b0101614928565b845250918301918301614a22565b509695505050505050565b60008083601f840112614a7b57600080fd5b50813567ffffffffffffffff811115614a9357600080fd5b6020830191508360208260051b8501011115614aae57600080fd5b9250929050565b600080600080600060608688031215614acd57600080fd5b853567ffffffffffffffff80821115614ae557600080fd5b614af189838a016149de565b96506020880135915080821115614b0757600080fd5b614b1389838a01614a69565b90965094506040880135915080821115614b2c57600080fd5b50614b3988828901614a69565b969995985093965092949392505050565b634e487b7160e01b600052602160045260246000fd5b60068110614b7057614b70614b4a565b9052565b614b7f828251614b60565b60208101516001600160a01b038082166020850152604083015160408501526060830151606085015280608084015116608085015250505050565b600081518084526020808501945080840160005b83811015614c10578151614be3888251614b74565b808401516001600160a01b031660a08901526040015160c088015260e09096019590820190600101614bce565b509495945050505050565b60208152600061052c6020830184614bba565b600060208284031215614c4057600080fd5b813567ffffffffffffffff811115614c5757600080fd5b8201610160818503121561052c57600080fd5b60008060008060008060008060008060e08b8d031215614c8957600080fd5b8a3567ffffffffffffffff80821115614ca157600080fd5b614cad8e838f016149de565b9b5060208d0135915080821115614cc357600080fd5b614ccf8e838f01614a69565b909b50995060408d0135915080821115614ce857600080fd5b614cf48e838f01614a69565b909950975060608d0135915080821115614d0d57600080fd5b50614d1a8d828e01614a69565b90965094505060808b01359250614d3360a08c016145c2565b915060c08b013590509295989b9194979a5092959850565b604080825283519082018190526000906020906060840190828701845b82811015614d86578151151584529284019290840190600101614d68565b50505083810382850152614d9a8186614bba565b9695505050505050565b60008060208385031215614db757600080fd5b823567ffffffffffffffff811115614dce57600080fd5b614dda85828601614a69565b90969095509350505050565b60008060008060408587031215614dfc57600080fd5b843567ffffffffffffffff80821115614e1457600080fd5b614e2088838901614a69565b90965094506020870135915080821115614e3957600080fd5b50614e4687828801614a69565b95989497509550505050565b60008060408385031215614e6557600080fd5b823567ffffffffffffffff811115614e7c57600080fd5b830160408186031215614e8e57600080fd5b946020939093013593505050565b600080600080600060808688031215614eb457600080fd5b853567ffffffffffffffff80821115614ecc57600080fd5b9087019060a0828a031215614ee057600080fd5b90955060208701359080821115614ef657600080fd5b50614f0388828901614a69565b909550935050604086013591506060860135614f1e816145ad565b809150509295509295909350565b60008060008060008060008060a0898b031215614f4857600080fd5b883567ffffffffffffffff80821115614f6057600080fd5b614f6c8c838d01614a69565b909a50985060208b0135915080821115614f8557600080fd5b614f918c838d01614a69565b909850965060408b0135915080821115614faa57600080fd5b50614fb78b828c01614a69565b999c989b509699959896976060870135966080013595509350505050565b600060208284031215614fe757600080fd5b813561052c816145ad565b6060815260006150056060830186614483565b90508360208301526001600160a01b0383166040830152949350505050565b60006020828403121561503657600080fd5b813567ffffffffffffffff81111561504d57600080fd5b8201610240818503121561052c57600080fd5b600061506e61466284614589565b83815260208082019190600586811b86013681111561508c57600080fd5b865b8181101561518857803567ffffffffffffffff808211156150af5760008081fd5b818a01915060a082360312156150c55760008081fd5b6150cd61450b565b8235815286830135600281106150e35760008081fd5b8188015260408381013590820152606080840135908201526080808401358381111561510f5760008081fd5b939093019236601f85011261512657600092508283fd5b8335925061513661466284614589565b83815292871b840188019288810190368511156151535760008081fd5b948901945b8486101561517157853582529489019490890190615158565b91830191909152508852505094830194830161508e565b5092979650505050505050565b6000808335601e198436030181126151ac57600080fd5b83018035915067ffffffffffffffff8211156151c757600080fd5b602001915060a081023603821315614aae57600080fd5b600060a082840312156151f057600080fd5b61052c83836145e1565b6000808335601e1984360301811261521157600080fd5b83018035915067ffffffffffffffff82111561522c57600080fd5b602001915060c081023603821315614aae57600080fd5b600060c0828403121561525557600080fd5b61052c83836146b6565b60006020828403121561527157600080fd5b61052c826147ad565b60006104d43683614928565b60006040828403121561529857600080fd5b6040516040810181811067ffffffffffffffff821117156152bb576152bb6144f5565b604052823581526020928301359281019290925250919050565b60006152e361466284614589565b80848252602080830192508560051b85013681111561530157600080fd5b855b8181101561539c57803567ffffffffffffffff8111156153235760008081fd5b870136601f8201126153355760008081fd5b803561534361466282614589565b81815260069190911b820185019085810190368311156153635760008081fd5b928601925b8284101561538c5761537a3685615286565b82528682019150604084019350615368565b8852505050938201938201615303565b50919695505050505050565b634e487b7160e01b600052603260045260246000fd5b60008235603e198336030181126153d457600080fd5b9190910192915050565b6000823561015e198336030181126153d457600080fd5b60006104d436836147bc565b6000808335601e1984360301811261541857600080fd5b83018035915067ffffffffffffffff82111561543357600080fd5b602001915036819003821315614aae57600080fd5b6000808335601e1984360301811261545f57600080fd5b83018035915067ffffffffffffffff82111561547a57600080fd5b6020019150600681901b3603821315614aae57600080fd5b808201808211156104d4576104d4613e49565b80820281158282048414176104d4576104d4613e49565b600081518084526020808501945080840160005b83811015614c10576154e3878351614b74565b60a09690960195908201906001016154d0565b6000608080830187845260206001600160a01b03808916828701526040848188015283895180865260a089019150848b01955060005b8181101561556d578651615541848251614b60565b80870151861684880152848101518585015260609081015190840152958501959187019160010161552c565b50508781036060890152615581818a6154bc565b9c9b505050505050505050505050565b818103818111156104d4576104d4613e49565b6000604082840312156155b657600080fd5b61052c8383615286565b60028110614b7057614b70614b4a565b602081016104d482846155c0565b600081518084526020808501945080840160005b83811015614c10578151615607888251614b60565b808401516001600160a01b03168885015260408082015190890152606080820151908901526080908101519088015260a090960195908201906001016155f2565b600081518084526020808501945080840160005b83811015614c10578151615671888251614b60565b808401516001600160a01b0390811689860152604080830151908a0152606080830151908a0152608080830151908a015260a091820151169088015260c0909601959082019060010161565c565b60048110614b7057614b70614b4a565b600081518084526020808501945080840160005b83811015614c10578151875295820195908201906001016156e3565b600081518084526020808501808196508360051b8101915082860160005b85811015615783578284038952815160a08151865286820151615742888801826155c0565b50604082810151908701526060808301519087015260809182015191860181905261576f818701836156cf565b9a87019a955050509084019060010161571d565b5091979650505050505050565b8581526001600160a01b038516602082015260a060408201526000610140855160a0808501526157cb82850182516001600160a01b03169052565b60208101516101606157e7818701836001600160a01b03169052565b6040830151915080610180870152506158046102a08601826155de565b9050606082015161013f19868303016101a08701526158238282615648565b91505060808201516158396101c08701826156bf565b5060a08201516101e086015260c082015161020086015260e082015161022086015261010080830151610240870152610120808401516102608801528484015161028088015260208a0151945061589b60c08801866001600160781b03169052565b60408a01516001600160781b031660e088015260608a0151878403609f19908101848a015290955093506158cf8386614483565b945060808a0151925083878603018188015250506158ed8382614483565b92505050828103606084015261590381866156cf565b9050828103608084015261591781856156ff565b9897505050505050505056fea264697066735822122039d6a6a0f4a504a20354bafdba92cc2f59972c6646cceabe86d924ede7d3751464736f6c63430008110033",
  "linkReferences": {},
  "deployedLinkReferences": {}
}