{
  "_format": "hh-sol-artifact-1",
  "contractName": "Conduit",
  "sourceName": "contracts/dependencies/Conduit.sol",
  "abi": [
    {
      "inputs": [],
      "stateMutability": "nonpayable",
      "type": "constructor"
    },
    {
      "inputs": [
        {
          "internalType": "address",
          "name": "token",
          "type": "address"
        },
        {
          "internalType": "address",
          "name": "from",
          "type": "address"
        },
        {
          "internalType": "address",
          "name": "to",
          "type": "address"
        },
        {
          "internalType": "uint256",
          "name": "amount",
          "type": "uint256"
        }
      ],
      "name": "BadReturnValueFromERC20OnTransfer",
      "type": "error"
    },
    {
      "inputs": [
        {
          "internalType": "address",
          "name": "channel",
          "type": "address"
        }
      ],
      "name": "ChannelClosed",
      "type": "error"
    },
    {
      "inputs": [
        {
          "internalType": "address",
          "name": "channel",
          "type": "address"
        },
        {
          "internalType": "bool",
          "name": "isOpen",
          "type": "bool"
        }
      ],
      "name": "ChannelStatusAlreadySet",
      "type": "error"
    },
    {
      "inputs": [
        {
          "internalType": "address",
          "name": "token",
          "type": "address"
        },
        {
          "internalType": "address",
          "name": "from",
          "type": "address"
        },
        {
          "internalType": "address",
          "name": "to",
          "type": "address"
        },
        {
          "internalType": "uint256[]",
          "name": "identifiers",
          "type": "uint256[]"
        },
        {
          "internalType": "uint256[]",
          "name": "amounts",
          "type": "uint256[]"
        }
      ],
      "name": "ERC1155BatchTransferGenericFailure",
      "type": "error"
    },
    {
      "inputs": [],
      "name": "Invalid1155BatchTransferEncoding",
      "type": "error"
    },
    {
      "inputs": [],
      "name": "InvalidController",
      "type": "error"
    },
    {
      "inputs": [],
      "name": "InvalidERC721TransferAmount",
      "type": "error"
    },
    {
      "inputs": [],
      "name": "InvalidItemType",
      "type": "error"
    },
    {
      "inputs": [],
      "name": "MissingItemAmount",
      "type": "error"
    },
    {
      "inputs": [
        {
          "internalType": "address",
          "name": "account",
          "type": "address"
        }
      ],
      "name": "NoContract",
      "type": "error"
    },
    {
      "inputs": [
        {
          "internalType": "address",
          "name": "token",
          "type": "address"
        },
        {
          "internalType": "address",
          "name": "from",
          "type": "address"
        },
        {
          "internalType": "address",
          "name": "to",
          "type": "address"
        },
        {
          "internalType": "uint256",
          "name": "identifier",
          "type": "uint256"
        },
        {
          "internalType": "uint256",
          "name": "amount",
          "type": "uint256"
        }
      ],
      "name": "TokenTransferGenericFailure",
      "type": "error"
    },
    {
      "inputs": [],
      "name": "UnusedItemParameters",
      "type": "error"
    },
    {
      "anonymous": false,
      "inputs": [
        {
          "indexed": true,
          "internalType": "address",
          "name": "channel",
          "type": "address"
        },
        {
          "indexed": false,
          "internalType": "bool",
          "name": "open",
          "type": "bool"
        }
      ],
      "name": "ChannelUpdated",
      "type": "event"
    },
    {
      "inputs": [
        {
          "components": [
            {
              "internalType": "enum ConduitItemType",
              "name": "itemType",
              "type": "uint8"
            },
            {
              "internalType": "address",
              "name": "token",
              "type": "address"
            },
            {
              "internalType": "address",
              "name": "from",
              "type": "address"
            },
            {
              "internalType": "address",
              "name": "to",
              "type": "address"
            },
            {
              "internalType": "uint256",
              "name": "identifier",
              "type": "uint256"
            },
            {
              "internalType": "uint256",
              "name": "amount",
              "type": "uint256"
            }
          ],
          "internalType": "struct ConduitTransfer[]",
          "name": "transfers",
          "type": "tuple[]"
        }
      ],
      "name": "execute",
      "outputs": [
        {
          "internalType": "bytes4",
          "name": "magicValue",
          "type": "bytes4"
        }
      ],
      "stateMutability": "nonpayable",
      "type": "function"
    },
    {
      "inputs": [
        {
          "components": [
            {
              "internalType": "address",
              "name": "token",
              "type": "address"
            },
            {
              "internalType": "address",
              "name": "from",
              "type": "address"
            },
            {
              "internalType": "address",
              "name": "to",
              "type": "address"
            },
            {
              "internalType": "uint256[]",
              "name": "ids",
              "type": "uint256[]"
            },
            {
              "internalType": "uint256[]",
              "name": "amounts",
              "type": "uint256[]"
            }
          ],
          "internalType": "struct ConduitBatch1155Transfer[]",
          "name": "batchTransfers",
          "type": "tuple[]"
        }
      ],
      "name": "executeBatch1155",
      "outputs": [
        {
          "internalType": "bytes4",
          "name": "magicValue",
          "type": "bytes4"
        }
      ],
      "stateMutability": "nonpayable",
      "type": "function"
    },
    {
      "inputs": [
        {
          "components": [
            {
              "internalType": "enum ConduitItemType",
              "name": "itemType",
              "type": "uint8"
            },
            {
              "internalType": "address",
              "name": "token",
              "type": "address"
            },
            {
              "internalType": "address",
              "name": "from",
              "type": "address"
            },
            {
              "internalType": "address",
              "name": "to",
              "type": "address"
            },
            {
              "internalType": "uint256",
              "name": "identifier",
              "type": "uint256"
            },
            {
              "internalType": "uint256",
              "name": "amount",
              "type": "uint256"
            }
          ],
          "internalType": "struct ConduitTransfer[]",
          "name": "standardTransfers",
          "type": "tuple[]"
        },
        {
          "components": [
            {
              "internalType": "address",
              "name": "token",
              "type": "address"
            },
            {
              "internalType": "address",
              "name": "from",
              "type": "address"
            },
            {
              "internalType": "address",
              "name": "to",
              "type": "address"
            },
            {
              "internalType": "uint256[]",
              "name": "ids",
              "type": "uint256[]"
            },
            {
              "internalType": "uint256[]",
              "name": "amounts",
              "type": "uint256[]"
            }
          ],
          "internalType": "struct ConduitBatch1155Transfer[]",
          "name": "batchTransfers",
          "type": "tuple[]"
        }
      ],
      "name": "executeWithBatch1155",
      "outputs": [
        {
          "internalType": "bytes4",
          "name": "magicValue",
          "type": "bytes4"
        }
      ],
      "stateMutability": "nonpayable",
      "type": "function"
    },
    {
      "inputs": [
        {
          "internalType": "address",
          "name": "channel",
          "type": "address"
        },
        {
          "internalType": "bool",
          "name": "isOpen",
          "type": "bool"
        }
      ],
      "name": "updateChannel",
      "outputs": [],
      "stateMutability": "nonpayable",
      "type": "function"
    }
  ],
  "bytecode": "0x60a060405234801561001057600080fd5b5033608052608051610bf7610030600039600061024c0152610bf76000f3fe608060405234801561001057600080fd5b506004361061004c5760003560e01c80634ce34aa214610051578063899e104c146100995780638df25d92146100ac578063c4e8fcb5146100bf575b600080fd5b61006461005f3660046109d1565b6100d4565b6040517fffffffff00000000000000000000000000000000000000000000000000000000909116815260200160405180910390f35b6100646100a7366004610a58565b61015c565b6100646100ba366004610ac4565b6101e5565b6100d26100cd366004610b16565b610241565b005b60003360005260006020526040600020546100fe576349ed56f960e11b6000523360045260246000fd5b8160005b818110156101325761012a85858381811061011f5761011f610b52565b905060c00201610371565b600101610102565b507f4ce34aa200000000000000000000000000000000000000000000000000000000949350505050565b6000336000526000602052604060002054610186576349ed56f960e11b6000523360045260246000fd5b8360005b818110156101af576101a787878381811061011f5761011f610b52565b60010161018a565b506101ba848461050f565b507f899e104c0000000000000000000000000000000000000000000000000000000095945050505050565b600033600052600060205260406000205461020f576349ed56f960e11b6000523360045260246000fd5b610219838361050f565b507f8df25d920000000000000000000000000000000000000000000000000000000092915050565b336001600160a01b037f000000000000000000000000000000000000000000000000000000000000000016146102a3576040517f6d5769be00000000000000000000000000000000000000000000000000000000815260040160405180910390fd5b6001600160a01b03821660009081526020819052604090205481151560ff909116151503610314576040517f924e341e0000000000000000000000000000000000000000000000000000000081526001600160a01b0383166004820152811515602482015260440160405180910390fd5b6001600160a01b03821660008181526020818152604091829020805460ff191685151590811790915591519182527fae63067d43ac07563b7eb8db6595635fc77f1578a2a5ea06ba91b63e2afa37e2910160405180910390a25050565b60016103806020830183610b7e565b600381111561039157610391610b68565b036103d6576103d36103a96040830160208401610ba6565b6103b96060840160408501610ba6565b6103c96080850160608601610ba6565b8460a0013561069f565b50565b60026103e56020830183610b7e565b60038111156103f6576103f6610b68565b03610476578060a00135600114610439576040517fefcc00b100000000000000000000000000000000000000000000000000000000815260040160405180910390fd5b6103d361044c6040830160208401610ba6565b61045c6060840160408501610ba6565b61046c6080850160608601610ba6565b84608001356107c1565b60036104856020830183610b7e565b600381111561049657610496610b68565b036104dd576103d36104ae6040830160208401610ba6565b6104be6060840160408501610ba6565b6104ce6080850160608601610ba6565b84608001358560a00135610885565b6040517f7932f1fc00000000000000000000000000000000000000000000000000000000815260040160405180910390fd5b8082807f2eb2c2d60000000000000000000000000000000000000000000000000000000060205260005b8381101561069257823582018035803b61056257632f8aeb3960e11b6000528060045260246000fd5b60a08201356020810260c0018060808501351460a0606086013514168185013583141615905080156105b8577feba2084c0000000000000000000000000000000000000000000000000000000060005260046000fd5b506020860195506080602084016024376040810260400190508060a00160a45260008160c401528060c4018160a0850160c4376000808260206000875af1935083610683573d15610648576020601f3d0104915060208104826003028184111561063057818403600302610200838002868002030401015b5a602082011015610645573d6000803e3d6000fd5b50505b7fafc445e2000000000000000000000000000000000000000000000000000000006000528260045260c0606452608451602001608452806000fd5b50505050600181019050610539565b5050505060806040525050565b6040516323b872dd60e01b600052836004528260245281604452602060006064600080895af1803d15601f3d116001600051141617163d151581166107b15780873b1515166107b1578061079c5781610762573d1561073c576020601f3d010460208404816003028183111561072357818303600302610200838002858002030401015b5a602082011015610738573d6000803e3d6000fd5b5050505b63f486bc8760e01b60005286600452856024528460445260006064528360845260a46000fd5b7f98891923000000000000000000000000000000000000000000000000000000006000528660045285602452846044528360645260846000fd5b632f8aeb3960e11b6000528660045260246000fd5b5050604052505060006060525050565b833b6107dc57632f8aeb3960e11b6000528360045260246000fd5b6040516323b872dd60e01b6000528360045282602452816044526000806064600080895af180610876573d15610850576020601f3d010460208304816003028183111561083757818303600302610200838002858002030401015b5a60208201101561084c573d6000803e3d6000fd5b5050505b63f486bc8760e01b60005285600452846024528360445282606452600160845260a46000fd5b50604052505060006060525050565b843b6108a057632f8aeb3960e11b6000528460045260246000fd5b60405160805160a05160c0517ff242432a000000000000000000000000000000000000000000000000000000006000528760045286602452856044528460645260a0608452600060a45260008060c46000808d5af180610969573d15610944576020601f3d010460208604816003028183111561092b57818303600302610200838002858002030401015b5a602082011015610940573d6000803e3d6000fd5b5050505b63f486bc8760e01b600052896004528860245287604452866064528560845260a46000fd5b5060809290925260a05260c05260405250506000606052505050565b60008083601f84011261099757600080fd5b50813567ffffffffffffffff8111156109af57600080fd5b60208301915083602060c0830285010111156109ca57600080fd5b9250929050565b600080602083850312156109e457600080fd5b823567ffffffffffffffff8111156109fb57600080fd5b610a0785828601610985565b90969095509350505050565b60008083601f840112610a2557600080fd5b50813567ffffffffffffffff811115610a3d57600080fd5b6020830191508360208260051b85010111156109ca57600080fd5b60008060008060408587031215610a6e57600080fd5b843567ffffffffffffffff80821115610a8657600080fd5b610a9288838901610985565b90965094506020870135915080821115610aab57600080fd5b50610ab887828801610a13565b95989497509550505050565b60008060208385031215610ad757600080fd5b823567ffffffffffffffff811115610aee57600080fd5b610a0785828601610a13565b80356001600160a01b0381168114610b1157600080fd5b919050565b60008060408385031215610b2957600080fd5b610b3283610afa565b915060208301358015158114610b4757600080fd5b809150509250929050565b634e487b7160e01b600052603260045260246000fd5b634e487b7160e01b600052602160045260246000fd5b600060208284031215610b9057600080fd5b813560048110610b9f57600080fd5b9392505050565b600060208284031215610bb857600080fd5b610b9f82610afa56fea2646970667358221220ca157f21613d9fe1ec31eb7e3745e72bdd82ead7c9237854a2586f810f90fd1a64736f6c63430008110033",
  "linkReferences": {},
  "deployedLinkReferences": {}
}