{
  "_format": "hh-sol-artifact-1",
  "contractName": "Consideration",
  "sourceName": "contracts/lib/Consideration.sol",
  "abi": [
    {
      "inputs": [
        {
          "internalType": "address",
          "name": "conduitController",
          "type": "address"
        }
      ],
      "stateMutability": "nonpayable",
      "type": "constructor"
    },
    {
      "inputs": [],
      "name": "BadContractSignature",
      "type": "error"
    },
    {
      "inputs": [],
      "name": "BadFraction",
      "type": "error"
    },
    {
      "inputs": [
        {
          "internalType": "address",
          "name": "token",
          "type": "address"
        },
        {
          "internalType": "address",
          "name": "from",
          "type": "address"
        },
        {
          "internalType": "address",
          "name": "to",
          "type": "address"
        },
        {
          "internalType": "uint256",
          "name": "amount",
          "type": "uint256"
        }
      ],
      "name": "BadReturnValueFromERC20OnTransfer",
      "type": "error"
    },
    {
      "inputs": [
        {
          "internalType": "uint8",
          "name": "v",
          "type": "uint8"
        }
      ],
      "name": "BadSignatureV",
      "type": "error"
    },
    {
      "inputs": [],
      "name": "ConsiderationCriteriaResolverOutOfRange",
      "type": "error"
    },
    {
      "inputs": [
        {
          "internalType": "uint256",
          "name": "orderIndex",
          "type": "uint256"
        },
        {
          "internalType": "uint256",
          "name": "considerationIndex",
          "type": "uint256"
        },
        {
          "internalType": "uint256",
          "name": "shortfallAmount",
          "type": "uint256"
        }
      ],
      "name": "ConsiderationNotMet",
      "type": "error"
    },
    {
      "inputs": [],
      "name": "CriteriaNotEnabledForItem",
      "type": "error"
    },
    {
      "inputs": [
        {
          "internalType": "address",
          "name": "token",
          "type": "address"
        },
        {
          "internalType": "address",
          "name": "from",
          "type": "address"
        },
        {
          "internalType": "address",
          "name": "to",
          "type": "address"
        },
        {
          "internalType": "uint256[]",
          "name": "identifiers",
          "type": "uint256[]"
        },
        {
          "internalType": "uint256[]",
          "name": "amounts",
          "type": "uint256[]"
        }
      ],
      "name": "ERC1155BatchTransferGenericFailure",
      "type": "error"
    },
    {
      "inputs": [
        {
          "internalType": "address",
          "name": "account",
          "type": "address"
        },
        {
          "internalType": "uint256",
          "name": "amount",
          "type": "uint256"
        }
      ],
      "name": "EtherTransferGenericFailure",
      "type": "error"
    },
    {
      "inputs": [],
      "name": "InexactFraction",
      "type": "error"
    },
    {
      "inputs": [],
      "name": "InsufficientEtherSupplied",
      "type": "error"
    },
    {
      "inputs": [],
      "name": "Invalid1155BatchTransferEncoding",
      "type": "error"
    },
    {
      "inputs": [],
      "name": "InvalidBasicOrderParameterEncoding",
      "type": "error"
    },
    {
      "inputs": [
        {
          "internalType": "address",
          "name": "conduit",
          "type": "address"
        }
      ],
      "name": "InvalidCallToConduit",
      "type": "error"
    },
    {
      "inputs": [],
      "name": "InvalidCanceller",
      "type": "error"
    },
    {
      "inputs": [
        {
          "internalType": "bytes32",
          "name": "conduitKey",
          "type": "bytes32"
        },
        {
          "internalType": "address",
          "name": "conduit",
          "type": "address"
        }
      ],
      "name": "InvalidConduit",
      "type": "error"
    },
    {
      "inputs": [],
      "name": "InvalidERC721TransferAmount",
      "type": "error"
    },
    {
      "inputs": [],
      "name": "InvalidFulfillmentComponentData",
      "type": "error"
    },
    {
      "inputs": [
        {
          "internalType": "uint256",
          "name": "value",
          "type": "uint256"
        }
      ],
      "name": "InvalidMsgValue",
      "type": "error"
    },
    {
      "inputs": [],
      "name": "InvalidNativeOfferItem",
      "type": "error"
    },
    {
      "inputs": [],
      "name": "InvalidProof",
      "type": "error"
    },
    {
      "inputs": [
        {
          "internalType": "bytes32",
          "name": "orderHash",
          "type": "bytes32"
        }
      ],
      "name": "InvalidRestrictedOrder",
      "type": "error"
    },
    {
      "inputs": [],
      "name": "InvalidSignature",
      "type": "error"
    },
    {
      "inputs": [],
      "name": "InvalidSigner",
      "type": "error"
    },
    {
      "inputs": [],
      "name": "InvalidTime",
      "type": "error"
    },
    {
      "inputs": [],
      "name": "MismatchedFulfillmentOfferAndConsiderationComponents",
      "type": "error"
    },
    {
      "inputs": [
        {
          "internalType": "enum Side",
          "name": "side",
          "type": "uint8"
        }
      ],
      "name": "MissingFulfillmentComponentOnAggregation",
      "type": "error"
    },
    {
      "inputs": [],
      "name": "MissingItemAmount",
      "type": "error"
    },
    {
      "inputs": [],
      "name": "MissingOriginalConsiderationItems",
      "type": "error"
    },
    {
      "inputs": [
        {
          "internalType": "address",
          "name": "account",
          "type": "address"
        }
      ],
      "name": "NoContract",
      "type": "error"
    },
    {
      "inputs": [],
      "name": "NoReentrantCalls",
      "type": "error"
    },
    {
      "inputs": [],
      "name": "NoSpecifiedOrdersAvailable",
      "type": "error"
    },
    {
      "inputs": [],
      "name": "OfferAndConsiderationRequiredOnFulfillment",
      "type": "error"
    },
    {
      "inputs": [],
      "name": "OfferCriteriaResolverOutOfRange",
      "type": "error"
    },
    {
      "inputs": [
        {
          "internalType": "bytes32",
          "name": "orderHash",
          "type": "bytes32"
        }
      ],
      "name": "OrderAlreadyFilled",
      "type": "error"
    },
    {
      "inputs": [],
      "name": "OrderCriteriaResolverOutOfRange",
      "type": "error"
    },
    {
      "inputs": [
        {
          "internalType": "bytes32",
          "name": "orderHash",
          "type": "bytes32"
        }
      ],
      "name": "OrderIsCancelled",
      "type": "error"
    },
    {
      "inputs": [
        {
          "internalType": "bytes32",
          "name": "orderHash",
          "type": "bytes32"
        }
      ],
      "name": "OrderPartiallyFilled",
      "type": "error"
    },
    {
      "inputs": [],
      "name": "PartialFillsNotEnabledForOrder",
      "type": "error"
    },
    {
      "inputs": [
        {
          "internalType": "address",
          "name": "token",
          "type": "address"
        },
        {
          "internalType": "address",
          "name": "from",
          "type": "address"
        },
        {
          "internalType": "address",
          "name": "to",
          "type": "address"
        },
        {
          "internalType": "uint256",
          "name": "identifier",
          "type": "uint256"
        },
        {
          "internalType": "uint256",
          "name": "amount",
          "type": "uint256"
        }
      ],
      "name": "TokenTransferGenericFailure",
      "type": "error"
    },
    {
      "inputs": [],
      "name": "UnresolvedConsiderationCriteria",
      "type": "error"
    },
    {
      "inputs": [],
      "name": "UnresolvedOfferCriteria",
      "type": "error"
    },
    {
      "inputs": [],
      "name": "UnusedItemParameters",
      "type": "error"
    },
    {
      "anonymous": false,
      "inputs": [
        {
          "indexed": false,
          "internalType": "uint256",
          "name": "newCounter",
          "type": "uint256"
        },
        {
          "indexed": true,
          "internalType": "address",
          "name": "offerer",
          "type": "address"
        }
      ],
      "name": "CounterIncremented",
      "type": "event"
    },
    {
      "anonymous": false,
      "inputs": [
        {
          "indexed": false,
          "internalType": "bytes32",
          "name": "orderHash",
          "type": "bytes32"
        },
        {
          "indexed": true,
          "internalType": "address",
          "name": "offerer",
          "type": "address"
        },
        {
          "indexed": true,
          "internalType": "address",
          "name": "zone",
          "type": "address"
        }
      ],
      "name": "OrderCancelled",
      "type": "event"
    },
    {
      "anonymous": false,
      "inputs": [
        {
          "indexed": false,
          "internalType": "bytes32",
          "name": "orderHash",
          "type": "bytes32"
        },
        {
          "indexed": true,
          "internalType": "address",
          "name": "offerer",
          "type": "address"
        },
        {
          "indexed": true,
          "internalType": "address",
          "name": "zone",
          "type": "address"
        },
        {
          "indexed": false,
          "internalType": "address",
          "name": "recipient",
          "type": "address"
        },
        {
          "components": [
            {
              "internalType": "enum ItemType",
              "name": "itemType",
              "type": "uint8"
            },
            {
              "internalType": "address",
              "name": "token",
              "type": "address"
            },
            {
              "internalType": "uint256",
              "name": "identifier",
              "type": "uint256"
            },
            {
              "internalType": "uint256",
              "name": "amount",
              "type": "uint256"
            }
          ],
          "indexed": false,
          "internalType": "struct SpentItem[]",
          "name": "offer",
          "type": "tuple[]"
        },
        {
          "components": [
            {
              "internalType": "enum ItemType",
              "name": "itemType",
              "type": "uint8"
            },
            {
              "internalType": "address",
              "name": "token",
              "type": "address"
            },
            {
              "internalType": "uint256",
              "name": "identifier",
              "type": "uint256"
            },
            {
              "internalType": "uint256",
              "name": "amount",
              "type": "uint256"
            },
            {
              "internalType": "address payable",
              "name": "recipient",
              "type": "address"
            }
          ],
          "indexed": false,
          "internalType": "struct ReceivedItem[]",
          "name": "consideration",
          "type": "tuple[]"
        }
      ],
      "name": "OrderFulfilled",
      "type": "event"
    },
    {
      "anonymous": false,
      "inputs": [
        {
          "indexed": false,
          "internalType": "bytes32",
          "name": "orderHash",
          "type": "bytes32"
        },
        {
          "indexed": true,
          "internalType": "address",
          "name": "offerer",
          "type": "address"
        },
        {
          "indexed": true,
          "internalType": "address",
          "name": "zone",
          "type": "address"
        }
      ],
      "name": "OrderValidated",
      "type": "event"
    },
    {
      "inputs": [
        {
          "components": [
            {
              "internalType": "address",
              "name": "offerer",
              "type": "address"
            },
            {
              "internalType": "address",
              "name": "zone",
              "type": "address"
            },
            {
              "components": [
                {
                  "internalType": "enum ItemType",
                  "name": "itemType",
                  "type": "uint8"
                },
                {
                  "internalType": "address",
                  "name": "token",
                  "type": "address"
                },
                {
                  "internalType": "uint256",
                  "name": "identifierOrCriteria",
                  "type": "uint256"
                },
                {
                  "internalType": "uint256",
                  "name": "startAmount",
                  "type": "uint256"
                },
                {
                  "internalType": "uint256",
                  "name": "endAmount",
                  "type": "uint256"
                }
              ],
              "internalType": "struct OfferItem[]",
              "name": "offer",
              "type": "tuple[]"
            },
            {
              "components": [
                {
                  "internalType": "enum ItemType",
                  "name": "itemType",
                  "type": "uint8"
                },
                {
                  "internalType": "address",
                  "name": "token",
                  "type": "address"
                },
                {
                  "internalType": "uint256",
                  "name": "identifierOrCriteria",
                  "type": "uint256"
                },
                {
                  "internalType": "uint256",
                  "name": "startAmount",
                  "type": "uint256"
                },
                {
                  "internalType": "uint256",
                  "name": "endAmount",
                  "type": "uint256"
                },
                {
                  "internalType": "address payable",
                  "name": "recipient",
                  "type": "address"
                }
              ],
              "internalType": "struct ConsiderationItem[]",
              "name": "consideration",
              "type": "tuple[]"
            },
            {
              "internalType": "enum OrderType",
              "name": "orderType",
              "type": "uint8"
            },
            {
              "internalType": "uint256",
              "name": "startTime",
              "type": "uint256"
            },
            {
              "internalType": "uint256",
              "name": "endTime",
              "type": "uint256"
            },
            {
              "internalType": "bytes32",
              "name": "zoneHash",
              "type": "bytes32"
            },
            {
              "internalType": "uint256",
              "name": "salt",
              "type": "uint256"
            },
            {
              "internalType": "bytes32",
              "name": "conduitKey",
              "type": "bytes32"
            },
            {
              "internalType": "uint256",
              "name": "counter",
              "type": "uint256"
            }
          ],
          "internalType": "struct OrderComponents[]",
          "name": "orders",
          "type": "tuple[]"
        }
      ],
      "name": "cancel",
      "outputs": [
        {
          "internalType": "bool",
          "name": "cancelled",
          "type": "bool"
        }
      ],
      "stateMutability": "nonpayable",
      "type": "function"
    },
    {
      "inputs": [
        {
          "components": [
            {
              "components": [
                {
                  "internalType": "address",
                  "name": "offerer",
                  "type": "address"
                },
                {
                  "internalType": "address",
                  "name": "zone",
                  "type": "address"
                },
                {
                  "components": [
                    {
                      "internalType": "enum ItemType",
                      "name": "itemType",
                      "type": "uint8"
                    },
                    {
                      "internalType": "address",
                      "name": "token",
                      "type": "address"
                    },
                    {
                      "internalType": "uint256",
                      "name": "identifierOrCriteria",
                      "type": "uint256"
                    },
                    {
                      "internalType": "uint256",
                      "name": "startAmount",
                      "type": "uint256"
                    },
                    {
                      "internalType": "uint256",
                      "name": "endAmount",
                      "type": "uint256"
                    }
                  ],
                  "internalType": "struct OfferItem[]",
                  "name": "offer",
                  "type": "tuple[]"
                },
                {
                  "components": [
                    {
                      "internalType": "enum ItemType",
                      "name": "itemType",
                      "type": "uint8"
                    },
                    {
                      "internalType": "address",
                      "name": "token",
                      "type": "address"
                    },
                    {
                      "internalType": "uint256",
                      "name": "identifierOrCriteria",
                      "type": "uint256"
                    },
                    {
                      "internalType": "uint256",
                      "name": "startAmount",
                      "type": "uint256"
                    },
                    {
                      "internalType": "uint256",
                      "name": "endAmount",
                      "type": "uint256"
                    },
                    {
                      "internalType": "address payable",
                      "name": "recipient",
                      "type": "address"
                    }
                  ],
                  "internalType": "struct ConsiderationItem[]",
                  "name": "consideration",
                  "type": "tuple[]"
                },
                {
                  "internalType": "enum OrderType",
                  "name": "orderType",
                  "type": "uint8"
                },
                {
                  "internalType": "uint256",
                  "name": "startTime",
                  "type": "uint256"
                },
                {
                  "internalType": "uint256",
                  "name": "endTime",
                  "type": "uint256"
                },
                {
                  "internalType": "bytes32",
                  "name": "zoneHash",
                  "type": "bytes32"
                },
                {
                  "internalType": "uint256",
                  "name": "salt",
                  "type": "uint256"
                },
                {
                  "internalType": "bytes32",
                  "name": "conduitKey",
                  "type": "bytes32"
                },
                {
                  "internalType": "uint256",
                  "name": "totalOriginalConsiderationItems",
                  "type": "uint256"
                }
              ],
              "internalType": "struct OrderParameters",
              "name": "parameters",
              "type": "tuple"
            },
            {
              "internalType": "uint120",
              "name": "numerator",
              "type": "uint120"
            },
            {
              "internalType": "uint120",
              "name": "denominator",
              "type": "uint120"
            },
            {
              "internalType": "bytes",
              "name": "signature",
              "type": "bytes"
            },
            {
              "internalType": "bytes",
              "name": "extraData",
              "type": "bytes"
            }
          ],
          "internalType": "struct AdvancedOrder",
          "name": "advancedOrder",
          "type": "tuple"
        },
        {
          "components": [
            {
              "internalType": "uint256",
              "name": "orderIndex",
              "type": "uint256"
            },
            {
              "internalType": "enum Side",
              "name": "side",
              "type": "uint8"
            },
            {
              "internalType": "uint256",
              "name": "index",
              "type": "uint256"
            },
            {
              "internalType": "uint256",
              "name": "identifier",
              "type": "uint256"
            },
            {
              "internalType": "bytes32[]",
              "name": "criteriaProof",
              "type": "bytes32[]"
            }
          ],
          "internalType": "struct CriteriaResolver[]",
          "name": "criteriaResolvers",
          "type": "tuple[]"
        },
        {
          "internalType": "bytes32",
          "name": "fulfillerConduitKey",
          "type": "bytes32"
        },
        {
          "internalType": "address",
          "name": "recipient",
          "type": "address"
        }
      ],
      "name": "fulfillAdvancedOrder",
      "outputs": [
        {
          "internalType": "bool",
          "name": "fulfilled",
          "type": "bool"
        }
      ],
      "stateMutability": "payable",
      "type": "function"
    },
    {
      "inputs": [
        {
          "components": [
            {
              "components": [
                {
                  "internalType": "address",
                  "name": "offerer",
                  "type": "address"
                },
                {
                  "internalType": "address",
                  "name": "zone",
                  "type": "address"
                },
                {
                  "components": [
                    {
                      "internalType": "enum ItemType",
                      "name": "itemType",
                      "type": "uint8"
                    },
                    {
                      "internalType": "address",
                      "name": "token",
                      "type": "address"
                    },
                    {
                      "internalType": "uint256",
                      "name": "identifierOrCriteria",
                      "type": "uint256"
                    },
                    {
                      "internalType": "uint256",
                      "name": "startAmount",
                      "type": "uint256"
                    },
                    {
                      "internalType": "uint256",
                      "name": "endAmount",
                      "type": "uint256"
                    }
                  ],
                  "internalType": "struct OfferItem[]",
                  "name": "offer",
                  "type": "tuple[]"
                },
                {
                  "components": [
                    {
                      "internalType": "enum ItemType",
                      "name": "itemType",
                      "type": "uint8"
                    },
                    {
                      "internalType": "address",
                      "name": "token",
                      "type": "address"
                    },
                    {
                      "internalType": "uint256",
                      "name": "identifierOrCriteria",
                      "type": "uint256"
                    },
                    {
                      "internalType": "uint256",
                      "name": "startAmount",
                      "type": "uint256"
                    },
                    {
                      "internalType": "uint256",
                      "name": "endAmount",
                      "type": "uint256"
                    },
                    {
                      "internalType": "address payable",
                      "name": "recipient",
                      "type": "address"
                    }
                  ],
                  "internalType": "struct ConsiderationItem[]",
                  "name": "consideration",
                  "type": "tuple[]"
                },
                {
                  "internalType": "enum OrderType",
                  "name": "orderType",
                  "type": "uint8"
                },
                {
                  "internalType": "uint256",
                  "name": "startTime",
                  "type": "uint256"
                },
                {
                  "internalType": "uint256",
                  "name": "endTime",
                  "type": "uint256"
                },
                {
                  "internalType": "bytes32",
                  "name": "zoneHash",
                  "type": "bytes32"
                },
                {
                  "internalType": "uint256",
                  "name": "salt",
                  "type": "uint256"
                },
                {
                  "internalType": "bytes32",
                  "name": "conduitKey",
                  "type": "bytes32"
                },
                {
                  "internalType": "uint256",
                  "name": "totalOriginalConsiderationItems",
                  "type": "uint256"
                }
              ],
              "internalType": "struct OrderParameters",
              "name": "parameters",
              "type": "tuple"
            },
            {
              "internalType": "uint120",
              "name": "numerator",
              "type": "uint120"
            },
            {
              "internalType": "uint120",
              "name": "denominator",
              "type": "uint120"
            },
            {
              "internalType": "bytes",
              "name": "signature",
              "type": "bytes"
            },
            {
              "internalType": "bytes",
              "name": "extraData",
              "type": "bytes"
            }
          ],
          "internalType": "struct AdvancedOrder[]",
          "name": "advancedOrders",
          "type": "tuple[]"
        },
        {
          "components": [
            {
              "internalType": "uint256",
              "name": "orderIndex",
              "type": "uint256"
            },
            {
              "internalType": "enum Side",
              "name": "side",
              "type": "uint8"
            },
            {
              "internalType": "uint256",
              "name": "index",
              "type": "uint256"
            },
            {
              "internalType": "uint256",
              "name": "identifier",
              "type": "uint256"
            },
            {
              "internalType": "bytes32[]",
              "name": "criteriaProof",
              "type": "bytes32[]"
            }
          ],
          "internalType": "struct CriteriaResolver[]",
          "name": "criteriaResolvers",
          "type": "tuple[]"
        },
        {
          "components": [
            {
              "internalType": "uint256",
              "name": "orderIndex",
              "type": "uint256"
            },
            {
              "internalType": "uint256",
              "name": "itemIndex",
              "type": "uint256"
            }
          ],
          "internalType": "struct FulfillmentComponent[][]",
          "name": "offerFulfillments",
          "type": "tuple[][]"
        },
        {
          "components": [
            {
              "internalType": "uint256",
              "name": "orderIndex",
              "type": "uint256"
            },
            {
              "internalType": "uint256",
              "name": "itemIndex",
              "type": "uint256"
            }
          ],
          "internalType": "struct FulfillmentComponent[][]",
          "name": "considerationFulfillments",
          "type": "tuple[][]"
        },
        {
          "internalType": "bytes32",
          "name": "fulfillerConduitKey",
          "type": "bytes32"
        },
        {
          "internalType": "address",
          "name": "recipient",
          "type": "address"
        },
        {
          "internalType": "uint256",
          "name": "maximumFulfilled",
          "type": "uint256"
        }
      ],
      "name": "fulfillAvailableAdvancedOrders",
      "outputs": [
        {
          "internalType": "bool[]",
          "name": "availableOrders",
          "type": "bool[]"
        },
        {
          "components": [
            {
              "components": [
                {
                  "internalType": "enum ItemType",
                  "name": "itemType",
                  "type": "uint8"
                },
                {
                  "internalType": "address",
                  "name": "token",
                  "type": "address"
                },
                {
                  "internalType": "uint256",
                  "name": "identifier",
                  "type": "uint256"
                },
                {
                  "internalType": "uint256",
                  "name": "amount",
                  "type": "uint256"
                },
                {
                  "internalType": "address payable",
                  "name": "recipient",
                  "type": "address"
                }
              ],
              "internalType": "struct ReceivedItem",
              "name": "item",
              "type": "tuple"
            },
            {
              "internalType": "address",
              "name": "offerer",
              "type": "address"
            },
            {
              "internalType": "bytes32",
              "name": "conduitKey",
              "type": "bytes32"
            }
          ],
          "internalType": "struct Execution[]",
          "name": "executions",
          "type": "tuple[]"
        }
      ],
      "stateMutability": "payable",
      "type": "function"
    },
    {
      "inputs": [
        {
          "components": [
            {
              "components": [
                {
                  "internalType": "address",
                  "name": "offerer",
                  "type": "address"
                },
                {
                  "internalType": "address",
                  "name": "zone",
                  "type": "address"
                },
                {
                  "components": [
                    {
                      "internalType": "enum ItemType",
                      "name": "itemType",
                      "type": "uint8"
                    },
                    {
                      "internalType": "address",
                      "name": "token",
                      "type": "address"
                    },
                    {
                      "internalType": "uint256",
                      "name": "identifierOrCriteria",
                      "type": "uint256"
                    },
                    {
                      "internalType": "uint256",
                      "name": "startAmount",
                      "type": "uint256"
                    },
                    {
                      "internalType": "uint256",
                      "name": "endAmount",
                      "type": "uint256"
                    }
                  ],
                  "internalType": "struct OfferItem[]",
                  "name": "offer",
                  "type": "tuple[]"
                },
                {
                  "components": [
                    {
                      "internalType": "enum ItemType",
                      "name": "itemType",
                      "type": "uint8"
                    },
                    {
                      "internalType": "address",
                      "name": "token",
                      "type": "address"
                    },
                    {
                      "internalType": "uint256",
                      "name": "identifierOrCriteria",
                      "type": "uint256"
                    },
                    {
                      "internalType": "uint256",
                      "name": "startAmount",
                      "type": "uint256"
                    },
                    {
                      "internalType": "uint256",
                      "name": "endAmount",
                      "type": "uint256"
                    },
                    {
                      "internalType": "address payable",
                      "name": "recipient",
                      "type": "address"
                    }
                  ],
                  "internalType": "struct ConsiderationItem[]",
                  "name": "consideration",
                  "type": "tuple[]"
                },
                {
                  "internalType": "enum OrderType",
                  "name": "orderType",
                  "type": "uint8"
                },
                {
                  "internalType": "uint256",
                  "name": "startTime",
                  "type": "uint256"
                },
                {
                  "internalType": "uint256",
                  "name": "endTime",
                  "type": "uint256"
                },
                {
                  "internalType": "bytes32",
                  "name": "zoneHash",
                  "type": "bytes32"
                },
                {
                  "internalType": "uint256",
                  "name": "salt",
                  "type": "uint256"
                },
                {
                  "internalType": "bytes32",
                  "name": "conduitKey",
                  "type": "bytes32"
                },
                {
                  "internalType": "uint256",
                  "name": "totalOriginalConsiderationItems",
                  "type": "uint256"
                }
              ],
              "internalType": "struct OrderParameters",
              "name": "parameters",
              "type": "tuple"
            },
            {
              "internalType": "bytes",
              "name": "signature",
              "type": "bytes"
            }
          ],
          "internalType": "struct Order[]",
          "name": "orders",
          "type": "tuple[]"
        },
        {
          "components": [
            {
              "internalType": "uint256",
              "name": "orderIndex",
              "type": "uint256"
            },
            {
              "internalType": "uint256",
              "name": "itemIndex",
              "type": "uint256"
            }
          ],
          "internalType": "struct FulfillmentComponent[][]",
          "name": "offerFulfillments",
          "type": "tuple[][]"
        },
        {
          "components": [
            {
              "internalType": "uint256",
              "name": "orderIndex",
              "type": "uint256"
            },
            {
              "internalType": "uint256",
              "name": "itemIndex",
              "type": "uint256"
            }
          ],
          "internalType": "struct FulfillmentComponent[][]",
          "name": "considerationFulfillments",
          "type": "tuple[][]"
        },
        {
          "internalType": "bytes32",
          "name": "fulfillerConduitKey",
          "type": "bytes32"
        },
        {
          "internalType": "uint256",
          "name": "maximumFulfilled",
          "type": "uint256"
        }
      ],
      "name": "fulfillAvailableOrders",
      "outputs": [
        {
          "internalType": "bool[]",
          "name": "availableOrders",
          "type": "bool[]"
        },
        {
          "components": [
            {
              "components": [
                {
                  "internalType": "enum ItemType",
                  "name": "itemType",
                  "type": "uint8"
                },
                {
                  "internalType": "address",
                  "name": "token",
                  "type": "address"
                },
                {
                  "internalType": "uint256",
                  "name": "identifier",
                  "type": "uint256"
                },
                {
                  "internalType": "uint256",
                  "name": "amount",
                  "type": "uint256"
                },
                {
                  "internalType": "address payable",
                  "name": "recipient",
                  "type": "address"
                }
              ],
              "internalType": "struct ReceivedItem",
              "name": "item",
              "type": "tuple"
            },
            {
              "internalType": "address",
              "name": "offerer",
              "type": "address"
            },
            {
              "internalType": "bytes32",
              "name": "conduitKey",
              "type": "bytes32"
            }
          ],
          "internalType": "struct Execution[]",
          "name": "executions",
          "type": "tuple[]"
        }
      ],
      "stateMutability": "payable",
      "type": "function"
    },
    {
      "inputs": [
        {
          "components": [
            {
              "internalType": "address",
              "name": "considerationToken",
              "type": "address"
            },
            {
              "internalType": "uint256",
              "name": "considerationIdentifier",
              "type": "uint256"
            },
            {
              "internalType": "uint256",
              "name": "considerationAmount",
              "type": "uint256"
            },
            {
              "internalType": "address payable",
              "name": "offerer",
              "type": "address"
            },
            {
              "internalType": "address",
              "name": "zone",
              "type": "address"
            },
            {
              "internalType": "address",
              "name": "offerToken",
              "type": "address"
            },
            {
              "internalType": "uint256",
              "name": "offerIdentifier",
              "type": "uint256"
            },
            {
              "internalType": "uint256",
              "name": "offerAmount",
              "type": "uint256"
            },
            {
              "internalType": "enum BasicOrderType",
              "name": "basicOrderType",
              "type": "uint8"
            },
            {
              "internalType": "uint256",
              "name": "startTime",
              "type": "uint256"
            },
            {
              "internalType": "uint256",
              "name": "endTime",
              "type": "uint256"
            },
            {
              "internalType": "bytes32",
              "name": "zoneHash",
              "type": "bytes32"
            },
            {
              "internalType": "uint256",
              "name": "salt",
              "type": "uint256"
            },
            {
              "internalType": "bytes32",
              "name": "offererConduitKey",
              "type": "bytes32"
            },
            {
              "internalType": "bytes32",
              "name": "fulfillerConduitKey",
              "type": "bytes32"
            },
            {
              "internalType": "uint256",
              "name": "totalOriginalAdditionalRecipients",
              "type": "uint256"
            },
            {
              "components": [
                {
                  "internalType": "uint256",
                  "name": "amount",
                  "type": "uint256"
                },
                {
                  "internalType": "address payable",
                  "name": "recipient",
                  "type": "address"
                }
              ],
              "internalType": "struct AdditionalRecipient[]",
              "name": "additionalRecipients",
              "type": "tuple[]"
            },
            {
              "internalType": "bytes",
              "name": "signature",
              "type": "bytes"
            }
          ],
          "internalType": "struct BasicOrderParameters",
          "name": "parameters",
          "type": "tuple"
        }
      ],
      "name": "fulfillBasicOrder",
      "outputs": [
        {
          "internalType": "bool",
          "name": "fulfilled",
          "type": "bool"
        }
      ],
      "stateMutability": "payable",
      "type": "function"
    },
    {
      "inputs": [
        {
          "components": [
            {
              "components": [
                {
                  "internalType": "address",
                  "name": "offerer",
                  "type": "address"
                },
                {
                  "internalType": "address",
                  "name": "zone",
                  "type": "address"
                },
                {
                  "components": [
                    {
                      "internalType": "enum ItemType",
                      "name": "itemType",
                      "type": "uint8"
                    },
                    {
                      "internalType": "address",
                      "name": "token",
                      "type": "address"
                    },
                    {
                      "internalType": "uint256",
                      "name": "identifierOrCriteria",
                      "type": "uint256"
                    },
                    {
                      "internalType": "uint256",
                      "name": "startAmount",
                      "type": "uint256"
                    },
                    {
                      "internalType": "uint256",
                      "name": "endAmount",
                      "type": "uint256"
                    }
                  ],
                  "internalType": "struct OfferItem[]",
                  "name": "offer",
                  "type": "tuple[]"
                },
                {
                  "components": [
                    {
                      "internalType": "enum ItemType",
                      "name": "itemType",
                      "type": "uint8"
                    },
                    {
                      "internalType": "address",
                      "name": "token",
                      "type": "address"
                    },
                    {
                      "internalType": "uint256",
                      "name": "identifierOrCriteria",
                      "type": "uint256"
                    },
                    {
                      "internalType": "uint256",
                      "name": "startAmount",
                      "type": "uint256"
                    },
                    {
                      "internalType": "uint256",
                      "name": "endAmount",
                      "type": "uint256"
                    },
                    {
                      "internalType": "address payable",
                      "name": "recipient",
                      "type": "address"
                    }
                  ],
                  "internalType": "struct ConsiderationItem[]",
                  "name": "consideration",
                  "type": "tuple[]"
                },
                {
                  "internalType": "enum OrderType",
                  "name": "orderType",
                  "type": "uint8"
                },
                {
                  "internalType": "uint256",
                  "name": "startTime",
                  "type": "uint256"
                },
                {
                  "internalType": "uint256",
                  "name": "endTime",
                  "type": "uint256"
                },
                {
                  "internalType": "bytes32",
                  "name": "zoneHash",
                  "type": "bytes32"
                },
                {
                  "internalType": "uint256",
                  "name": "salt",
                  "type": "uint256"
                },
                {
                  "internalType": "bytes32",
                  "name": "conduitKey",
                  "type": "bytes32"
                },
                {
                  "internalType": "uint256",
                  "name": "totalOriginalConsiderationItems",
                  "type": "uint256"
                }
              ],
              "internalType": "struct OrderParameters",
              "name": "parameters",
              "type": "tuple"
            },
            {
              "internalType": "bytes",
              "name": "signature",
              "type": "bytes"
            }
          ],
          "internalType": "struct Order",
          "name": "order",
          "type": "tuple"
        },
        {
          "internalType": "bytes32",
          "name": "fulfillerConduitKey",
          "type": "bytes32"
        }
      ],
      "name": "fulfillOrder",
      "outputs": [
        {
          "internalType": "bool",
          "name": "fulfilled",
          "type": "bool"
        }
      ],
      "stateMutability": "payable",
      "type": "function"
    },
    {
      "inputs": [
        {
          "internalType": "address",
          "name": "offerer",
          "type": "address"
        }
      ],
      "name": "getCounter",
      "outputs": [
        {
          "internalType": "uint256",
          "name": "counter",
          "type": "uint256"
        }
      ],
      "stateMutability": "view",
      "type": "function"
    },
    {
      "inputs": [
        {
          "components": [
            {
              "internalType": "address",
              "name": "offerer",
              "type": "address"
            },
            {
              "internalType": "address",
              "name": "zone",
              "type": "address"
            },
            {
              "components": [
                {
                  "internalType": "enum ItemType",
                  "name": "itemType",
                  "type": "uint8"
                },
                {
                  "internalType": "address",
                  "name": "token",
                  "type": "address"
                },
                {
                  "internalType": "uint256",
                  "name": "identifierOrCriteria",
                  "type": "uint256"
                },
                {
                  "internalType": "uint256",
                  "name": "startAmount",
                  "type": "uint256"
                },
                {
                  "internalType": "uint256",
                  "name": "endAmount",
                  "type": "uint256"
                }
              ],
              "internalType": "struct OfferItem[]",
              "name": "offer",
              "type": "tuple[]"
            },
            {
              "components": [
                {
                  "internalType": "enum ItemType",
                  "name": "itemType",
                  "type": "uint8"
                },
                {
                  "internalType": "address",
                  "name": "token",
                  "type": "address"
                },
                {
                  "internalType": "uint256",
                  "name": "identifierOrCriteria",
                  "type": "uint256"
                },
                {
                  "internalType": "uint256",
                  "name": "startAmount",
                  "type": "uint256"
                },
                {
                  "internalType": "uint256",
                  "name": "endAmount",
                  "type": "uint256"
                },
                {
                  "internalType": "address payable",
                  "name": "recipient",
                  "type": "address"
                }
              ],
              "internalType": "struct ConsiderationItem[]",
              "name": "consideration",
              "type": "tuple[]"
            },
            {
              "internalType": "enum OrderType",
              "name": "orderType",
              "type": "uint8"
            },
            {
              "internalType": "uint256",
              "name": "startTime",
              "type": "uint256"
            },
            {
              "internalType": "uint256",
              "name": "endTime",
              "type": "uint256"
            },
            {
              "internalType": "bytes32",
              "name": "zoneHash",
              "type": "bytes32"
            },
            {
              "internalType": "uint256",
              "name": "salt",
              "type": "uint256"
            },
            {
              "internalType": "bytes32",
              "name": "conduitKey",
              "type": "bytes32"
            },
            {
              "internalType": "uint256",
              "name": "counter",
              "type": "uint256"
            }
          ],
          "internalType": "struct OrderComponents",
          "name": "order",
          "type": "tuple"
        }
      ],
      "name": "getOrderHash",
      "outputs": [
        {
          "internalType": "bytes32",
          "name": "orderHash",
          "type": "bytes32"
        }
      ],
      "stateMutability": "view",
      "type": "function"
    },
    {
      "inputs": [
        {
          "internalType": "bytes32",
          "name": "orderHash",
          "type": "bytes32"
        }
      ],
      "name": "getOrderStatus",
      "outputs": [
        {
          "internalType": "bool",
          "name": "isValidated",
          "type": "bool"
        },
        {
          "internalType": "bool",
          "name": "isCancelled",
          "type": "bool"
        },
        {
          "internalType": "uint256",
          "name": "totalFilled",
          "type": "uint256"
        },
        {
          "internalType": "uint256",
          "name": "totalSize",
          "type": "uint256"
        }
      ],
      "stateMutability": "view",
      "type": "function"
    },
    {
      "inputs": [],
      "name": "incrementCounter",
      "outputs": [
        {
          "internalType": "uint256",
          "name": "newCounter",
          "type": "uint256"
        }
      ],
      "stateMutability": "nonpayable",
      "type": "function"
    },
    {
      "inputs": [],
      "name": "information",
      "outputs": [
        {
          "internalType": "string",
          "name": "version",
          "type": "string"
        },
        {
          "internalType": "bytes32",
          "name": "domainSeparator",
          "type": "bytes32"
        },
        {
          "internalType": "address",
          "name": "conduitController",
          "type": "address"
        }
      ],
      "stateMutability": "view",
      "type": "function"
    },
    {
      "inputs": [
        {
          "components": [
            {
              "components": [
                {
                  "internalType": "address",
                  "name": "offerer",
                  "type": "address"
                },
                {
                  "internalType": "address",
                  "name": "zone",
                  "type": "address"
                },
                {
                  "components": [
                    {
                      "internalType": "enum ItemType",
                      "name": "itemType",
                      "type": "uint8"
                    },
                    {
                      "internalType": "address",
                      "name": "token",
                      "type": "address"
                    },
                    {
                      "internalType": "uint256",
                      "name": "identifierOrCriteria",
                      "type": "uint256"
                    },
                    {
                      "internalType": "uint256",
                      "name": "startAmount",
                      "type": "uint256"
                    },
                    {
                      "internalType": "uint256",
                      "name": "endAmount",
                      "type": "uint256"
                    }
                  ],
                  "internalType": "struct OfferItem[]",
                  "name": "offer",
                  "type": "tuple[]"
                },
                {
                  "components": [
                    {
                      "internalType": "enum ItemType",
                      "name": "itemType",
                      "type": "uint8"
                    },
                    {
                      "internalType": "address",
                      "name": "token",
                      "type": "address"
                    },
                    {
                      "internalType": "uint256",
                      "name": "identifierOrCriteria",
                      "type": "uint256"
                    },
                    {
                      "internalType": "uint256",
                      "name": "startAmount",
                      "type": "uint256"
                    },
                    {
                      "internalType": "uint256",
                      "name": "endAmount",
                      "type": "uint256"
                    },
                    {
                      "internalType": "address payable",
                      "name": "recipient",
                      "type": "address"
                    }
                  ],
                  "internalType": "struct ConsiderationItem[]",
                  "name": "consideration",
                  "type": "tuple[]"
                },
                {
                  "internalType": "enum OrderType",
                  "name": "orderType",
                  "type": "uint8"
                },
                {
                  "internalType": "uint256",
                  "name": "startTime",
                  "type": "uint256"
                },
                {
                  "internalType": "uint256",
                  "name": "endTime",
                  "type": "uint256"
                },
                {
                  "internalType": "bytes32",
                  "name": "zoneHash",
                  "type": "bytes32"
                },
                {
                  "internalType": "uint256",
                  "name": "salt",
                  "type": "uint256"
                },
                {
                  "internalType": "bytes32",
                  "name": "conduitKey",
                  "type": "bytes32"
                },
                {
                  "internalType": "uint256",
                  "name": "totalOriginalConsiderationItems",
                  "type": "uint256"
                }
              ],
              "internalType": "struct OrderParameters",
              "name": "parameters",
              "type": "tuple"
            },
            {
              "internalType": "uint120",
              "name": "numerator",
              "type": "uint120"
            },
            {
              "internalType": "uint120",
              "name": "denominator",
              "type": "uint120"
            },
            {
              "internalType": "bytes",
              "name": "signature",
              "type": "bytes"
            },
            {
              "internalType": "bytes",
              "name": "extraData",
              "type": "bytes"
            }
          ],
          "internalType": "struct AdvancedOrder[]",
          "name": "advancedOrders",
          "type": "tuple[]"
        },
        {
          "components": [
            {
              "internalType": "uint256",
              "name": "orderIndex",
              "type": "uint256"
            },
            {
              "internalType": "enum Side",
              "name": "side",
              "type": "uint8"
            },
            {
              "internalType": "uint256",
              "name": "index",
              "type": "uint256"
            },
            {
              "internalType": "uint256",
              "name": "identifier",
              "type": "uint256"
            },
            {
              "internalType": "bytes32[]",
              "name": "criteriaProof",
              "type": "bytes32[]"
            }
          ],
          "internalType": "struct CriteriaResolver[]",
          "name": "criteriaResolvers",
          "type": "tuple[]"
        },
        {
          "components": [
            {
              "components": [
                {
                  "internalType": "uint256",
                  "name": "orderIndex",
                  "type": "uint256"
                },
                {
                  "internalType": "uint256",
                  "name": "itemIndex",
                  "type": "uint256"
                }
              ],
              "internalType": "struct FulfillmentComponent[]",
              "name": "offerComponents",
              "type": "tuple[]"
            },
            {
              "components": [
                {
                  "internalType": "uint256",
                  "name": "orderIndex",
                  "type": "uint256"
                },
                {
                  "internalType": "uint256",
                  "name": "itemIndex",
                  "type": "uint256"
                }
              ],
              "internalType": "struct FulfillmentComponent[]",
              "name": "considerationComponents",
              "type": "tuple[]"
            }
          ],
          "internalType": "struct Fulfillment[]",
          "name": "fulfillments",
          "type": "tuple[]"
        }
      ],
      "name": "matchAdvancedOrders",
      "outputs": [
        {
          "components": [
            {
              "components": [
                {
                  "internalType": "enum ItemType",
                  "name": "itemType",
                  "type": "uint8"
                },
                {
                  "internalType": "address",
                  "name": "token",
                  "type": "address"
                },
                {
                  "internalType": "uint256",
                  "name": "identifier",
                  "type": "uint256"
                },
                {
                  "internalType": "uint256",
                  "name": "amount",
                  "type": "uint256"
                },
                {
                  "internalType": "address payable",
                  "name": "recipient",
                  "type": "address"
                }
              ],
              "internalType": "struct ReceivedItem",
              "name": "item",
              "type": "tuple"
            },
            {
              "internalType": "address",
              "name": "offerer",
              "type": "address"
            },
            {
              "internalType": "bytes32",
              "name": "conduitKey",
              "type": "bytes32"
            }
          ],
          "internalType": "struct Execution[]",
          "name": "executions",
          "type": "tuple[]"
        }
      ],
      "stateMutability": "payable",
      "type": "function"
    },
    {
      "inputs": [
        {
          "components": [
            {
              "components": [
                {
                  "internalType": "address",
                  "name": "offerer",
                  "type": "address"
                },
                {
                  "internalType": "address",
                  "name": "zone",
                  "type": "address"
                },
                {
                  "components": [
                    {
                      "internalType": "enum ItemType",
                      "name": "itemType",
                      "type": "uint8"
                    },
                    {
                      "internalType": "address",
                      "name": "token",
                      "type": "address"
                    },
                    {
                      "internalType": "uint256",
                      "name": "identifierOrCriteria",
                      "type": "uint256"
                    },
                    {
                      "internalType": "uint256",
                      "name": "startAmount",
                      "type": "uint256"
                    },
                    {
                      "internalType": "uint256",
                      "name": "endAmount",
                      "type": "uint256"
                    }
                  ],
                  "internalType": "struct OfferItem[]",
                  "name": "offer",
                  "type": "tuple[]"
                },
                {
                  "components": [
                    {
                      "internalType": "enum ItemType",
                      "name": "itemType",
                      "type": "uint8"
                    },
                    {
                      "internalType": "address",
                      "name": "token",
                      "type": "address"
                    },
                    {
                      "internalType": "uint256",
                      "name": "identifierOrCriteria",
                      "type": "uint256"
                    },
                    {
                      "internalType": "uint256",
                      "name": "startAmount",
                      "type": "uint256"
                    },
                    {
                      "internalType": "uint256",
                      "name": "endAmount",
                      "type": "uint256"
                    },
                    {
                      "internalType": "address payable",
                      "name": "recipient",
                      "type": "address"
                    }
                  ],
                  "internalType": "struct ConsiderationItem[]",
                  "name": "consideration",
                  "type": "tuple[]"
                },
                {
                  "internalType": "enum OrderType",
                  "name": "orderType",
                  "type": "uint8"
                },
                {
                  "internalType": "uint256",
                  "name": "startTime",
                  "type": "uint256"
                },
                {
                  "internalType": "uint256",
                  "name": "endTime",
                  "type": "uint256"
                },
                {
                  "internalType": "bytes32",
                  "name": "zoneHash",
                  "type": "bytes32"
                },
                {
                  "internalType": "uint256",
                  "name": "salt",
                  "type": "uint256"
                },
                {
                  "internalType": "bytes32",
                  "name": "conduitKey",
                  "type": "bytes32"
                },
                {
                  "internalType": "uint256",
                  "name": "totalOriginalConsiderationItems",
                  "type": "uint256"
                }
              ],
              "internalType": "struct OrderParameters",
              "name": "parameters",
              "type": "tuple"
            },
            {
              "internalType": "bytes",
              "name": "signature",
              "type": "bytes"
            }
          ],
          "internalType": "struct Order[]",
          "name": "orders",
          "type": "tuple[]"
        },
        {
          "components": [
            {
              "components": [
                {
                  "internalType": "uint256",
                  "name": "orderIndex",
                  "type": "uint256"
                },
                {
                  "internalType": "uint256",
                  "name": "itemIndex",
                  "type": "uint256"
                }
              ],
              "internalType": "struct FulfillmentComponent[]",
              "name": "offerComponents",
              "type": "tuple[]"
            },
            {
              "components": [
                {
                  "internalType": "uint256",
                  "name": "orderIndex",
                  "type": "uint256"
                },
                {
                  "internalType": "uint256",
                  "name": "itemIndex",
                  "type": "uint256"
                }
              ],
              "internalType": "struct FulfillmentComponent[]",
              "name": "considerationComponents",
              "type": "tuple[]"
            }
          ],
          "internalType": "struct Fulfillment[]",
          "name": "fulfillments",
          "type": "tuple[]"
        }
      ],
      "name": "matchOrders",
      "outputs": [
        {
          "components": [
            {
              "components": [
                {
                  "internalType": "enum ItemType",
                  "name": "itemType",
                  "type": "uint8"
                },
                {
                  "internalType": "address",
                  "name": "token",
                  "type": "address"
                },
                {
                  "internalType": "uint256",
                  "name": "identifier",
                  "type": "uint256"
                },
                {
                  "internalType": "uint256",
                  "name": "amount",
                  "type": "uint256"
                },
                {
                  "internalType": "address payable",
                  "name": "recipient",
                  "type": "address"
                }
              ],
              "internalType": "struct ReceivedItem",
              "name": "item",
              "type": "tuple"
            },
            {
              "internalType": "address",
              "name": "offerer",
              "type": "address"
            },
            {
              "internalType": "bytes32",
              "name": "conduitKey",
              "type": "bytes32"
            }
          ],
          "internalType": "struct Execution[]",
          "name": "executions",
          "type": "tuple[]"
        }
      ],
      "stateMutability": "payable",
      "type": "function"
    },
    {
      "inputs": [],
      "name": "name",
      "outputs": [
        {
          "internalType": "string",
          "name": "contractName",
          "type": "string"
        }
      ],
      "stateMutability": "pure",
      "type": "function"
    },
    {
      "inputs": [
        {
          "components": [
            {
              "components": [
                {
                  "internalType": "address",
                  "name": "offerer",
                  "type": "address"
                },
                {
                  "internalType": "address",
                  "name": "zone",
                  "type": "address"
                },
                {
                  "components": [
                    {
                      "internalType": "enum ItemType",
                      "name": "itemType",
                      "type": "uint8"
                    },
                    {
                      "internalType": "address",
                      "name": "token",
                      "type": "address"
                    },
                    {
                      "internalType": "uint256",
                      "name": "identifierOrCriteria",
                      "type": "uint256"
                    },
                    {
                      "internalType": "uint256",
                      "name": "startAmount",
                      "type": "uint256"
                    },
                    {
                      "internalType": "uint256",
                      "name": "endAmount",
                      "type": "uint256"
                    }
                  ],
                  "internalType": "struct OfferItem[]",
                  "name": "offer",
                  "type": "tuple[]"
                },
                {
                  "components": [
                    {
                      "internalType": "enum ItemType",
                      "name": "itemType",
                      "type": "uint8"
                    },
                    {
                      "internalType": "address",
                      "name": "token",
                      "type": "address"
                    },
                    {
                      "internalType": "uint256",
                      "name": "identifierOrCriteria",
                      "type": "uint256"
                    },
                    {
                      "internalType": "uint256",
                      "name": "startAmount",
                      "type": "uint256"
                    },
                    {
                      "internalType": "uint256",
                      "name": "endAmount",
                      "type": "uint256"
                    },
                    {
                      "internalType": "address payable",
                      "name": "recipient",
                      "type": "address"
                    }
                  ],
                  "internalType": "struct ConsiderationItem[]",
                  "name": "consideration",
                  "type": "tuple[]"
                },
                {
                  "internalType": "enum OrderType",
                  "name": "orderType",
                  "type": "uint8"
                },
                {
                  "internalType": "uint256",
                  "name": "startTime",
                  "type": "uint256"
                },
                {
                  "internalType": "uint256",
                  "name": "endTime",
                  "type": "uint256"
                },
                {
                  "internalType": "bytes32",
                  "name": "zoneHash",
                  "type": "bytes32"
                },
                {
                  "internalType": "uint256",
                  "name": "salt",
                  "type": "uint256"
                },
                {
                  "internalType": "bytes32",
                  "name": "conduitKey",
                  "type": "bytes32"
                },
                {
                  "internalType": "uint256",
                  "name": "totalOriginalConsiderationItems",
                  "type": "uint256"
                }
              ],
              "internalType": "struct OrderParameters",
              "name": "parameters",
              "type": "tuple"
            },
            {
              "internalType": "bytes",
              "name": "signature",
              "type": "bytes"
            }
          ],
          "internalType": "struct Order[]",
          "name": "orders",
          "type": "tuple[]"
        }
      ],
      "name": "validate",
      "outputs": [
        {
          "internalType": "bool",
          "name": "validated",
          "type": "bool"
        }
      ],
      "stateMutability": "nonpayable",
      "type": "function"
    }
  ],
  "bytecode": "0x6101c06040523480156200001257600080fd5b5060405162006077380380620060778339810160408190526200003591620005ca565b8080808080808080806200004862000130565b610120526101005260e05260c081815260a0838152608085815246610140819052604080516020818101979097528082019890985260608801969096529086015230858201528351808603909101815293019091528151910120610160526001600160a01b03811661018081905260408051630a96ad3960e01b81528151630a96ad39926004808401939192918290030181865afa158015620000ef573d6000803e3d6000fd5b505050506040513d601f19601f82011682018060405250810190620001159190620005fc565b506101a0525050600160005550620006809650505050505050565b600080808080806200016260408051808201909152600d81526c21b7b739b4b232b930ba34b7b760991b602082015290565b80516020918201206040805180820182526003815262312e3160e81b90840152519097507f722c0e0c80487266e8c6a45e3a1a803aab23378a9c32e6ebe029d4fad7bfc96596506000916200026791016909ecccccae492e8cada560b31b81526e1d5a5b9d0e081a5d195b551e5c194b608a1b600a8201526d1859191c995cdcc81d1bdad95b8b60921b60198201527f75696e74323536206964656e7469666965724f7243726974657269612c00000060278201527f75696e74323536207374617274416d6f756e742c0000000000000000000000006044820152701d5a5b9d0c8d4d88195b99105b5bdd5b9d607a1b6058820152602960f81b6069820152606a0190565b60408051601f1981840301815282825271086dedce6d2c8cae4c2e8d2dedc92e8cada560731b60208401526e1d5a5b9d0e081a5d195b551e5c194b608a1b60328401526d1859191c995cdcc81d1bdad95b8b60921b60418401527f75696e74323536206964656e7469666965724f7243726974657269612c000000604f8401527f75696e74323536207374617274416d6f756e742c000000000000000000000000606c840152711d5a5b9d0c8d4d88195b99105b5bdd5b9d0b60721b6080840152701859191c995cdcc81c9958da5c1a595b9d607a1b6092840152602960f81b60a384018190528251808503608401815260a485019093526f09ee4c8cae486dedae0dedccadce8e6560831b60c48501526f1859191c995cdcc81bd999995c995c8b60821b60d48501526c1859191c995cdcc81e9bdb994b609a1b60e48501527113d999995c925d195b56d7481bd999995c8b60721b60f18501527f436f6e73696465726174696f6e4974656d5b5d20636f6e73696465726174696f610103850152611b8b60f21b6101238501526f1d5a5b9d0e081bdc99195c951e5c194b60821b610125850152711d5a5b9d0c8d4d881cdd185c9d151a5b594b60721b6101358501526f1d5a5b9d0c8d4d88195b99151a5b594b60821b61014785015270189e5d195ccccc881e9bdb9952185cda0b607a1b6101578501526c1d5a5b9d0c8d4d881cd85b1d0b609a1b6101688501527f6279746573333220636f6e647569744b65792c000000000000000000000000006101758501526e3ab4b73a191a9b1031b7bab73a32b960891b6101888501526101978401529250906000906101980160408051601f19818403018152908290526c08a92a06e626488dedac2d2dc5609b1b60208301526b1cdd1c9a5b99c81b985b594b60a21b602d8301526e1cdd1c9a5b99c81d995c9cda5bdb8b608a1b60398301526f1d5a5b9d0c8d4d8818da185a5b92590b60821b60488301527f6164647265737320766572696679696e67436f6e7472616374000000000000006058830152602960f81b6071830152915060720160408051601f19818403018152908290528051602091820120855186830120855186840120919a5098509650620005a7918391859187910162000653565b604051602081830303815290604052805190602001209350505050909192939495565b600060208284031215620005dd57600080fd5b81516001600160a01b0381168114620005f557600080fd5b9392505050565b600080604083850312156200061057600080fd5b505080516020909101519092909150565b6000815160005b8181101562000644576020818501810151868301520162000628565b50600093019283525090919050565b6000620006776200067062000669848862000621565b8662000621565b8462000621565b95945050505050565b60805160a05160c05160e05161010051610120516101405161016051610180516101a05161595f620007186000396000613a31015260008181610d2801526139ef01526000612558015260006124880152600081816108b6015261276601526000818161084501526125c40152600081816107de01526126df015260006124b601526000612504015260006124dc015261595f6000f3fe6080604052600436106100e85760003560e01c8063a81744041161008a578063f07ec37311610059578063f07ec37314610290578063f47b7740146102b0578063fb0f3ee1146102d4578063fd9f1e10146102e757600080fd5b8063a817440414610244578063b3a34c4c14610257578063e7acab241461026a578063ed98a5741461027d57600080fd5b80635b34b966116100c65780635b34b966146101b057806379df72bd146101d357806387201b41146101f3578063881477321461021457600080fd5b806306fdde03146100ed57806346423aa71461011857806355944a4214610190575b600080fd5b3480156100f957600080fd5b50610102610307565b60405161010f91906144cf565b60405180910390f35b34801561012457600080fd5b5061016e6101333660046144e2565b60009081526002602052604090205460ff808216926101008304909116916001600160781b03620100008204811692600160881b9092041690565b604080519415158552921515602085015291830152606082015260800161010f565b6101a361019e366004614abb565b610316565b60405161010f9190614c21565b3480156101bc57600080fd5b506101c5610339565b60405190815260200161010f565b3480156101df57600080fd5b506101c56101ee366004614c34565b610343565b610206610201366004614c70565b6104da565b60405161010f929190614d51565b34801561022057600080fd5b5061023461022f366004614daa565b610520565b604051901515815260200161010f565b6101a3610252366004614dec565b610533565b610234610265366004614e58565b6105b1565b610234610278366004614ea2565b610623565b61020661028b366004614f32565b610657565b34801561029c57600080fd5b506101c56102ab366004614fdb565b6106e1565b3480156102bc57600080fd5b506102c56106ff565b60405161010f93929190614ff8565b6102346102e236600461502a565b610717565b3480156102f357600080fd5b50610234610302366004614daa565b610722565b606061031161072e565b905090565b606061032d866103268688615066565b858561074c565b90505b95945050505050565b6000610311610769565b6040805161016081019091526000906104d490806103646020860186614fdb565b6001600160a01b031681526020018460200160208101906103859190614fdb565b6001600160a01b031681526020016103a0604086018661519b565b808060200260200160405190810160405280939291908181526020016000905b828210156103ec576103dd60a083028601368190038101906151e4565b815260200190600101906103c0565b50505091835250506020016104046060860186615200565b808060200260200160405190810160405280939291908181526020016000905b828210156104505761044160c08302860136819003810190615249565b81526020019060010190610424565b505050918352505060200161046b60a0860160808701615265565b600381111561047c5761047c614b50565b81526020018460a0013581526020018460c0013581526020018460e001358152602001846101000135815260200184610120013581526020018480606001906104c59190615200565b909152506101408401356107c6565b92915050565b60608061050d8c6104eb8c8e615066565b8b8b8b8b8b6001600160a01b038c1615610505578b610507565b335b8b61090c565b915091509a509a98505050505050505050565b600061052c838361094e565b9392505050565b60606105a66105428686610ab3565b604080516000808252602082019092529061059e565b61058b6040805160a081019091526000808252602082019081526020016000815260200160008152602001606081525090565b8152602001906001900390816105585790505b50858561074c565b90505b949350505050565b600061052c6105bf84610b6f565b604080516000808252602082019092529061061b565b6106086040805160a081019091526000808252602082019081526020016000815260200160008152602001606081525090565b8152602001906001900390816105d55790505b508433610c1a565b600061032d61063187615280565b61063b8688615066565b856001600160a01b038616156106515785610c1a565b33610c1a565b6060806106d06106678b8b610ab3565b60408051600080825260208201909252906106c3565b6106b06040805160a081019091526000808252602082019081526020016000815260200160008152602001606081525090565b81526020019060019003908161067d5790505b508a8a8a8a8a338b61090c565b915091509850989650505050505050565b6001600160a01b0381166000908152600160205260408120546104d4565b606060008061070c610d07565b925092509250909192565b60006104d482610d82565b600061052c838361105b565b6060602080526d0d436f6e73696465726174696f6e604d5260606020f35b606061075e858560018851600061127a565b6105a68584846115ba565b600061077361171b565b503360008181526001602081815260409283902080549092019182905591518181529092917f721c20121297512b72821b97f5326877ea8ecf4bb9948fea5bfcb6453074d37f910160405180910390a290565b610140820151604080519084015180516000939284927f000000000000000000000000000000000000000000000000000000000000000092602090910190845b81811015610833578251601f1901805186825260c082208652905260209384019390920191600101610806565b506020810260405120945050505060007f00000000000000000000000000000000000000000000000000000000000000009150604051602060608901510160005b868110156108a1578151601f1901805186825260e082208552905260209283019290910190600101610874565b505060408051602087029020601f198a0180517f00000000000000000000000000000000000000000000000000000000000000008252928b01805197815260608c018051938152610140909c019a8b5261018082209390915295909552939097525050925250919050565b60608061091d8b8b6000868861127a565b61093c8b61092b8a8c6152db565b610935898b6152db565b8888611759565b909c909b509950505050505050505050565b600061095861171b565b6000808084815b81811015610aa5573688888381811061097a5761097a6153ae565b905060200281019061098c91906153c4565b90503661099982806153e4565b90506109a86020820182614fdb565b94506109bb6109b6826153fb565b611988565b600081815260026020526040812098509096506109dd908790899060016119c3565b50865460ff16610a9b57610a3385876109f96020860186615407565b8080601f016020809104026020016040519081016040528093929190818152602001838380828437600092019190915250611ad392505050565b865460ff19166001178755610a4e6040820160208301614fdb565b6001600160a01b0316856001600160a01b03167ffde361574a066b44b3b5fe98a87108b7565e327327954c4faeea56a4e6491a0a88604051610a9291815260200190565b60405180910390a35b505060010161095f565b506001979650505050505050565b6060818067ffffffffffffffff811115610acf57610acf6144fb565b604051908082528060200260200182016040528015610b0857816020015b610af56143d8565b815260200190600190039081610aed5790505b50915060005b81811015610b6757610b42858583818110610b2b57610b2b6153ae565b9050602002810190610b3d91906153c4565b610b6f565b838281518110610b5457610b546153ae565b6020908102919091010152600101610b0e565b505092915050565b610b776143d8565b6040805160a0810190915280610b8d84806153e4565b610b96906153fb565b815260200160016001600160781b0316815260200160016001600160781b03168152602001838060200190610bcb9190615407565b8080601f01602080910402602001604051908101604052809392919081815260200183838082843760009201829052509385525050604080516020818101909252928352909201525092915050565b6000610c24611b43565b60606000806000610c388989600187611b52565b604080516001808252818301909252939650919450925060009190816020015b610c606143d8565b815260200190600190039081610c585790505090508981600081518110610c8957610c896153ae565b6020026020010181905250610c9e818a611e65565b600081600081518110610cb357610cb36153ae565b6020026020010151600001519050610cce8185858c8c612251565b610cec85826000015183602001518b8560400151866060015161241f565b610cf66001600055565b5060019a9950505050505050505050565b6060600080610d14612484565b6040805160038082528183019092529193507f0000000000000000000000000000000000000000000000000000000000000000925060208201818036833750507f312e3100000000000000000000000000000000000000000000000000000000006020830152509391925090565b600061012435600281901c90600316600182113415811480610dd7576040517fa61be9f00000000000000000000000000000000000000000000000000000000081523460048201526024015b60405180910390fd5b5060008060008060038711915060a082026024013593506002871460028811600289030201905060018101820260028615028801039250610e1c89878388888861257a565b506101c46020820201356000856005811115610e3a57610e3a614b50565b03610edd5760208901803590610e50908b614fdb565b6001600160a01b03161715610e7857604051636ab37ce760e01b815260040160405180910390fd5b610ead83610e8c60c08c0160a08d01614fdb565b610e9c60808d0160608e01614fdb565b338d60c001358e60e00135876128b0565b610ed860408a0135610ec560808c0160608d01614fdb565b610ed36102008d018d61544e565b612964565b611042565b6040805160208082528183019092526000916020820181803683370190505090506002886005811115610f1257610f12614b50565b03610f5157610f4c610f2a60c08c0160a08d01614fdb565b610f3a60808d0160608e01614fdb565b338d60c001358e60e001358787612a1f565b61101c565b6003886005811115610f6557610f65614b50565b03610f9f57610f4c610f7d60c08c0160a08d01614fdb565b610f8d60808d0160608e01614fdb565b338d60c001358e60e001358787612a6c565b6004886005811115610fb357610fb3614b50565b03610fea57610f4c610fc860208c018c614fdb565b33610fd960808e0160608f01614fdb565b8d602001358e604001358787612a1f565b61101c610ffa60208c018c614fdb565b3361100b60808e0160608f01614fdb565b8d602001358e604001358787612a6c565b61103761102f60808c0160608d01614fdb565b8b8584612aa2565b61104081612bc3565b505b61104c6001600055565b50600198975050505050505050565b600061106561171b565b6000808084815b81811015610aa55736888883818110611087576110876153ae565b905060200281019061109991906153e4565b90506110a86020820182614fdb565b94506110ba6040820160208301614fdb565b9350336001600160a01b038616148015906110de5750336001600160a01b03851614155b15611115576040517f80ec737400000000000000000000000000000000000000000000000000000000815260040160405180910390fd5b6000611204604051806101600160405280886001600160a01b03168152602001876001600160a01b03168152602001848060400190611154919061519b565b808060200260200160405190810160405280939291908181526020016000905b828210156111a05761119160a083028601368190038101906151e4565b81526020019060010190611174565b50505091835250506020016111b86060860186615200565b808060200260200160405190810160405280939291908181526020016000905b82821015610450576111f560c08302860136819003810190615249565b815260200190600101906111d8565b60008181526002602052604090819020805461ffff191661010017815590519098509091506001600160a01b0380871691908816907f6bacc01dbe442496068f7d234edd811f1a5f833243e0aec824f86ab861f3c90d906112689085815260200190565b60405180910390a3505060010161106c565b611282611b43565b845160008167ffffffffffffffff81111561129f5761129f6144fb565b6040519080825280602002602001820160405280156112c8578160200160208202803683370190505b506000808252909150601d6045823560e01c061160011b905b838110156114f15760008982815181106112fd576112fd6153ae565b60200260200101519050866000036113225760006020909101526001810183526114e9565b6000806000611333848d8d8a611b52565b9250925092506001850187528160000361135a5750506000602090920191909152506114e9565b8287868151811061136d5761136d6153ae565b6020908102919091010152835160a081015160c08201516040909201518051600019909d019c91929160005b818110156114355760008382815181106113b5576113b56153ae565b602002602001015190508051158c179b5060006113d789898460800151612bec565b905081608001518260600151036113f45760608201819052611409565b61140389898460600151612bec565b60608301525b608082018190526060820151611423908289896000612c47565b60609092019190915250600101611399565b50875160600151805160005b818110156114dd57600083828151811061145d5761145d6153ae565b6020026020010151905060006114788b8b8460800151612bec565b9050816080015182606001510361149557606082018190526114aa565b6114a48b8b8460600151612bec565b60608301525b6080820181905260608201516114c490828b8b6001612c47565b60608301525060a0810151608090910152600101611441565b50505050505050505050505b6001016112e1565b5080600303611513576040516312d3f5a360e01b815260040160405180910390fd5b61151d8888611e65565b60005b838110156115af576000801b83828151811061153e5761153e6153ae565b602002602001015103156115a7576000898281518110611560576115606153ae565b60200260200101516000015190506115a5848381518110611583576115836153ae565b602002602001015182600001518360200151898560400151866060015161241f565b505b600101611520565b505050505050505050565b6060818067ffffffffffffffff8111156115d6576115d66144fb565b60405190808252806020026020018201604052801561164457816020015b60408051610100810182526000606082018181526080830182905260a0830182905260c0830182905260e08301829052825260208083018290529282015282526000199092019101816115f45790505b5091506000805b828110156116f95736868683818110611666576116666153ae565b905060200281019061167891906153c4565b9050600061169c8961168a848061544e565b611697602087018761544e565b612c9c565b905080602001516001600160a01b03168160000151608001516001600160a01b0316036116ce578360010193506116ef565b8086858503815181106116e3576116e36153ae565b60200260200101819052505b505060010161164b565b508015611707578083510383525b506117128583613023565b50509392505050565b600160005414611757576040517f7fa8a98700000000000000000000000000000000000000000000000000000000815260040160405180910390fd5b565b83518351606091829161176c8183615498565b67ffffffffffffffff811115611784576117846144fb565b6040519080825280602002602001820160405280156117f257816020015b60408051610100810182526000606082018181526080830182905260a0830182905260c0830182905260e08301829052825260208083018290529282015282526000199092019101816117a25790505b5092506000805b8381101561188c5760008a8281518110611815576118156153ae565b60200260200101519050600061182f8d6000848d8d613257565b905080602001516001600160a01b03168160000151608001516001600160a01b03160361186157836001019350611882565b808785850381518110611876576118766153ae565b60200260200101819052505b50506001016117f9565b5060005b828110156119265760008982815181106118ac576118ac6153ae565b6020026020010151905060006118c78d6001848d6000613257565b905080602001516001600160a01b03168160000151608001516001600160a01b0316036118f95783600101935061191c565b8087858886010381518110611910576119106153ae565b60200260200101819052505b5050600101611890565b508015611934578084510384525b508251600003611970576040517fd5da9a1b00000000000000000000000000000000000000000000000000000000815260040160405180910390fd5b61197a8984613023565b935050509550959350505050565b600061199e82606001515183610140015161334d565b81516001600160a01b03166000908152600160205260409020546104d49083906107c6565b8254600090610100900460ff1615611a18578115611a10576040517f1a51557400000000000000000000000000000000000000000000000000000000815260048101869052602401610dce565b5060006105a9565b83546201000090046001600160781b03168015611ac7578315611a6a576040517fee9e0e6300000000000000000000000000000000000000000000000000000000815260048101879052602401610dce565b8454600160881b90046001600160781b03168110611ac7578215611abd576040517f10fda3e100000000000000000000000000000000000000000000000000000000815260048101879052602401610dce565b60009150506105a9565b50600195945050505050565b336001600160a01b03841603611ae857505050565b6000611b30611af5612484565b7f1901000000000000000000000000000000000000000000000000000000000000600090815260029190915260228581526042822091905290565b9050611b3d848284613387565b50505050565b611b4b61171b565b6002600055565b60008060008087600001519050611b728160a001518260c001518861353c565b611b86575060009250829150819050611e5b565b602088015160408901516001600160781b03918216911680821180611ba9575081155b15611be0576040517f5a052b3200000000000000000000000000000000000000000000000000000000815260040160405180910390fd5b8082108015611bf457506080830151600116155b15611c2b576040517fa11b63ff00000000000000000000000000000000000000000000000000000000815260040160405180910390fd5b611c3483611988565b9550611c568a8a89898760e00151886080015189600001518a6020015161359b565b600086815260026020526040812090611c7390889083908c6119c3565b611c88575060009450849350611e5b92505050565b805460ff16611ca457611ca48460000151888d60600151611ad3565b80546001600160781b03620100008204811691600160881b9004168015611e015783600103611cd857809450809350611d04565b838114611d0457611ce984836154ab565b9150611cf581866154ab565b9450611d0181856154ab565b93505b83611d0f8684615498565b1115611d1b5781840394505b611d258583615498565b91506001600160781b0384116001600160781b0383111715611dae57611d60565b60005b8215611d5a57908290069190611d49565b50919050565b611d73611d6d8584611d46565b86611d46565b80150194859004949384900493909104906001600160781b038083119085111715611dae57634e487b7160e01b600052601160045260246000fd5b82546001600160781b03858116600160881b0270ffffffffffffffffffffffffffffffffff918516620100000270ffffffffffffffffffffffffffffffffff199093169290921760011716178355611e50565b82546001600160781b03858116600160881b0270ffffffffffffffffffffffffffffffffff918816620100000270ffffffffffffffffffffffffffffffffff1990931692909217600117161783555b509295509093505050505b9450945094915050565b8051825160005b82811015612110576000848281518110611e8857611e886153ae565b60200260200101519050600081600001519050838110611ed4576040517f869586c400000000000000000000000000000000000000000000000000000000815260040160405180910390fd5b868181518110611ee657611ee66153ae565b6020026020010151602001516001600160781b0316600003611f09575050612108565b6000878281518110611f1d57611f1d6153ae565b60209081029190910101515160408401519091506000808086602001516001811115611f4b57611f4b614b50565b03611ffe57604084015180518410611f8f576040517fbfb3f8ce00000000000000000000000000000000000000000000000000000000815260040160405180910390fd5b6000818581518110611fa357611fa36153ae565b602090810291909101015180516040820151909550935090506004841460030381816005811115611fd657611fd6614b50565b90816005811115611fe957611fe9614b50565b905250506060880151604090910152506120a8565b60608401518051841061203d576040517f6088d7de00000000000000000000000000000000000000000000000000000000815260040160405180910390fd5b6000818581518110612051576120516153ae565b60209081029190910101518051604082015190955093509050600484146003038181600581111561208457612084614b50565b9081600581111561209757612097614b50565b905250506060880151604090910152505b6120b28260031090565b6120e8576040517f94eb6af600000000000000000000000000000000000000000000000000000000815260040160405180910390fd5b80156121015761210186606001518288608001516136a8565b5050505050505b600101611e6c565b5060005b8181101561224a576000858281518110612130576121306153ae565b6020026020010151905080602001516001600160781b03166000036121555750612242565b805160608101515160005b818110156121d25761219383606001518281518110612181576121816153ae565b60200260200101516000015160031090565b156121ca576040517fff75a34000000000000000000000000000000000000000000000000000000000815260040160405180910390fd5b600101612160565b505060408101515160005b8181101561223d576121fe83604001518281518110612181576121816153ae565b15612235576040517fa6cfc67300000000000000000000000000000000000000000000000000000000815260040160405180910390fd5b6001016121dd565b505050505b600101612114565b5050505050565b60a085015160c08601516040805160208082528183019092526000916020820181803683375050506040890151519091506137249060005b8181101561233f5760008b6040015182815181106122a9576122a96153ae565b60200260200101519050600060058111156122c6576122c6614b50565b815160058111156122d9576122d9614b50565b036122f7576040516312d3f5a360e01b815260040160405180910390fd5b6000612311826060015183608001518e8e8c8c6000613836565b606083015250608081018890528b516101208d01516123369183918863ffffffff8916565b50600101612289565b50505060608801515134906137249060005b818110156124035760008c606001518281518110612371576123716153ae565b602002602001015190506000612395826060015183608001518f8f8d8d6001613836565b6060830181905260a0830151608084015290506000825160058111156123bd576123bd614b50565b036123e957858111156123e357604051631a783b8d60e01b815260040160405180910390fd5b80860395505b6123f982338d8a8963ffffffff16565b5050600101612351565b50505061240f82612bc3565b80156115af576115af3382613880565b60608290506060829050856001600160a01b0316876001600160a01b03167f9d9af8e38d66c62e2c12f0225249fd9d721c54b83f48d9352c97c6cacdcb6f318a88868660405161247294939291906154fc565b60405180910390a35050505050505050565b60007f0000000000000000000000000000000000000000000000000000000000000000461461255557610311604080517f000000000000000000000000000000000000000000000000000000000000000060208201527f0000000000000000000000000000000000000000000000000000000000000000918101919091527f000000000000000000000000000000000000000000000000000000000000000060608201524660808201523060a082015260009060c00160405160208183030381529060405280519060200120905090565b507f000000000000000000000000000000000000000000000000000000000000000090565b612582611b43565b612598866101200135876101400135600161353c565b506125a16138ed565b6125bf6125b261020088018861544e565b9050876101e0013561334d565b6000807f00000000000000000000000000000000000000000000000000000000000000009050806080528560a0526060602460c037604060646101203760e06080206101605261026435602081026102a0016001610264350181526020810190508781526080602460208301376101608760a0528660c052600060e05261020435925060005b83811015612690578060400261028401602081610100376040816101203760208301925060e0608020835260a084019350898452886020850152604081606086013750600101612645565b60206001850102610160206060526102643593505b838110156126d6578060400261028401915060a08301925088835287602084015260408260608501376001016126a5565b505050505060007f00000000000000000000000000000000000000000000000000000000000000009050806080528260a052606060c460c03760206101046101203760c0608020600052602060002060e052602061026435026102000160018152836020820152606060c4604083013750506084356001600160a01b0381166000908152600160205260408120547f000000000000000000000000000000000000000000000000000000000000000060808190529091506040608460a03760605161010052886101205260a061014461014037816101e0526101806080209350505050602061026435026101800181815233602082015260806040820152610120606082015260a061026435026101e00160a4356084357f9d9af8e38d66c62e2c12f0225249fd9d721c54b83f48d9352c97c6cacdcb6f318385a35050600060605261284b81886101600135888a60600160208101906128369190614fdb565b61284660a08d0160808e01614fdb565b61394f565b6128a78161285f60808a0160608b01614fdb565b61286d6102208b018b615407565b8080601f01602080910402602001604051908101604052809392919081815260200183838082843760009201919091525061399f92505050565b50505050505050565b801561290c5760006040519050632671a55160e11b815260206004820152600160248201528760448201528660648201528560848201528460a48201528360c48201528260e482015261290682826101046139e9565b506128a7565b600287600581111561292057612920614b50565b0361295757816001146129465760405163efcc00b160e01b815260040160405180910390fd5b61295286868686613b3d565b6128a7565b6128a78686868686613c01565b348160005b818110156129d75736858583818110612984576129846153ae565b604002919091019150508035848111156129b157604051631a783b8d60e01b815260040160405180910390fd5b6129ca6129c46040840160208501614fdb565b82613880565b9093039250600101612969565b50818611156129f957604051631a783b8d60e01b815260040160405180910390fd5b612a038587613880565b85821115612a1757612a1733878403613880565b505050505050565b612a298183613d01565b81612a5b5782600114612a4f5760405163efcc00b160e01b815260040160405180910390fd5b61295287878787613b3d565b6128a7828260028a8a8a8a8a613d20565b612a7583613da0565b612a7f8183613d01565b81612a91576129528787878787613c01565b6128a7828260038a8a8a8a8a613d20565b60008060008060008615612ad957889450339350612ac660c0890160a08a01614fdb565b9250505060e086013560c0870135612afb565b339450889350612aec6020890189614fdb565b92505050604086013560208701355b8015612b1a57604051636ab37ce760e01b815260040160405180910390fd5b50602086026101e403356000612b346102008a018a61544e565b9050905060005b81811015612ba85736612b526102008c018c61544e565b83818110612b6257612b626153ae565b6040029190910191505080358a15612b8157612b7e8187615597565b95505b612b9e878a612b966040860160208701614fdb565b84898f613dc1565b5050600101612b3b565b50612bb784878786868c613dc1565b50505050505050505050565b6040815114612bcf5750565b6000612bdc826020015190565b9050612be88183613dfc565b5050565b6000828403612bfc57508061052c565b8284830915612c2f577fc63cf0890000000000000000000000000000000000000000000000000000000060005260046000fd5b6000612c3b85846154ab565b93909304949350505050565b6000848614612c9257838303428590038082036000612c66838a6154ab565b612c70838c6154ab565b612c7a9190615498565b90508584878303040181151502945050505050610330565b5092949350505050565b60408051610100810182526000606082018181526080830182905260a0830182905260c0830182905260e0830182905282526020820181905291810191909152831580612ce7575081155b15612d1e576040517f98e9db6e00000000000000000000000000000000000000000000000000000000815260040160405180910390fd5b60408051610100810182526000606082018181526080830182905260a0830182905260c0830182905260e0830182905282526020820181905291810191909152612dbb878585808060200260200160405190810160405280939291908181526020016000905b82821015612db057612da1604083028601368190038101906155aa565b81526020019060010190612d84565b505050505083613e20565b805160408051602080890282018101909252878152612e1a918a91908a908a90819060009085015b82821015612e0f57612e00604083028601368190038101906155aa565b81526020019060010190612de3565b505050505085613fdc565b80516005811115612e2d57612e2d614b50565b8351516005811115612e4157612e41614b50565b141580612e6c575080602001516001600160a01b03168360000151602001516001600160a01b031614155b80612e835750806040015183600001516040015114155b15612eba576040517f09cfb45500000000000000000000000000000000000000000000000000000000815260040160405180910390fd5b82600001516060015181606001511115612f6857600085856000818110612ee357612ee36153ae565b905060400201803603810190612ef991906155aa565b905083600001516060015182606001510389826000015181518110612f2057612f206153ae565b60200260200101516000015160600151826020015181518110612f4557612f456153ae565b602090810291909101015160609081019190915284518101519083015250613003565b600087876000818110612f7d57612f7d6153ae565b905060400201803603810190612f9391906155aa565b905081606001518460000151606001510389826000015181518110612fba57612fba6153ae565b60200260200101516000015160400151826020015181518110612fdf57612fdf6153ae565b60200260200101516060018181525050816060015184600001516060018181525050505b60809081015183516001600160a01b039091169101525095945050505050565b81516060908067ffffffffffffffff811115613041576130416144fb565b60405190808252806020026020018201604052801561306a578160200160208202803683370190505b50915060005b8181101561316b57600085828151811061308c5761308c6153ae565b6020026020010151905080602001516001600160781b03166000036130b15750613163565b60018483815181106130c5576130c56153ae565b91151560209283029190910190910152805160600151805160005b8181101561315e5760008382815181106130fc576130fc6153ae565b602002602001015160600151905080600014613155576040517fa5f54208000000000000000000000000000000000000000000000000000000008152600481018790526024810183905260448101829052606401610dce565b506001016130e0565b505050505b600101613070565b5060408051602080825281830190925234916000919060208201818036833701905050855190915060005b818110156132295760008782815181106131b2576131b26153ae565b602090810291909101015180519091506000815160058111156131d7576131d7614b50565b0361320b57858160600151111561320157604051631a783b8d60e01b815260040160405180910390fd5b8060600151860395505b61321f818360200151846040015188613724565b5050600101613196565b5061323382612bc3565b8215613243576132433384613880565b61324d6001600055565b5050505092915050565b60408051610100810182526000606082018181526080830182905260a0830182905260c0830182905260e083018290528252602082018190529181019190915283516000036132d457846040517f375c24c1000000000000000000000000000000000000000000000000000000008152600401610dce91906155d6565b60008560018111156132e8576132e8614b50565b0361330f5780516001600160a01b03831660809091015261330a868583613fdc565b613328565b61331a868583613e20565b336020820152604081018390525b8051606001516000036103305760006020820181905281516080015295945050505050565b80821015612be8576040517f466aa61600000000000000000000000000000000000000000000000000000000815260040160405180910390fd5b600080600052600082516020840380518260410360006001821161340e576040880151606089015160001a965082156133ec57601b8160ff1c0196507f7fffffffffffffffffffffffffffffffffffffffffffffffffffffffffffffff811660408a01525b8689528985526020600060808760015afa508385528589526040890152506000515b891489151516955085905061351a5760408252604486038051604088038051630b135d3f60e11b84528a82526020600060648901868f5afa9850881561351057630b135d3f60e11b60005114613510578b3b1561347657634f7fb80d60e01b60005260046000fd5b60018760410311156134ac577f8baa579f0000000000000000000000000000000000000000000000000000000060005260046000fd5b640101000000881a6134e6577f1f003d0a000000000000000000000000000000000000000000000000000000006000528760045260246000fd5b7f815e1d640000000000000000000000000000000000000000000000000000000060005260046000fd5b8486529190925290525b5050505080611b3d5761352b61416d565b634f7fb80d60e01b60005260046000fd5b60004284118061354c5750428311155b15613591578115613589576040517f6f7eac2600000000000000000000000000000000000000000000000000000000815260040160405180910390fd5b50600061052c565b5060019392505050565b60018360038111156135af576135af614b50565b1180156135c55750336001600160a01b03821614155b80156135da5750336001600160a01b03831614155b1561369e576080880151511580156135f157508651155b1561360757613602818684876141b5565b61369e565b600061369282633313157060e01b88338d8c8e60405160240161362e959493929190615796565b60408051601f198184030181529190526020810180517bffffffffffffffffffffffffffffffffffffffffffffffffffffffff167fffffffff0000000000000000000000000000000000000000000000000000000090931692909217909152614201565b90506115af8187614216565b5050505050505050565b600083600052602060002060208301835160051b81015b808210156136e757815180841160051b938452602093841852604060002092909101906136bf565b50508314905080611b3d576040517f09bde33900000000000000000000000000000000000000000000000000000000815260040160405180910390fd5b60008451600581111561373957613739614b50565b0361378757604084015160208501516001600160a01b0316171561377057604051636ab37ce760e01b815260040160405180910390fd5b61378284608001518560600151613880565b611b3d565b60018451600581111561379c5761379c614b50565b036137de576040840151156137c457604051636ab37ce760e01b815260040160405180910390fd5b613782846020015184866080015187606001518686613dc1565b6002845160058111156137f3576137f3614b50565b03613817576137828460200151848660800151876040015188606001518787612a1f565b611b3d8460200151848660800151876040015188606001518787612a6c565b60008688036138515761384a868689612bec565b9050613875565b61387261385f87878b612bec565b61386a88888b612bec565b868686612c47565b90505b979650505050505050565b61388981613da0565b600080600080600085875af19050806138e8576138a461416d565b6040517f470c7c1d0000000000000000000000000000000000000000000000000000000081526001600160a01b038416600482015260248101839052604401610dce565b505050565b601861012435106102443561026061026435604002011460043560201461022435610240141616168061394c576040517f39f3e3fd00000000000000000000000000000000000000000000000000000000815260040160405180910390fd5b50565b600183600381111561396357613963614b50565b1180156139795750336001600160a01b03821614155b801561398e5750336001600160a01b03831614155b1561224a5761224a818684876141b5565b60008381526002602052604090206139ba84826001806119c3565b50805460ff166139cf576139cf838584611ad3565b710100000000000000000000000000000100019055505050565b604080517f000000000000000000000000000000000000000000000000000000000000000074ff000000000000000000000000000000000000000017600090815260208690527f000000000000000000000000000000000000000000000000000000000000000083526055600b20919092526001600160a01b03169050600080600080526020600085876000875af19150600051905081613ac957613a8c61416d565b6040517fd13d53d40000000000000000000000000000000000000000000000000000000081526001600160a01b0384166004820152602401610dce565b7fffffffff000000000000000000000000000000000000000000000000000000008116632671a55160e11b14612a17576040517f1cf99b26000000000000000000000000000000000000000000000000000000008152600481018790526001600160a01b0384166024820152604401610dce565b833b613b5857632f8aeb3960e11b6000528360045260246000fd5b6040516323b872dd60e01b6000528360045282602452816044526000806064600080895af180613bf2573d15613bcc576020601f3d0104602083048160030281831115613bb357818303600302610200838002858002030401015b5a602082011015613bc8573d6000803e3d6000fd5b5050505b63f486bc8760e01b60005285600452846024528360445282606452600160845260a46000fd5b50604052505060006060525050565b843b613c1c57632f8aeb3960e11b6000528460045260246000fd5b60405160805160a05160c0517ff242432a000000000000000000000000000000000000000000000000000000006000528760045286602452856044528460645260a0608452600060a45260008060c46000808d5af180613ce5573d15613cc0576020601f3d0104602086048160030281831115613ca757818303600302610200838002858002030401015b5a602082011015613cbc573d6000803e3d6000fd5b5050505b63f486bc8760e01b600052896004528860245287604452866064528560845260a46000fd5b5060809290925260a05260c05260405250506000606052505050565b6000613d0e836020015190565b90508181146138e8576138e883612bc3565b60006020885103613d5b5750604080885260208089018a9052632671a55160e11b918901919091526044880152600160648801819052613d6a565b50606487018051600101908190525b603c60c082028901038781528660208201528560408201528460608201528360808201528260a082015250505050505050505050565b8060000361394c5760405163246cf94560e21b815260040160405180910390fd5b613dca83613da0565b613dd48183613d01565b81613dea57613de586868686614270565b612a17565b612a178282600189898960008a613d20565b6064810151604082019060c002604401613e178483836139e9565b50506020905250565b613e65565b7f7fda72790000000000000000000000000000000000000000000000000000000060005260046000fd5b634e487b7160e01b600052601160045260246000fd5b6020820180515184518110613e7c57613e7c613e25565b6020810260208601015160608151015160208451015181518110613ea257613ea2613e25565b60208102602083010151600080602086015115613ec9575050606081018051600090915280155b885183518152602084015160208201526040840151604082015260a084015160808201526060812060208c51028c015b808b1015613fa05760208b019a508a515199508d518a10613f1c57613f1c613e25565b60208a0260208f0101519850602089015115613ef957606089510151975060208b510151965087518710613f5257613f52613e25565b602087026020890101519550606086018051860181511587821060011b1786179550809650506000815250606086208214608084015160a08801511416613f9b57613f9b613e25565b613ef9565b50506060018290528015613fcf5760018103613fc75763246cf94560e21b60005260046000fd5b613fcf613e4f565b5050505050505050505050565b6020820180515184518110613ff357613ff3613e25565b60208102602086010151805160408101516020855101518151811061401a5761401a613e25565b60208102602083010151600080602087015115614041575050606081018051600090915280155b8951835181526020840151602082015260408401516040820152865160208c015261012087015160408c015260608120905060208c51028c015b808b101561412f5760208b019a508a515199508d518a1061409e5761409e613e25565b60208a0260208f010151985060208901511561407b57885197506040880151965060208b5101519550865186106140d7576140d7613e25565b602086026020880101519450606085018051850181511586821060011b178517945080955050600081525060608520821460408d01516101208a01511460208e01518a5114161661412a5761412a613e25565b61407b565b50508160608b510152801561415f57600181036141575763246cf94560e21b60005260046000fd5b61415f613e4f565b505050505050505050505050565b3d15611757576020601f3d010460206040510481600302818311156141a057818303600302610200838002858002030401015b5a6020820110156138e8573d6000803e3d6000fd5b604051602481018490523360448201526001600160a01b0383166064820152608481018290526000906141f59086906303874c7760e21b9060a40161362e565b905061224a8185614216565b6000806000835160208501865afa9392505050565b8161423f5761422361416d565b604051633ed4053f60e21b815260048101829052602401610dce565b61424f6303874c7760e21b614392565b15612be857604051633ed4053f60e21b815260048101829052602401610dce565b6040516323b872dd60e01b600052836004528260245281604452602060006064600080895af1803d15601f3d116001600051141617163d151581166143825780873b151516614382578061436d5781614333573d1561430d576020601f3d01046020840481600302818311156142f457818303600302610200838002858002030401015b5a602082011015614309573d6000803e3d6000fd5b5050505b63f486bc8760e01b60005286600452856024528460445260006064528360845260a46000fd5b7f98891923000000000000000000000000000000000000000000000000000000006000528660045285602452846044528360645260846000fd5b632f8aeb3960e11b6000528660045260246000fd5b5050604052505060006060525050565b60008060203d036143a85760206000803e506000515b7fffffffff0000000000000000000000000000000000000000000000000000000090811692169190911415919050565b6040518060a001604052806143eb61440c565b81526000602082018190526040820152606080820181905260809091015290565b60405180610160016040528060006001600160a01b0316815260200160006001600160a01b0316815260200160608152602001606081526020016000600381111561445957614459614b50565b815260006020820181905260408201819052606082018190526080820181905260a0820181905260c09091015290565b6000815180845260005b818110156144af57602081850181015186830182015201614493565b506000602082860101526020601f19601f83011685010191505092915050565b60208152600061052c6020830184614489565b6000602082840312156144f457600080fd5b5035919050565b634e487b7160e01b600052604160045260246000fd5b60405160a0810167ffffffffffffffff81118282101715614534576145346144fb565b60405290565b604051610160810167ffffffffffffffff81118282101715614534576145346144fb565b604051601f8201601f1916810167ffffffffffffffff81118282101715614587576145876144fb565b604052919050565b600067ffffffffffffffff8211156145a9576145a96144fb565b5060051b60200190565b6001600160a01b038116811461394c57600080fd5b80356145d3816145b3565b919050565b8035600681106145d357600080fd5b600060a082840312156145f957600080fd5b614601614511565b905061460c826145d8565b8152602082013561461c816145b3565b8060208301525060408201356040820152606082013560608201526080820135608082015292915050565b600082601f83011261465857600080fd5b8135602061466d6146688361458f565b61455e565b82815260a0928302850182019282820191908785111561468c57600080fd5b8387015b858110156146af576146a289826145e7565b8452928401928101614690565b5090979650505050505050565b600060c082840312156146ce57600080fd5b60405160c0810181811067ffffffffffffffff821117156146f1576146f16144fb565b604052905080614700836145d8565b81526020830135614710816145b3565b8060208301525060408301356040820152606083013560608201526080830135608082015260a0830135614743816145b3565b60a0919091015292915050565b600082601f83011261476157600080fd5b813560206147716146688361458f565b82815260c0928302850182019282820191908785111561479057600080fd5b8387015b858110156146af576147a689826146bc565b8452928401928101614794565b8035600481106145d357600080fd5b600061016082840312156147d557600080fd5b6147dd61453a565b90506147e8826145c8565b81526147f6602083016145c8565b6020820152604082013567ffffffffffffffff8082111561481657600080fd5b61482285838601614647565b6040840152606084013591508082111561483b57600080fd5b5061484884828501614750565b60608301525061485a608083016147b3565b608082015260a082013560a082015260c082013560c082015260e082013560e082015261010080830135818301525061012080830135818301525061014080830135818301525092915050565b80356001600160781b03811681146145d357600080fd5b600082601f8301126148cf57600080fd5b813567ffffffffffffffff8111156148e9576148e96144fb565b6148fc601f8201601f191660200161455e565b81815284602083860101111561491157600080fd5b816020850160208301376000918101602001919091529392505050565b600060a0828403121561494057600080fd5b614948614511565b9050813567ffffffffffffffff8082111561496257600080fd5b61496e858386016147c2565b835261497c602085016148a7565b602084015261498d604085016148a7565b604084015260608401359150808211156149a657600080fd5b6149b2858386016148be565b606084015260808401359150808211156149cb57600080fd5b506149d8848285016148be565b60808301525092915050565b600082601f8301126149f557600080fd5b81356020614a056146688361458f565b82815260059290921b84018101918181019086841115614a2457600080fd5b8286015b84811015614a6457803567ffffffffffffffff811115614a485760008081fd5b614a568986838b010161492e565b845250918301918301614a28565b509695505050505050565b60008083601f840112614a8157600080fd5b50813567ffffffffffffffff811115614a9957600080fd5b6020830191508360208260051b8501011115614ab457600080fd5b9250929050565b600080600080600060608688031215614ad357600080fd5b853567ffffffffffffffff80821115614aeb57600080fd5b614af789838a016149e4565b96506020880135915080821115614b0d57600080fd5b614b1989838a01614a6f565b90965094506040880135915080821115614b3257600080fd5b50614b3f88828901614a6f565b969995985093965092949392505050565b634e487b7160e01b600052602160045260246000fd5b60068110614b7657614b76614b50565b9052565b614b85828251614b66565b60208101516001600160a01b038082166020850152604083015160408501526060830151606085015280608084015116608085015250505050565b600081518084526020808501945080840160005b83811015614c16578151614be9888251614b7a565b808401516001600160a01b031660a08901526040015160c088015260e09096019590820190600101614bd4565b509495945050505050565b60208152600061052c6020830184614bc0565b600060208284031215614c4657600080fd5b813567ffffffffffffffff811115614c5d57600080fd5b8201610160818503121561052c57600080fd5b60008060008060008060008060008060e08b8d031215614c8f57600080fd5b8a3567ffffffffffffffff80821115614ca757600080fd5b614cb38e838f016149e4565b9b5060208d0135915080821115614cc957600080fd5b614cd58e838f01614a6f565b909b50995060408d0135915080821115614cee57600080fd5b614cfa8e838f01614a6f565b909950975060608d0135915080821115614d1357600080fd5b50614d208d828e01614a6f565b90965094505060808b01359250614d3960a08c016145c8565b915060c08b013590509295989b9194979a5092959850565b604080825283519082018190526000906020906060840190828701845b82811015614d8c578151151584529284019290840190600101614d6e565b50505083810382850152614da08186614bc0565b9695505050505050565b60008060208385031215614dbd57600080fd5b823567ffffffffffffffff811115614dd457600080fd5b614de085828601614a6f565b90969095509350505050565b60008060008060408587031215614e0257600080fd5b843567ffffffffffffffff80821115614e1a57600080fd5b614e2688838901614a6f565b90965094506020870135915080821115614e3f57600080fd5b50614e4c87828801614a6f565b95989497509550505050565b60008060408385031215614e6b57600080fd5b823567ffffffffffffffff811115614e8257600080fd5b830160408186031215614e9457600080fd5b946020939093013593505050565b600080600080600060808688031215614eba57600080fd5b853567ffffffffffffffff80821115614ed257600080fd5b9087019060a0828a031215614ee657600080fd5b90955060208701359080821115614efc57600080fd5b50614f0988828901614a6f565b909550935050604086013591506060860135614f24816145b3565b809150509295509295909350565b60008060008060008060008060a0898b031215614f4e57600080fd5b883567ffffffffffffffff80821115614f6657600080fd5b614f728c838d01614a6f565b909a50985060208b0135915080821115614f8b57600080fd5b614f978c838d01614a6f565b909850965060408b0135915080821115614fb057600080fd5b50614fbd8b828c01614a6f565b999c989b509699959896976060870135966080013595509350505050565b600060208284031215614fed57600080fd5b813561052c816145b3565b60608152600061500b6060830186614489565b90508360208301526001600160a01b0383166040830152949350505050565b60006020828403121561503c57600080fd5b813567ffffffffffffffff81111561505357600080fd5b8201610240818503121561052c57600080fd5b60006150746146688461458f565b83815260208082019190600586811b86013681111561509257600080fd5b865b8181101561518e57803567ffffffffffffffff808211156150b55760008081fd5b818a01915060a082360312156150cb5760008081fd5b6150d3614511565b8235815286830135600281106150e95760008081fd5b818801526040838101359082015260608084013590820152608080840135838111156151155760008081fd5b939093019236601f85011261512c57600092508283fd5b8335925061513c6146688461458f565b83815292871b840188019288810190368511156151595760008081fd5b948901945b848610156151775785358252948901949089019061515e565b918301919091525088525050948301948301615094565b5092979650505050505050565b6000808335601e198436030181126151b257600080fd5b83018035915067ffffffffffffffff8211156151cd57600080fd5b602001915060a081023603821315614ab457600080fd5b600060a082840312156151f657600080fd5b61052c83836145e7565b6000808335601e1984360301811261521757600080fd5b83018035915067ffffffffffffffff82111561523257600080fd5b602001915060c081023603821315614ab457600080fd5b600060c0828403121561525b57600080fd5b61052c83836146bc565b60006020828403121561527757600080fd5b61052c826147b3565b60006104d4368361492e565b60006040828403121561529e57600080fd5b6040516040810181811067ffffffffffffffff821117156152c1576152c16144fb565b604052823581526020928301359281019290925250919050565b60006152e96146688461458f565b80848252602080830192508560051b85013681111561530757600080fd5b855b818110156153a257803567ffffffffffffffff8111156153295760008081fd5b870136601f82011261533b5760008081fd5b80356153496146688261458f565b81815260069190911b820185019085810190368311156153695760008081fd5b928601925b8284101561539257615380368561528c565b8252868201915060408401935061536e565b8852505050938201938201615309565b50919695505050505050565b634e487b7160e01b600052603260045260246000fd5b60008235603e198336030181126153da57600080fd5b9190910192915050565b6000823561015e198336030181126153da57600080fd5b60006104d436836147c2565b6000808335601e1984360301811261541e57600080fd5b83018035915067ffffffffffffffff82111561543957600080fd5b602001915036819003821315614ab457600080fd5b6000808335601e1984360301811261546557600080fd5b83018035915067ffffffffffffffff82111561548057600080fd5b6020019150600681901b3603821315614ab457600080fd5b808201808211156104d4576104d4613e4f565b80820281158282048414176104d4576104d4613e4f565b600081518084526020808501945080840160005b83811015614c16576154e9878351614b7a565b60a09690960195908201906001016154d6565b6000608080830187845260206001600160a01b03808916828701526040848188015283895180865260a089019150848b01955060005b81811015615573578651615547848251614b66565b808701518616848801528481015185850152606090810151908401529585019591870191600101615532565b50508781036060890152615587818a6154c2565b9c9b505050505050505050505050565b818103818111156104d4576104d4613e4f565b6000604082840312156155bc57600080fd5b61052c838361528c565b60028110614b7657614b76614b50565b602081016104d482846155c6565b600081518084526020808501945080840160005b83811015614c1657815161560d888251614b66565b808401516001600160a01b03168885015260408082015190890152606080820151908901526080908101519088015260a090960195908201906001016155f8565b600081518084526020808501945080840160005b83811015614c16578151615677888251614b66565b808401516001600160a01b0390811689860152604080830151908a0152606080830151908a0152608080830151908a015260a091820151169088015260c09096019590820190600101615662565b60048110614b7657614b76614b50565b600081518084526020808501945080840160005b83811015614c16578151875295820195908201906001016156e9565b600081518084526020808501808196508360051b8101915082860160005b85811015615789578284038952815160a08151865286820151615748888801826155c6565b506040828101519087015260608083015190870152608091820151918601819052615775818701836156d5565b9a87019a9550505090840190600101615723565b5091979650505050505050565b8581526001600160a01b038516602082015260a060408201526000610140855160a0808501526157d182850182516001600160a01b03169052565b60208101516101606157ed818701836001600160a01b03169052565b60408301519150806101808701525061580a6102a08601826155e4565b9050606082015161013f19868303016101a0870152615829828261564e565b915050608082015161583f6101c08701826156c5565b5060a08201516101e086015260c082015161020086015260e082015161022086015261010080830151610240870152610120808401516102608801528484015161028088015260208a015194506158a160c08801866001600160781b03169052565b60408a01516001600160781b031660e088015260608a0151878403609f19908101848a015290955093506158d58386614489565b945060808a0151925083878603018188015250506158f38382614489565b92505050828103606084015261590981866156d5565b9050828103608084015261591d8185615705565b9897505050505050505056fea26469706673582212209cf9394e2daffe18dc5ec5735c7faac3a4bfdc21027f1cd666cf67e2dc0bdee664736f6c63430008110033",
  "linkReferences": {},
  "deployedLinkReferences": {}
}